:020000040800F2
:10000000900C002085020008993200083532000863
:10001000953200080D0C0008A93900080000000006
:100020000000000000000000000000000D33000888
:100030007D0C0008000000009D320008113300080C
:100040009F0200089F0200089F0200089F0200080C
:100050009F0200089F0200089F0200089F020008FC
:100060009F0200089F0200089F0200089F020008EC
:100070009F0200089F0200089F0200089F020008DC
:10008000710C00089F0200089F0200089F020008F0
:100090009F0200089F0200089F0200089F020008BC
:1000A0009F020008ED3300089F0200089F0200082D
:1000B0000D3400089F0200089F0200089F020008FC
:1000C0009F0200089F0200089F0200089F0200088C
:1000D0009F0200089F0200085D370008793700087A
:1000E0009F0200089F0200089F0200089F0200086C
:1000F0009F0200089F0200089F0200089F0200085C
:100100009F0200089F0200089F0200089F0200084B
:100110009F0200089F020008193400089F0200088F
:100120009F0200089F0200089F0200089F0200082B
:100130009F02000800000000000000009F0200086D
:100140009F0200089F0200089F0200089F0200080B
:100150009F0200089F0200089F0200089F020008FB
:100160009F0200089F0200089F0200089F020008EB
:100170009F0200089F0200089F0200080000000084
:10018000000000009F0200080000000000000000C6
:100190009F02000800000000000000009F0200080D
:1001A0000000000000000000000000009F020008A6
:1001B0009F0200089F0200089F0200089F0200089B
:1001C0009F02000800F002F800F04CF80AA090E846
:1001D000000C82448344AAF10107DA4501D100F002
:1001E00041F8AFF2090EBAE80F0013F0010F18BF83
:1001F000FB1A43F001031847745B0000945B000096
:10020000103A24BF78C878C1FAD8520724BF30C842
:1002100030C144BF04680C60704700000023002414
:1002200000250026103A28BF78C1FBD8520728BF06
:1002300030C148BF0B607047662905F0A684642969
:1002400000F0B880002070471FB505F091FC00F069
:10025000ABFB04000020002104F0E6FFE0601FBDBE
:1002600010B510BD00F09CFC1146FFF7EDFF03F048
:100270006BFD00F0BAFC03B4FFF7F2FF03BC00F023
:10028000BDFC00000948804709480047FEE7FEE73B
:10029000FEE7FEE7FEE7FEE7FEE7FEE7FEE7FEE736
:1002A00004480549054A064B70470000D933000849
:1002B000C501000890060020900C00209008002046
:1002C0009008002053EA020C00F069802DE9F04B01
:1002D0004FF00006002B1FBFB3FA83F503FA05F4B5
:1002E00024FA05F65E4012BF1643B2FA82F502FA0E
:1002F00005F4C5F120051EBF22FA05FC44EA0C04F2
:10030000203556EA044C4FEA144418BF641C4FF0E1
:1003100000084FF00009904271EB030C39D300291B
:1003200019BFB1FA81F701FA07F6B0FA80F700FABF
:1003300007F6C7F120071EBF20FA07FC46EA0C06A5
:100340002037B6FBF4FCA7EB0507103F07F01F0BA7
:10035000CBF120062CFA06F60CFA0BFB44BFB34691
:100360000026202FA4BF5E464FF0000B5BEA060C70
:1003700008BF4FF0010B19EB0B0948EB0608ABFB6C
:10038000027C06FB02CC0BFB03CCC01B71EB0C0107
:10039000C1E70B46024641464846BDE8F08B13B51F
:1003A000084318BF4FF0FF300146AFF30080BDE8AF
:1003B0001C4070472DE9F04106460024106875295D
:1003C000314616A510D0AFF30080002802DA404273
:1003D00013A507E031688A0701D512A502E0490795
:1003E00004D511A5012401E0AFF3008000210A2209
:1003F00006F1240709E0B0FBF2FCB0FBF2F302FBCC
:100400001C00303078541846491C0028F3D123468C
:100410002A463046BDE8F04100F05BB8000000001D
:100420002D0000002B000000200000000000000054
:1004300030B44FF0013C50F8042B51F8043BCCFA97
:1004400052F4D51A20D1FCB950F8042B51F8043BD2
:10045000CCFA52F4D51A17D1B4B950F8042B51F88C
:10046000043BCCFA52F4D51A0ED16CB950F8042BD7
:1004700051F8043BCCFA52F4D51A05D1002CDAD04D
:1004800030BC4FF00000704729BAB1FA81F111F089
:100490001801D1F120008440F2D1CA40CB4012F0C3
:1004A000FF0213F0FF0330BCD01A7047704770474B
:1004B00070470000004870471000002010B5FFF79B
:1004C000F9FF006810BD10B50446FFF7F3FF0460A4
:1004D00010BD2DE9F0470D4699469246044600F1BD
:1004E00024080168880604D5E06921F01001216024
:1004F00000E00120A84201DD471B00E00027A169C0
:100500007A1902EB0900081AA0612078C00602D40B
:100510002046AFF30080002608E0D4E901211AF854
:1005200006009047206A401C761C20624E45F4DB92
:100530002078C0060AD52046AFF3008006E0D4E953
:10054000012130209047206A401C2062381EA7F10C
:100550000107F4DC07E0D4E9012118F80500904711
:10056000206A401C2062281EA5F10105F3DC20460C
:10057000AFF300802078000602D50220BDE8F087A6
:100580000120FBE72DE9FF4F0C461E464FF0FF37D9
:100590008BB0D2E90001DDF860800A908A46C1F391
:1005A0000A5505B93D46002108464FF00000BAF152
:1005B000000F00F4400005DA00EB80004FF440012A
:1005C00001EA50004FEA9059B9F1010F00DDB94638
:1005D0000A9850EA4A000ED044F61050A5F2FF35B2
:1005E00045432F14B8F1000F1ED07542291E1EDDA1
:1005F000C9F100021CE0B8F1010F4FF0000001D07A
:10060000302103E0F24305E02154401CB042FBDB03
:1006100030460022002121540B99C1F80880C1E91D
:1006200000200FB0BDE8F08FBD1B6D1CDEE74A4611
:1006300000DA694206A800F041FA06AB93E8070029
:1006400003AB83E8070050460A9903F089FD8DE863
:100650000700A0F500501F3800900398002D0ADD18
:1006600042F21F014A460844002303A9039068464A
:1006700003F0F2FF09E0A0F500504A461F380023BE
:1006800003A90390684603F0FCFF8DE8070000040F
:10069000000C03D04FF0FF30410800E01046B8F1E5
:1006A000000F03D00022009215461EE0751E05D4EF
:1006B00000F07EF9303262556D1EF9D5B346012245
:1006C000084302D000227F1C04E02078302801D1AA
:1006D00000227F1E002A099784D01DE0112D07DA21
:1006E00000F066F9303262556D1C50EA0102F5D116
:1006F000084302D00098C8B10EE00021681E05E052
:10070000235C625C63542254401E491C8142F7DB27
:10071000AB46A81B401E0990002004F80B000B9864
:10072000099AC0F80880C0E9002B7AE711264FF03B
:10073000000857E72DE9F04F88460446D21D22F005
:10074000070191B0D1E90001CDE90A0104F0D0F828
:1007500002460B98C00F01D02D2007E020688107CA
:1007600001D52B2002E0202101EAC000032A0990D4
:1007700001D0072A05DB03464146204600F05EF91A
:100780000BE12078800601D5E06900E00620B8F191
:10079000650F814606D0B8F1660F18D0B8F1670F23
:1007A00070D131E00020B9F1110F009001DB11236D
:1007B00001E009F101030AAA01A90CA8FFF7E2FE72
:1007C000DDE90C70002609F10105834647E00120B0
:1007D0004B4600904FF000470AAA01A90CA8FFF76A
:1007E000D1FEDDE90DB00C995D46002610B909F186
:1007F00001000D18B9EB050003D4C0F1FF3609F173
:100800000105A5EB09002BE0B9F1010F01DA4FF06A
:1008100001090020B9F1110F0090484601DD1123B4
:1008200000E003460AAA01A90CA8FFF7ABFEDDE928
:100830000C704D4600268346207800070AD4AB454D
:1008400000DA5D4601A8012D04DD411911F8011CF3
:10085000302907D04F4502DA17F1040F04DA0120DE
:1008600082460FE06D1EEEE7002F02DCED1B3E44DA
:1008700003E0781CA84200DD7D1CB81B00F1010AD2
:100880004FF000472078000703D4AA4501DB4FF062
:10089000FF3A0021B7F1004F0DF143088DF84310E6
:1008A00024D002202B23002F01DA7F422D230A219E
:1008B000021EA0F1010000DC5FB197FBF1FC97FB89
:1008C000F1F201FB1C7C17460CF1300C08F801CD4D
:1008D000EEE7A8F1010003702188090501D5452143
:1008E00000E06521A0F1010800F8011C09980FA99A
:1008F000A1EB0807FF1D00B10120411901EBEA70CF
:10090000A1693844081A401EA0612078C00602D4AC
:100910002046AFF30080099828B1D4E9012190471F
:10092000206A401C20622078C00622D52046AFF302
:1009300000801EE0002E04DBB34502DD01A8805DCF
:1009400000E03020D4E901219047206A401C206259
:10095000761CAAF101005FEA000A0AD100F024F82F
:10096000C0680168405CD4E901219047206A401CBE
:100970002062281EA5F10105DCDC07E0D4E9012195
:1009800018F8010B9047206A401C2062381EA7F11E
:100990000107F3DC2046AFF30080032011B041E6ED
:1009A00000487047100000200048704730000020C9
:1009B00030B5B0F10A0271F100034FEA900E4EEA31
:1009C000817EB0EB0E0061EB91014FEA101E4EEA02
:1009D000017E10EB0E0041EB11114FEA102E4EEA92
:1009E000016E10EB0E0041EB11214FEA104E4EEA62
:1009F000014E10EB0E0041EB1141401841F1000196
:100A00004FEAD00040EA41704FEAD1014FEA810439
:100A100044EA907410EB800544EB01046D1944EB3B
:100A20000404521BA3414FF0000348BF0A3200D513
:100A300030BD401C41F1000130BD00002DE9F04106
:100A40001F46044603260168072A01F4006004DB00
:100A500008B116A505E016A503E008B115A500E04C
:100A600015A521F010002060A069C01EA0610FB183
:100A7000401EA0612046AFF300804FB1D4E90121B0
:100A800038469047206A401C2062C01C206206E065
:100A9000206AFAE7D4E9012115F8010B9047761E88
:100AA000F8D22046AFF30080BDE8F0814E414E0001
:100AB0006E616E00494E4600696E66002DE9F04792
:100AC000814616468AB0354878440DC88DE80D0039
:100AD00032487844801C03AC0DC884E80D0041F610
:100AE0009B300844372190FBF1F290FBF1F5A5F122
:100AF000800501FB12041B3C02D56442012000E08A
:100B00000020DFF898A080460027FA44AAF1BE0A28
:100B10000EE0E0070AD03246684607EB47010123A2
:100B20000AEB810103F0ADFD8DE8070064107F1C26
:100B3000002CEED1194F7F44AE3F19E0E80715D0E5
:100B400007EB04100DF1180A90E80E008AE80E0079
:100B5000C068F04201D1981908903246012306A9D5
:100B600003A803F08EFD03AB83E807006D10641C3F
:100B7000002DE3D14FF0010332466946B8F1000F72
:100B800003A802D003F068FD01E003F07AFDC9E993
:100B90000001C9F808200AB0BDE8F08768520000DB
:100BA0007546FFF7FDFEAE4605006946534620F048
:100BB0000700854618B020B5FFF772FBBDE820405E
:100BC0004FF000064FF000074FF000084FF0000B09
:100BD000AC46ACE8C009ACE8C009ACE8C009ACE878
:100BE000C00921F007018D46704710B50446AFF3E8
:100BF00000802046BDE81040FFF73DBB01491820AA
:100C0000ABBEFEE72600020070470000FEE70000D2
:100C100010B5846B204600F003FA0120207110BD4E
:100C200010B5846B204600F0CDF90120207110BD75
:100C300010B5846B206940F004002061204600F06C
:100C4000F5F90120207110BD10B5846B206940F0CA
:100C500004002061204600F0BBF90120207110BD86
:100C6000806B00F0DFB90000806B00F0ADB90000D0
:100C700040F25410C2F2000000F07ABB704700004E
:100C8000EFF3108072B600BFFEE7000070B581B0D0
:100C90000022009290F83C20012A03D1022108464C
:100CA00001B070BD0E6801220A2E80F83C2009D3E5
:100CB000B2B25200D0F800E012FA86F21E3A0EF1FB
:100CC0000C0305E0D0F800E006EB46020EF110033D
:100CD0004FF0070C1D680CFA02F4A5431D608D68E7
:100CE0001C6805FA02F222431A60496806290FD8E7
:100CF00001EB81014A1F71461F2351F8345F934075
:100D000025EA03030B60B3B203FA02F214E000BF5A
:100D100001EB81030C29B2B204D8714651F8304F6F
:100D2000233B03E0714651F82C4F413B1F259D406A
:100D300024EA05059A400D600B6842F2043CC4F2B7
:100D4000010C1A43ACF541739E450A6006D00021A0
:100D500080F83C10084601B070BD00BF1221112E72
:100D6000C1F2000118BF8E423AD1DCF800208E4259
:100D700022F48002CCF80020DCF8002042F40002CB
:100D8000CCF80020E3D140F20801C2F2000109686A
:100D90004DF68362C4F21B32A1FB0212910C01EBEF
:100DA00081014900009100990029D0D000990139B2
:100DB000009100990029CAD0009901390091009949
:100DC0000029C4D000990139009100990029BED0B2
:100DD00000990139009100990029E7D1B7E700BFD8
:100DE000122EB4D1DCF8001021F40001CCF8001070
:100DF000DCF8001041F48001CCF80010A7E70000F7
:100E0000002804BF0120704710B50446006C00287C
:100E10003ED0206CC00645D4206C41F202118843BC
:100E2000023042F204312064C4F20101086820F467
:100E3000403008600A6894E809101A43D4F810E0BA
:100E40000A604168012321F4807141604168C0F665
:100E5000007341EA0E214160416821F04071416018
:100E6000416841EA0C014160816821F400618160C0
:100E7000E168826811438160A16A8268994222F028
:100E800070628260826813D122F0405119E000BF85
:100E9000204600F065F80020606484F83C00206C77
:100EA000C006B9D50120002184F83C1010BD00BF58
:100EB00011438160816821F040518160E16A82685C
:100EC00011438160816821F0020181608168227E86
:100ED00094F8203041EA42018160416883B141F4D5
:100EE0000061416041684EF2000221F460414160BE
:100EF000616ACFF6FF72436802EB4131194301E0AA
:100F000021F400614160C16A40F2000C21F47001DB
:100F1000C162E2696169CFF6F07CC36A0CEB0252F0
:100F20001A43C262826822F40072826094F8302010
:100F3000836843EA42228260826822F4806282608F
:100F4000826842EA8121816000206064216C012274
:100F500062F301012164002184F83C1010BD0000FF
:100F600080B586B042F200010068C4F2010100229F
:100F700088420592049201D006B080BD43F630004D
:100F80000092C4F20200436943F4807343614369F1
:100F900003F480730093009B0092036843F0010305
:100FA0000360006800F00100009000980320CDE984
:100FB000010001F5604001A9039200F0BBFB06B0FF
:100FC00080BD0000704700007047000070470000BF
:100FD0007047000010B54379012B4FF002031DD07C
:100FE0000371036802F0100ED3F800C0D1E900418C
:100FF00040F6FE7202FA0EF221432CEA020201FAD6
:101000000EF111431960C0211A6801FA0EF122EAAB
:10101000010119600121002301714371184610BDBF
:1010200070470000704700007047000070470000E4
:1010300010B5016804460868800444BF486B5FEA45
:10104000804019D40868800046BF486B5FEA800082
:1010500010BD04202071206940F0020020614FF093
:1010600000504863086820F0805220460A60BDE8BE
:101070001040FFF7ABBF00BF04202071206940F093
:10108000010020614FF400504863086820F480504C
:1010900008602046FFF7C8FF2168D3E7002804BF97
:1010A0000120704710B50446007920B90020607116
:1010B000204600F007F80220207100200121206165
:1010C000217110BDF0B587B0044647F20040216899
:1010D000C4F20000002681420696059602D007B0B1
:1010E000F0BD00BF43F630010196C4F202010A6967
:1010F00000F5C63042F000520A610A6902F000525F
:101100000192019A01960A6842F001020A60096898
:1011100001F0010101910199102102910321CDE912
:10112000031602A900F006FB40F2541546F28800AF
:10113000C2F20005C4F202004FF0606140224FF499
:10114000806385E8470005F110004FF4006C4FF410
:10115000005E4FF4807780E808502846C5E907769E
:101160006E6200F0E5F9002818BFFFF789FD362010
:1011700000210022A560AC6300F044FC362000F0A2
:101180002DFC07B0F0BD000081B04FF0000CCDF891
:1011900000C00068002900900098104414BF14306B
:1011A00008300090009900200B6001B070470000EB
:1011B0002DE9F0410446407901284FF0020008BFB4
:1011C000BDE8F081884606990126B8F1000F6671E6
:1011D00020711FD0E06840F6214540F66947C0F60F
:1011E0000005C0F60007C0E90F5740F649472668DA
:1011F000C0F60007C7643768082947F08057376092
:1012000028D004292AD000290CBF06F11405002596
:1012100026E000BFA06840F6114640F6614CC0F6DB
:101220000006C0F6000CC0E90F6C40F63146256898
:10123000C0F60006C6642E68082946F480562E6063
:1012400016D0042918D000290CBF05F1080C4FF066
:10125000000C13E006F11C0502E000BF06F11805C2
:10126000316841F00051316011462A460CE000BF60
:1012700005F1100C02E000BF05F10C0C296841F4E7
:10128000005129601146624600F004FA00216171A4
:1012900040B104F1100104220B681A430A60BDE852
:1012A000F08100BF08F010020123216803FA02F266
:1012B0000B681A430A60BDE8F081000070B5866DC6
:1012C000044600F019FB94F83510022928D1054690
:1012D0002068216C026822F016020260426922F046
:1012E0008002426109B9A16C19B1016821F00801BD
:1012F0000160016821F00101016000BF2068006801
:10130000C00715D000F0F8FA401B0628F6D32020BD
:101310006065032084F83500002184F8341070BD26
:10132000802060650120002184F8341070BD00BF6A
:10133000E06D3F2101FA00F0B060012084F8350033
:101340000020002184F8341070BD000090F83510A2
:10135000022909D1052180F835100068016821F0C3
:101360000101016000207047802141650120704724
:10137000F0B581B004460020009040F20800C2F2AF
:1013800000000268D4E9166048F2B51337680821F6
:10139000C1F64E3381403942A2FB03250CD02268AE
:1013A00013685B0708D5136823F004031360B1606A
:1013B000616D41F00101616501218140394208D030
:1013C00022685269120604D5B160616D41F00201D4
:1013D000616504218140394208D022681268920771
:1013E00004D5B160616D41F0040161651021814057
:1013F000394217D020680268120713D5B16002681D
:101400000168520308D4C90508D4016821F0080115
:101410000160216C21B905E008033FD4216C09B1BA
:1014200020468847E16D202000FA01F23A4241D07F
:1014300020680368DB063DD5B26094F83530026859
:10144000052B1BD122F016020260426922F08002B5
:101450004261226C0AB9A26C1AB1026822F0080239
:1014600002603F208840B060012084F83500216D83
:101470000020002984F8340052D157E0016852035B
:1014800010D4C90512D4016821F0100101600120B7
:1014900084F83500002084F8340007E0A16C0029AE
:1014A000BED1BFE7080301D4616C00E0E16B09B174
:1014B00020468847606DC8B3606DC0072ED00520F8
:1014C00084F835002068A90A026822F0010202604F
:1014D000009A01328A4200921AD80268D20717D0C5
:1014E000009A01328A42009212D80268D2070FD0C5
:1014F000009A01328A4200920AD80268D20707D0C5
:10150000009A01328A42009202D80268D207DFD1E3
:10151000012084F83500002084F83400E16C29B102
:10152000204601B0BDE8F040084700BF01B0F0BD63
:101530002DE9F041044600F0DFF9ECB10546022048
:1015400084F835000020216884F83400086820F011
:101550000100086021680868C00711D000F0CCF9CC
:10156000401B0528F6D9032520230320636584F852
:101570003550BDE8F08100BF0120BDE8F08100BF1B
:10158000086848F23F02CFF21002D4E9013500EAC0
:10159000020C04F10C0898E8C10143EA0C032B4348
:1015A0001843D4E9072E304338431043626A40EAB7
:1015B0000E00042A40EA08031CD1206BD4E90A2E4D
:1015C00040EA0E00184308604869BEF1000F20F0A1
:1015D000030040EA020040F0040C11D0B8F5005FAF
:1015E00036D0B8F1000F45D1022A46D0012A3BD0AF
:1015F00032B942E00B60486920F0070040EA020C73
:1016000001F0F8004AF6AB221038CAF6AA22A0FB75
:1016100002231A0945F66453C0F600039A5C40F2AF
:10162000FF335F284FF03F00C1F814C021EA0301E7
:1016300000FA02F088BF0431C4E916128860002362
:1016400001250020636584F83550BDE8F08100BFB6
:10165000032AD5D8012540230120DFE802F0030E3C
:10166000030500BF82E700BFAEF1C070B0FA80F0A2
:10167000400904E0032A04D3C2D1CEF3006000285D
:10168000BED0012540230120636584F83550BDE8B4
:10169000F081000070B590F834C0BCF1010F46D065
:1016A0004FF0010C80F834C0D0F858E090F835C005
:1016B000BCF1010F38D14FF0020C80F835C04FF06B
:1016C000000CC0F854C0D0F800C08468056CC06D30
:1016D000DCF80060402C26F48026CCF80060CCF8C2
:1016E00004300B4604BF13460A463F2101FA00F0BE
:1016F000CCF80830CCF80C20CEF80800DCF800005C
:1017000040F01600CCF800002DB1DCF8000040F0ED
:101710000800CCF80000DCF8000040F00100CCF834
:101720000000002070BD00BF002180F834100220AE
:1017300070BD00002DE9F04F82B000F13E4241F64D
:10174000000502F1FF77C4F20205072243F6004EBE
:101750004FEAB726A84208BF0622C4F2010E062EA1
:1017600038BF4FEAB7220125002600274FF00008B6
:10177000009208E008F101080437B8F1100F06F1F3
:10178000020600F0A7800C6805FA08F914EA090FB0
:10179000F0D0D1F804B003220BF0030CACF101043B
:1017A000B240012C6FEA020A10D88268CC6802EAC3
:1017B0000A02B440224382604268CBF3001422EA5A
:1017C000090204FA08F42243426005E0BCF1030F69
:1017D00002D14FF0030C20E0C2688C6802EA0A02D2
:1017E000B4402243BCF1020FC26016D16FF0030275
:1017F00002EA58020244D2F820C007F01C050F2369
:101800000C69AB402CEA030304FA05F52B43136281
:10181000D1F804B001250BF0030C02680CFA06F3B2
:1018200002EA0A021A431BF4403F0260A2D00022DF
:1018300043F644030192C4F202031A684FF6084CBF
:1018400042F480421A601A68CFF6FF7C02F48042AC
:101850000192019A28F00302724452F80C3007F00A
:101860000C050F24AC40A343009C04FA05F52B4360
:1018700042F80C30DEF808204B6842EA090543F6CE
:101880000C4CDC0258BF22EA0905CEF80850C4F21D
:10189000010CDCF800209C0242EA090558BF22EA4C
:1018A0000905CCF80050DEF804209C0342EA090543
:1018B00058BF22EA0905CEF80450DEF80020DB0309
:1018C00042EA090558BF22EA0905CEF80050012571
:1018D00050E700BF02B0BDE8F08F0000426902EAA5
:1018E0000103914341EA034181617047002A08BF27
:1018F000090481617047000040F28860C2F2000074
:101900000068704740F2000040F28861C2F20000B7
:10191000C2F2000100780A681044086070470000B5
:1019200080B543F60040C4F20200016841F4007142
:101930000160016841F480610160016841F48071D7
:101940000160032000F08AF8002000F005F800F0A4
:1019500027F8002080BD000070B540F20006C2F2FA
:10196000000640F208013278C2F200014FF47A73A7
:101970000968B3FBF2F20446B1FBF2F1084600F04D
:10198000BBFB0F2C4FF0010508D838B94FF0FF30E2
:1019900021460022002500F035F87460284670BD0D
:1019A00082B0002043F640010190C4F202014A686F
:1019B00042F480424A604A6802F480420192019AED
:1019C0000090086840F080500860086800F080507F
:1019D00000900098072002B000F040B8002848BFEF
:1019E0007047C1B200F01F00012202FA00F04EF26F
:1019F0000012CEF2000242EAD10121F00301086098
:101A00007047000010B54EF60C5CCEF2000CDCF80E
:101A10000030C3F3022E8EF00704042C28BF0424E8
:101A2000BEF103034FF0FF3E0EFA04F438BF00236B
:101A3000A14399400EFA03F39A43114300F00F02B9
:101A400000F160430901043A03F56443624400284D
:101A500048BF02F10C03197010BD00004EF60C5186
:101A6000CEF200010A684FF6FF031A4060F30A2223
:101A700042F0806040F0FD700860704770B582B041
:101A80000020019043F64000C4F2020001684026A5
:101A900041F0805101600068C4F20E2600F08050D1
:101AA0000190019847F204050120C4F2000530605E
:101AB000FFF722FF044600BF2868C00306D4FFF7E3
:101AC0001BFF001BB0F57A7FF6D90EE00120706095
:101AD000FFF712FF044600BF2868800308D4FFF711
:101AE0000BFF001BB0F57A7FF6D9032002B070BD62
:101AF000002002B070BD00002DE9F041002800F088
:101B00008B8043F60808C4F202080446D8F8F803AC
:101B10000D4600F00F00884207D288F8F853D8F835
:101B2000F80300F00F00A84276D12068810717D58E
:101B3000410705D5D8F8001041F4E051C8F800106D
:101B4000010705D5D8F8001041F46041C8F800102D
:101B5000D8F80010A26821F0F0011143C8F8001075
:101B6000C0073FD1D8F8F80300F00F00A84207D90A
:101B700088F8F853D8F8F80300F00F00A8424BD1CA
:101B80002068410707D5D8F80010E26821F4E05139
:101B90001143C8F80010000708D5D8F800002169E3
:101BA00020F4604040EAC100C8F8000000F07CF872
:101BB000D8F8001045F64C52C1F30311C0F60002EC
:101BC000515C40F2080220FA01F140F20400C2F236
:101BD00000000068C2F200021160FFF7BDFE0020A5
:101BE000BDE8F0816068811E022907D258F8081C00
:101BF00089015CBF0120BDE8F08111E0012807D117
:101C000058F8081C89035CBF0120BDE8F08107E09B
:101C100058F8081C890703D40120BDE8F08100BFF3
:101C2000D8F8001021F003010843C8F80000FFF7BE
:101C300063FE064641F28837D8F80000616800F07C
:101C40000C00B0EB810F8DD0FFF756FE801BB84221
:101C5000F2D90320BDE8F08140F2080043F6080104
:101C6000C2F20000C4F202010068096845F65C5245
:101C7000C1F38221C0F60002515CC84070470000E9
:101C800040F2080043F60801C2F20000C4F202016B
:101C90000068096845F65C52C1F34231C0F60002A3
:101CA000515CC8407047000010B543F60404C4F20C
:101CB00002046068C0F3810142F20040C0F2F40007
:101CC000DFE801F04402081841F20020C0F27A0077
:101CD00010BD00BF216801F03F022168236849025E
:101CE000C3F3881116D4A1FB00010023FEF7EAFA22
:101CF00017E000BF216801F03F0221682368490214
:101D0000C3F3881116D4A1FB00010023FEF7DAFA11
:101D100017E000BF41F20020C0F27A004843B0FB58
:101D2000F2F021680222C1F3014102EB4101B0FB54
:101D3000F1F010BD41F20020C0F27A004843B0FB40
:101D4000F2F02168C1F30271B0FBF1F010BD0000A8
:101D50002DE9F04182B0002800F09680044600781A
:101D600043F60006C007C4F202062BD0B06800F0AC
:101D70000C00042820D0B06800F00C00082802D124
:101D80007068400218D4B06800F00C000C2802D132
:101D90007068400210D46068B0F5803F07D0B0F59D
:101DA000A02F40F03B81306840F4802030603068E4
:101DB00040F4803030603BE13068800302D56068D9
:101DC000002861D02078800722D5B06810F00C0F71
:101DD00011D0B06800F00C00082802D170684002F1
:101DE00009D5B06800F00C000C2840F09F807068A6
:101DF000400200F19B803068800702D5E06801282E
:101E000042D13068216920F0F80040EAC10030601A
:101E1000207800073CD42078400751D4A56985B3C9
:101E2000B06800F00C00082840F0A880012D2BD0ED
:101E30007068E16900F480028A4225D1216A00F0CD
:101E40003F028A4220D147F6C071626A0140B1EB7D
:101E5000821F19D1A16A4FF6FF73C903994300F499
:101E60004032A1F580318A420ED1E16A00F0706201
:101E7000B2EB016F08D1216B00F0E040B0EB017FC5
:101E800002D1002034E100BF012002B0BDE8F081A2
:101E90006069002840F20000C4F247205ED00121B2
:101EA000C0F8801EFFF728FD054600BF706F800751
:101EB000B1D4FFF721FD401B0228F7D9C5E000BFD0
:101EC000306C10F080580AD100200190306C40F046
:101ED00080503064306C00F080500190019847F2DF
:101EE0000007C4F200073868C00511D4386840F410
:101EF00080703860FFF700FD054600BF3868C005F8
:101F000006D4FFF7F9FC401B0228F7D99DE000BF7B
:101F1000A068012805D0052852D1306F40F0040098
:101F20003067306F40F00100306753E0E068002810
:101F300060D00020C4F2472001210160FFF7DCFCE3
:101F4000054600BF306880073FF55BAFFFF7D4FC64
:101F5000401B02284FF00300F4D9C9E00021C0F86B
:101F6000801EFFF7C9FC0546706F80077FF553AFF1
:101F7000FFF7C2FC401B0228F6D966E00027C4F236
:101F8000472700203866FFF7B7FC022D05460BD126
:101F9000306880015ED5FFF7AFFC401B02284FF090
:101FA0000300F5D9A4E000BF306880017FF569AF78
:101FB000FFF7A2FC401B02284FF00300F4D997E082
:101FC000316F002821F001013167316F21F00401E8
:101FD000316763D0FFF790FC054641F2883700BFB8
:101FE000306F80076CD4FFF787FC401BB842F7D9ED
:101FF0002BE000BF0020C4F2472000210160FFF762
:102000007BFC0546306880077FF502AFFFF774FC64
:10201000401B02284FF00300F4D969E03168002822
:1020200021F480313160316821F48021316051D058
:10203000FFF762FC054600BF306880033FF5C2AE83
:10204000FFF75AFC401B6428F6D9032002B0BDE814
:10205000F08100BF04F11C052FCD246B084340EA3A
:102060008210D9034FF6FF729143A1F5803140EA07
:102070000560084340EA0470706001203866FFF78D
:102080003BFC0446306880013FF5FBAEFFF734FCB3
:10209000001B02284FF00300F4D929E0FFF72CFCC5
:1020A000054641F2883700BF306F800708D5FFF73B
:1020B00023FC401BB8424FF00300F5D918E000BFE5
:1020C000B8F1000F7FF4AAAE306C20F0805030647D
:1020D000A4E600BFFFF710FC0546306880037FF5DB
:1020E00071AEFFF709FC401B64284FF00300F4D9E0
:1020F00002B0BDE8F0810000411E0020B0EB116F7E
:102100001CBF012070474EF21002CEF20002516057
:102110004EF62351CEF20001F0230B7007219060A0
:10212000116070477047000070470000B0B590F82C
:102130003C20012A04BF0220B0BD01F108053CCDBE
:10214000D1E900CE23F47C5322F470521A432EF4CA
:10215000F0431A432CF4E0431A4324F4C0431A43D7
:102160002A43C96922F4804203681143596400215B
:1021700080F83C100846B0BD10B590F83C20012A0C
:102180004FF0020251D080F83D200268D2F804E0FE
:10219000D2F808C00C682EF07003234341F2FF749C
:1021A000C4F20004A24253600EDC40F2FF73C4F29A
:1021B00000039A4216DCB2F1804F2BD040F200436C
:1021C000C4F2000324E000BF40F2FF33C4F2010375
:1021D0009A4213DC41F60003C4F200039A4219D07C
:1021E000002313E040F60003C4F200039A4211D02A
:1021F00040F60043C4F200030AE000BF44F20003CB
:10220000C4F201039A4205D040F20043C4F2010334
:102210009A4204D149682CF080031943916001214E
:10222000002280F83D1080F83C20104610BD0000D0
:10223000002804BF0120704710B5044690F83D0007
:1022400028B9002084F83C00204600F01FF8022046
:1022500084F83D002068211D01F0E4F8012084F895
:10226000460084F83E0084F83F0084F8400084F87B
:10227000410084F8420084F8430084F8440084F864
:10228000450084F83D00002010BD000010B582B06C
:10229000006844F20041C4F20101884214D0B0F158
:1022A000804F2DD10020019043F64000C4F202007F
:1022B00001681C2441F001010160006800F0010088
:1022C0000190019810E000BF0020009043F640000C
:1022D000C4F202004168192441F4003141604068B1
:1022E00000F4003000900098204600210022FFF703
:1022F00089FB204602B0BDE81040FFF76FBB00BF6E
:1023000002B010BD90F83D1001291CBF012070479C
:10231000022180F83D10006841F2FF72C168C4F2EA
:102320000002904241F00101C1600DDC40F2FF71FA
:10233000C4F20001884215DCB0F1804F2AD040F28F
:102340000041C4F2000123E040F2FF31C4F2010178
:10235000884213DC41F60001C4F20001884219D022
:10236000002113E040F60001C4F20001884211D0C0
:1023700040F60041C4F200010AE000BF44F200014F
:10238000C4F20101884205D040F20041C4F20101CB
:10239000884206D1816801F00701062904BF0020A8
:1023A0007047016841F001010160002070470000A2
:1023B00080B590F83C20012A4FF0020200F0C28064
:1023C00080F83D20D0F800C04FF67772DCF8083076
:1023D00023EA0202CCF808200B684F2B28DC1F2BC5
:1023E00044DD202B45D0302B43D0402B40F0AC8037
:1023F000D1F804E0C968DCF82030DCF8202022F0B5
:102400000102CCF82020DCF8182022F0F00242EA89
:10241000011123F00A0242EA0E02CCF81810CCF89F
:102420002020DCF8081041F0470121F0300180E065
:102430006F2B27DDB3F5005F48D0B3F5805F7AD00E
:10244000702B40F08180D1E901E3C968DCF80820F5
:1024500043EA0E0322F47F4243EA01211143CCF800
:102460000810DCF8081041F0770162E00BB1102B86
:102470006AD1DCF8081021F07001194341F007011E
:1024800057E000BF502B35D0602B5DD1D1F804E070
:10249000C968DCF8203023F01003CCF82030DCF8D9
:1024A0001830DCF8202023F4704322F0A00243EA25
:1024B000013142EA0E12CCF81810CCF82020DCF8DA
:1024C000081041F0670121F0100132E0D1E901E389
:1024D000C968DCF8082043EA0E0322F47F4243EA8D
:1024E00001211143CCF80810DCF8081041F48041B8
:1024F0001FE000BFD1F804E0C968DCF82030DCF848
:10250000202022F00102CCF82020DCF8182022F054
:10251000F00242EA011123F00A0242EA0E02CCF86C
:102520001810CCF82020DCF8081041F0570121F0F9
:102530002001CCF808100022012180F83D10002174
:1025400080F83C10104680BD0122F5E7704700007E
:1025500010B5016804460869800744BFC8685FEA8F
:10256000807039D40869400744BFC8685FEA40708A
:102570003ED40869000744BFC8685FEA007045D4CC
:102580000869C00644BFC8685FEAC0604AD40869E9
:10259000C0071CBFC8685FEAC07051D10869000657
:1025A00044BFC8685FEA006052D40869400644BF6F
:1025B000C8685FEA406053D40869800646BFC868AF
:1025C0005FEA806010BD6FF0200220460A61BDE81E
:1025D0001040FFF7A9BD00BF6FF0020008610120A5
:1025E00020778869800743D02046FFF7AFFF45E09A
:1025F0006FF00400086102202077886910F4407FA2
:1026000040D02046FFF7A2FF42E000BF6FF0080075
:10261000086104202077C86980073DD02046FFF775
:1026200095FF3FE06FF01000086108202077C8692F
:1026300010F4407F3AD02046FFF788FF3CE000BF0F
:102640006FF001000861204600F056FA2168A5E706
:102650006FF0800008612046FFF764FD2168A4E761
:102660006FF040000861204600F072FA2168A3E78D
:10267000204600F04FF8204600F0B2F92168002013
:1026800020776FE7204600F045F8204600F0A8F9D3
:102690002168002020776CE7204600F03BF82046B8
:1026A00000F09EF921680020207769E7204600F0BD
:1026B00031F8204600F094F921680020207766E781
:1026C00080B586B001680020C4F20100814201D0CB
:1026D00006B080BD002143F630020191C4F202022F
:1026E000136800F5803043F001031360126802F0B4
:1026F00001020192019A4FF4E06201920222CDE9B7
:10270000022104910121059101A9FFF713F806B0F8
:1027100080BD0000704700002DE9F04390F83C3088
:10272000012B04BF0220BDE8F0834FEAB202032A66
:1027300000F2FC80DFE802F0023E7EBE036840F259
:1027400000471A6A43F4806522F001021A621C6A8B
:102750001A46D3F804E052F818CF8E6824F0020429
:10276000C4F20107BD4244EA060405D1CE6824F054
:102770000C0426F0040634430E68BD4207D1D1E9AB
:1027800005572EF4407E45EA0E0545EA070E2CF06B
:1027900073073743C3F804E09F614F6809695F63BB
:1027A0001C629F6947F008079F619F6927F0040733
:1027B0009F61B1E0036840F200481A6A43F4806503
:1027C00022F010021A621C6A1A46D3F804C052F8AA
:1027D00018EF8F6824F02004C4F20108454544EA4C
:1027E000071407D1CF686FF0400624F0C00406EA52
:1027F00007163443D1F80090454506D1D1E9055676
:102800002CF440672E4347EA860C2EF4E64747EA4D
:102810000927C3F804C09F614F6809699F631C6260
:102820009F6947F400679F619F6927F480679F61F4
:1028300071E000BF036840F200481A6A43F4806503
:1028400022F480721A621C6A1A46D3F804C052F845
:102850001CEF8F6824F40074C4F20108454544EA73
:10286000072408D1CF6840F2FF463F0224F44064B9
:1028700027EA06063443D1F80090454506D1D1E950
:1028800005562CF440572E4347EA061C2EF07307DA
:1028900047EA0907C3F804C0DF614F680969DF63CD
:1028A0001C62DF6947F00807DF61DF6927F0040772
:1028B000DF6131E0036840F200451A6A43F4806743
:1028C00022F480521A621A46D3F820C05C6852F88B
:1028D0001CEFD1F800808E68C4F20105AF4204D12C
:1028E0004D6924F4804444EA85142CF4005747EAE7
:1028F00006372EF4E64646EA08265C60DE614E683E
:1029000009691E641F62DF6947F40067DF61DF69E0
:1029100027F48067DF610902136819431160002101
:10292000002280F83C200846BDE8F0830121002207
:1029300080F83C200846BDE8F0830000002804BF72
:102940000120704710B5044690F83D0028B90020DA
:1029500084F83C00204600F01FF8022084F83D0077
:102960002068211D00F05EFD012084F8460084F8F7
:102970003E0084F83F0084F8400084F8410084F869
:10298000420084F8430084F8440084F8450084F849
:102990003D00002010BD000080B582B0006800211D
:1029A000C4F2010188421CBF02B080BD002001902A
:1029B00043F64400C4F202000168002241F0010124
:1029C00001600068002100F00100019001981920C9
:1029D000FFF718F8192002B0BDE88040FEF7FEBFEF
:1029E0007047000041B1082910D0042914BF00F13C
:1029F000410200F13F020BE090F83E20012A1CBF8B
:102A000001207047022280F83E2013E000F14002CE
:102A10001278012A1CBF012070470222082907D022
:102A2000042914BF80F8412080F83F2002E000BF55
:102A300080F84020006801F01F010122036A02FAB9
:102A400001F123EA01020262026A114341F2FF72BC
:102A5000C4F20002904201620CDC40F2FF71C4F249
:102A60000001884214DCB0F1804F37D040F20041C1
:102A700016E000BF40F2FF31C4F20101884215DCCC
:102A800041F60001C4F20001884227D0002115E080
:102A900040F60001C4F2000188421FD040F6004118
:102AA000C4F20001884219D01FE000BF44F20001C7
:102AB000C4F20101884211D040F20041C4F2010188
:102AC000884212D1416C40F2004340F48062C4F26B
:102AD000010341F400419A42416406D1816801F04A
:102AE0000701062904BF00207047016841F0010179
:102AF000016000207047000040F2FC11C2F20001AA
:102B0000884218BF704780B50020C4F2020020211F
:102B1000FEF7E4FE40F20010C2F20000016800225D
:102B200001F1640340F6FE718B4288BF002303600D
:102B300040F2A800C2F200000021FEF725FB40F29F
:102B40000810C2F2000001210170BDE8804070470A
:102B5000704700007047000070470000B0B582B0B9
:102B6000044600680168C368426901F02F05202D02
:102B700003F0200506D12DB1204602B0BDE8B040DB
:102B800000F0F4BC5FEA017C1EBF02F0010E03F40A
:102B9000907212EB0E0253D1226B012A05D111F073
:102BA000100218BF13F0100236D10A0622D513F016
:102BB00080021FD094F83D1021293FD1A168B1F5C2
:102BC000805F03D12169002900F07282216A4A1CCA
:102BD000226209784160E18C01390A04E1842DD137
:102BE000C16821F08001C160C16841F04001C1604D
:102BF00002B0B0BD490621D513F040011ED0C16816
:102C000021F04001C1602021204684F83D1002B02F
:102C1000BDE8B04000F00CBB0021019101680191BA
:102C20004168019101994069400613D4A08DE18D5E
:102C3000E28D002A18BF884240F0BE8102B0B0BDCC
:102C4000CA0718BF13F4807240F0BA804A0700F137
:102C5000BD80C2E0A16B0868426893B2002BEDD042
:102C6000A08D8342EAD2E285C969B1F5807F00F088
:102C70009D80206850E8030F216820F4807041E8AF
:102C80000302DAB1206850E8030F216820F4807055
:102C900041E8030292B1206850E8030F216820F454
:102CA000807041E803024AB1206850E8030F2168B0
:102CB00020F4807041E80302002ADAD1206850E84D
:102CC000050F216820F0010041E80502DAB1206813
:102CD00050E8050F216820F0010041E8050292B19B
:102CE000206850E8050F216820F0010041E8050246
:102CF0004AB1206850E8050F216820F0010041E842
:102D00000502002ADAD1206850E8050F216820F07A
:102D1000400041E80502DAB1206850E8050F21685B
:102D200020F0400041E8050292B1206850E8050F0C
:102D3000216820F0400041E805024AB1206850E8CF
:102D4000050F216820F0400041E80502002ADAD191
:102D5000202084F83E0000202063206850E8030F04
:102D6000216820F0100041E80302DAB1206850E841
:102D7000030F216820F0100041E8030292B120689F
:102D800050E8030F216820F0100041E803024AB127
:102D9000206850E8030F216820F0100041E803028A
:102DA000002ADAD1A06BFEF789FAA08DE18D401AD6
:102DB00081B2204602B0BDE8B040FFF7CBBE00BFF5
:102DC000226C42F0010222644A0706D5BEF1000FD0
:102DD00003D0226C42F0020222648A0706D5BEF1BB
:102DE000000F03D0226C42F004022264BCF1000FF9
:102DF00009D545EA0E02B2FA82F2520903D1226CD9
:102E000042F008022264226C002A3FF417AF11F04E
:102E1000200118BF002D03D0204600F0A7FB20683A
:102E20004069216C00F0400001F00801401800F0FA
:102E3000B58000BF206850E8030F216820F490702F
:102E400041E80302BAB3206850E8030F216820F478
:102E5000907041E8030272B3206850E8030F2168C4
:102E600020F4907041E803022AB3206850E8030F71
:102E7000216820F4907041E80302002ADAD11AE0B8
:102E8000206850E8050F216820F0010041E80502A4
:102E9000DAB1206850E8050F216820F0010041E810
:102EA000050292B1206850E8050F216820F001006A
:102EB00041E805024AB1206850E8050F216820F07A
:102EC000010041E80502002ADAD1206B012824D153
:102ED000206850E8030F216820F0100041E8030249
:102EE000DAB1206850E8030F216820F0100041E8B3
:102EF000030292B1206850E8030F216820F010000F
:102F000041E803024AB1206850E8030F216820F02D
:102F1000100041E80302002ADAD1202084F83E00A4
:102F2000002020632068406940063FD5206850E8B3
:102F3000050F216820F0400041E80502DAB1206861
:102F400050E8050F216820F0400041E8050292B1E9
:102F5000206850E8050F216820F0400041E8050294
:102F60004AB1206850E8050F216820F0400041E890
:102F70000502002ADAD1A06BC0B143F26151C0F65C
:102F800000010165FEF7E2F900283FF457AEA06B9F
:102F9000016D02B0BDE8B040084700BF2046FFF712
:102FA000DBFD0020206402B0B0BD00BF204602B0AF
:102FB000BDE8B040FFF7D0BD401A216851E8031FBB
:102FC000226821F4907142E80313DBB1216851E8D3
:102FD000031F226821F4907142E8031393B1216822
:102FE00051E8031F226821F4907142E803134BB1AA
:102FF000216851E8031F226821F4907142E803130D
:10300000002BDAD1216851E8051F226821F0010167
:1030100042E80513DBB1216851E8051F226821F061
:10302000010142E8051393B1216851E8051F2268A8
:1030300021F0010142E805134BB1216851E8051F59
:10304000226821F0010142E80513002BDAD120218A
:1030500084F83E1000212163216851E8031F226893
:1030600021F0100142E80313002B3FF4A1AE2168C8
:1030700051E8031F226821F0100142E80313002BDE
:103080003FF496AE216851E8031F226821F0100139
:1030900042E80313002B3FF48BAE216851E8031F75
:1030A000226821F0100142E80313002BD4D17FE6FF
:1030B000216A31F8022B6FF35F22426021628AE5B8
:1030C000002804BF0120704710B5044690F83D0069
:1030D00028B9002084F83C00204600F021F8242084
:1030E00084F83D002068C16821F40051C160204689
:1030F00000F0BCFA2068016921F490410161416946
:1031000021F02A014161C16841F40051C1600020F1
:103110002021206484F83D1084F83E1010BD00008A
:10312000F0B587B0006844F60001C4F20001002445
:103130008842CDE90544CDE9034402942AD044F203
:103140000041C4F2000188426DD1002043F63001F5
:103150000190C4F202010A69262442F400320A6195
:103160000A6902F400320192019A01900A6842F061
:1031700001020A60096801F00101019101990C2125
:1031800002910221CDE90310032005900020C4F232
:1031900002003BE043F630000194C4F202000169F2
:1031A000002741F4802101610169C4F2020701F4A2
:1031B00080210191019901940168022541F00401E7
:1031C00001600168032601F0040101910199019455
:1031D000016841F002010160006802A900F00200EC
:1031E00001900198202002900720069007F50060CA
:1031F000CDE903540596FEF79DFA4FF48060CDE9C2
:103200000205CDE9044607F58060272407210691D1
:1032100002A9FEF78FFA204600210022FEF7F2FBFA
:103220002046FEF7DBFB07B0F0BD00007047000052
:1032300070470000FEE7000040F28400C2F2000088
:103240000021C0E90011C0E90211C0E90411816147
:103250007047000040F28C21C2F20001884240F227
:103260007001C2F200010BD040F2BC02C2F20002B7
:1032700090421CBF4FF0FF30704701F10C0000E09E
:10328000081D0068D0F88010D0F88400081A00F0FB
:103290007F007047FEE70000FEE700007047000077
:1032A00040F27000C2F200000021017040F2D8210B
:1032B000C2F20001416040F28C2140F2785240F2AB
:1032C000603340F2006CC2F20001C2F20002C2F2AE
:1032D0000003C2F2000C09688260C360C0F810C02D
:1032E000486940F00100486140F2BC00C2F20000B1
:1032F0000068426942F001024261CA6842F020025D
:10330000CA60C16841F02001C16070477047000089
:10331000FEF7F8BA80B594B0002043F640010C9057
:10332000CDE90A00CDE908000690CDE90400CDE919
:1033300002000190C4F202010A6842F080520A6061
:10334000096801F080510191019947F20001019053
:10335000C4F200010A6842F440420A60096801228E
:1033600001F44041019101990221CDE90D1008209D
:103370000F90B4200A921022CDE9100107A80791FE
:103380000B92CDE91211FEF7E3FC28B1EFF31080A8
:1033900072B600BFFEE700BFFEF770FB20B1EFF38F
:1033A000108072B6FEE700BF0F200290022003904B
:1033B000002004904FF4A05005904FF480500690E8
:1033C00002A80521FEF798FB20B1EFF3108072B63A
:1033D000FEE700BF14B080BD4EF68850CEF200006C
:1033E000016841F4700101607047000080B540F24F
:1033F000B410C2F20000FFF7ABF840F2FC10C2F2CA
:103400000000BDE88040FFF7A3B8000040F2442070
:10341000C2F20000FFF79CB840F2A800C2F2000020
:10342000FDF706BE10B540F6FF3E0368C4F2000E7D
:1034300040F2004C7045C4F2010C27DCB0F1804F23
:1034400031D040F20042C4F2000290422BD040F64C
:103450000002C4F20002904225D041F6FF72C4F28D
:103460000002904229DC70453CDCB0F1804F5FD017
:1034700040F20042C4F20002904259D040F60002ED
:10348000C4F20002904253D056E000BF40F6004222
:10349000C4F20002904206D0604504D00022C4F27B
:1034A00001029042D9D14A6823F07003134341F6D8
:1034B000FF72C4F200029042D5DD43F6FF72C4F2FF
:1034C0000102904222DC42F20002C4F20002904269
:1034D0002ED00022C4F20102904229D0604527D0AC
:1034E0002AE000BF40F60042C4F2000290421FD022
:1034F00041F60002C4F20002904219D041F60042A7
:10350000C4F20002904213D016E000BF44F2000261
:10351000C4F2010290420BD044F60002C4F2010250
:10352000904205D044F20042C4F20102904203D11D
:10353000CA6823F44073134323F080024B69D1F827
:1035400000E08C681A430260C46240F48062C0F8F4
:1035500028E0624504BF096901630121416110BD92
:10356000806B0021C185C184FFF7F6BA81B090F865
:103570003E10222921D183680246B3F5805F09D12C
:1035800052F8281F52F8183C002B63D003685B6880
:103590000AE000BF52F8281F13B90369002BF5D0C9
:1035A00003685B6803F07F030B70116801311160E1
:1035B000C18D01390A04C18502D001B0704700BF36
:1035C0000168CA6822F02002CA60CA6822F48072C8
:1035D000CA604A6922F001024A61202180F83E1047
:1035E000016B01293ED10021016300BF016851E850
:1035F000031F026821F0100142E80313DBB10168E8
:1036000051E8031F026821F0100142E8031393B14F
:10361000016851E8031F026821F0100142E803131A
:103620004BB1016851E8031F026821F0100142E824
:103630000313002BDAD101680A68D20606D50022EE
:1036400000920A680092496800910099818D01B04A
:10365000FFF780BA026852686FF35F2221F8022BED
:103660008162A5E701B0FFF7E1BD000010B5044697
:103670000068D4E902C22369016921F44051114371
:103680000161626943EA0C01E3691143C2681943AD
:1036900049F20C639A431143C1604169A26921F464
:1036A000407141F20043114340F48062C4F20103CF
:1036B0009A42416102D1FEF7E3FA01E0FEF7CCFA4B
:1036C000E16963681922B1F5004FA0FB020123D123
:1036D0005A00DB0FFCF7F6FD48F21F51C5F2EB1163
:1036E000A0FB01235A094FF69C73C0F6FF7303F148
:1036F000805302FB0300322303EBC000A0FB010157
:103700004FF4F87000EA111000EB0210C1F34211FF
:1037100008442168886010BD9A009B0FFCF7D2FD19
:1037200048F21F51C5F2EB11A0FB01235A094FF6D5
:103730009C73C0F6FF7302FB0300322303EB0010FF
:10374000A0FB0101F02000EA511000EB0210C1F3D0
:10375000431108442168886010BD000010B540F294
:103760008C24C2F20004204600F014F82046BDE884
:103770001040FFF7F3B9000010B540F2BC04C2F2EC
:103780000004204600F006F82046BDE81040FFF790
:10379000E5B9000002681368D2F80CC099061FD57D
:1037A0001CF020011CD01168516840F28C22C2F23A
:1037B0000002904236D040F2BC02C2F200029042B7
:1037C0003ED140F27000C2F20000C068D0F8802004
:1037D000D0F88430013202F07F029A4230D031E0DA
:1037E00019062DD51CF080012AD040F28C21C2F29E
:1037F000000188422CD040F2BC01C2F20001884294
:1038000018BF704740F20060C2F20000D0F880207C
:10381000D0F884309A4225D10868C16821F080012F
:10382000C160704740F27000C2F200004068D0F8FA
:103830008020D0F88430013202F07F029A4201D118
:10384000704700BFD0F88030C154C0F88020704766
:1038500040F27850C2F20000D0F88020D0F88430D6
:103860009A42D9D0D0F88420825CD0F884300133D9
:1038700003F07F03C0F88430086801684260704735
:1038800040F28C21C2F20001884213D040F2BC0108
:10389000C2F2000188420AD140F27000C2F2000078
:1038A000C168D1F88000D1F88420904210D14FF047
:1038B000FF30704740F27000C2F200004168D1F85A
:1038C0008000D1F88420904204BF4FF0FF30704751
:1038D000D1F88400085CD1F88420013202F07F0224
:1038E000C1F884207047000080B500285BD440F206
:1038F0008C22C2F20002914228D040F2BC02C2F2F5
:103900000002914218BF80BD40F27003C2F2000372
:10391000196940F2BC0CD1F8802003F1100E01327D
:1039200002F07F02C2F2000CD1F884309A422DD10D
:10393000D1F884309A4229D1D1F884309A4225D1E5
:10394000D1F884309A42EFD020E000BF40F27003FB
:10395000C2F20003996840F28C2CD1F8802003F168
:10396000080E013202F07F02C2F2000CD1F884305E
:103970009A420BD1D1F884309A4207D1D1F88430E1
:103980009A4203D1D1F884309A42EFD0D1F88030F6
:10399000C854DEF80000C0F88020DCF80000C168E0
:1039A00041F08001C16080BDFEE700000000000022
:1039B0002DE9F04F8DB09FEDC60B9FEDC71B51EC6D
:1039C000100B9FEDC70B07910B9051EC110B02915F
:1039D000069051EC100B9FEDC40B0022CDE90910AD
:1039E0006FF0270851EC100B0891059010460C92CF
:1039F00001F09BFE0B9E079F32463B4601F0C0FE46
:103A0000DDF808A0069A5346154601F0D7FC41ECB4
:103A1000100B00F085FFDDF828B0099B51EC100B6E
:103A20005A46994601F022FC059A089B01F0A8FE2F
:103A300001F04EFE4146CDF8048040F2E838C2F273
:103A40000008414488620C980491023001F06DFE38
:103A500032463B4601F094FE2A4653462F4601F07B
:103A6000ADFC41EC100B00F05BFF51EC100B5A4623
:103A70004B464D4601F0FAFBDDF81480089B4246A8
:103A800001F07EFE01F024FE0C9940F2E832C2F211
:103A9000000202EB410148600C980C46043003918F
:103AA00001F043FEDDF81C9032464B4601F068FE03
:103AB0003A46534601F082FC41EC100B00F030FF17
:103AC00051EC100B5A462B465F4601F0CFFB089D88
:103AD00042462B46C34601F053FE01F0F9FDA060BB
:103AE0000C98063001F021FE32464B464E4601F05E
:103AF00047FE069A5346D04601F060FC41EC100B9D
:103B000000F00EFFDDF8249051EC100B3A464B46C6
:103B100001F0ACFB5A462B46AA4601F031FE01F0FB
:103B2000D7FD0399C8600C98083001F0FEFD0B9D8D
:103B300033462A4601F024FE069C4346224601F005
:103B40003DFC41EC100B00F0EBFE51EC100B3A4643
:103B50004B4601F08BFB5A46534601F011FE01F033
:103B6000B7FDDDF81090C9F838000C980A3001F064
:103B7000DCFD2A46334601F003FE22464346254635
:103B8000474601F01BFC41EC100B00F0C9FEDDF8CC
:103B900028B0099C51EC100B5A46234601F066FBF5
:103BA000DDF814805346424601F0EAFD01F090FD35
:103BB000C9F83C000C980C3001F0B7FD0B9A334665
:103BC00001F0DEFD2A463B4601F0F8FB41EC100B0C
:103BD00000F0A6FE51EC100B5A462346A14601F018
:103BE00045FB4246534601F0CBFD01F071FD039EBB
:103BF000B0610C980E3001F098FD0B9CDDF81CB004
:103C000022465B4601F0BCFD2F462A46029D2B460C
:103C100001F0D4FB41EC100B00F082FE0A9A51EC4B
:103C2000100B4B4601F022FB42465346C14601F0C1
:103C3000A7FD01F04DFDF0610C98103001F075FD0D
:103C400022465B4601F09CFD3A462B4601F0B6FB4E
:103C500041EC100B00F064FEDDF82880DDF824A0B4
:103C600051EC100B4246534601F000FB089C4A46BB
:103C7000234601F085FD01F02BFD30620C981230D7
:103C800001F053FD0B9A5B4601F07AFD3A462B4654
:103C900001F094FB41EC100B00F042FE51EC100BD4
:103CA0004246534601F0E2FA4A46234601F068FDD7
:103CB00001F00EFD0C9ADDF8048004991432C82A34
:103CC00008F12808C8647FF491AE0DB0BDE8F08F0C
:103CD0004AD8124DFB210940000000000000594065
:103CE000000000000000F03F000000000000A040C5
:103CF00040F208002C21C2F20000C4F20101006869
:103D000051F8042C0B6801325A43B0FBF2F044F630
:103D1000D352C1F26202A0FB0202900940F2D62205
:103D2000C2F20002108091ED020A91ED001AB8EE85
:103D3000400AB8EE411A80EE010A40F2D020C2F2E9
:103D4000000080ED000A704794B043F6300740F25F
:103D50000008C4F20207C4F20208FDF7E1FDFFF714
:103D6000D9FA0026CDE905660A963868202140F088
:103D7000040038603868002200F004000A900A98B5
:103D80000A963868202440F080003860386800F0D7
:103D900080000A900A980A96386840F0010038605E
:103DA000386800F001000A900A980A96386840F0D6
:103DB00002003860386800F002000A900A98404615
:103DC000FDF794FD4FF4005002904FF4041002AD43
:103DD000CDE9030608F500602946FDF7ABFC029427
:103DE000012440462946CDE903460596FDF7A2FC8D
:103DF00040F28C20A8F5DE31C2F200000C234FF413
:103E0000E13280E84600C0E90366C0E90536C661D4
:103E1000FFF756F920B1EFF3108072B6FEE700BF4E
:103E200040F20C100123A8F56041C2F20000C0F678
:103E3000007305964FF48032067680F82060C0E962
:103E40000A36C46180F8306080E84600C0E9036645
:103E50004461FCF7D5FF28B1EFF3108072B600BFC4
:103E6000FEE700BF00240120CDE9030440F20C105E
:103E7000C2F2000002A90294FCF708FF20B1EFF3A0
:103E8000108072B6FEE700BF40F2FC10A8F53C417E
:103E9000C2F2000044F24F6280E81600C0E9032439
:103EA0008461FEF7C5F928B1EFF3108072B600BF48
:103EB000FEE700BF40F2A006C2F20006A8F5DC3122
:103EC000304640F81C1F4FF4E13100240C22C0E9B9
:103ED0000114C0E90344C0E90524C461FFF7F0F808
:103EE00020B1EFF3108072B6FEE700BF029438688D
:103EF000002140F4001038603868002200F40010FF
:103F0000029002981020FDF77DFD1020FDF766FD60
:103F100024200290A8F5C631304640F8081F0394CB
:103F2000FDF7BCF820B1EFF3108072B6FEE700BFDA
:103F300006F1080502A9284600220024FDF74AF8E8
:103F400020B1EFF3108072B6FEE700BF40F2080028
:103F5000C2F2000000684EF22F318009C0F2BE01AB
:103F6000A0FB010140F2B4104FF0FF33A8F58032FE
:103F7000C2F2000003EBD12140F2E733CDE9124455
:103F80000894C0E90021C0E90243C0E90444846107
:103F9000FEF7D4FC20B1EFF3108072B6FEE700BF4D
:103FA00040F2B410C2F2000012A9FEF7E5F828B101
:103FB000EFF3108072B600BFFEE700BF60200A90EA
:103FC0004FF4FA700B900020CDE90C00CDE90E0003
:103FD000109040F2B410C2F200000AA90022FEF7CD
:103FE0009BFB28B1EFF3108072B600BFFEE700BF65
:103FF00040F2B410C2F200000AA90422FEF78CFBC2
:1040000020B1EFF3108072B6FEE700BF40F2B410AB
:10401000C2F200000AA90822FEF77EFB20B1EFF3EE
:10402000108072B6FEE700BF4FF40050079040F2D8
:10403000B4100024C2F2000002A90694CDE90444A1
:10404000CDE902440994FEF771F818B1EFF310803E
:1040500072B6FEE7FFF74CFE40F2B410C2F2000069
:10406000FEF72EFB20200A9040F24420C2F200000E
:104070004FF0804144F24F62C0E900148021059462
:10408000CDE903440B94C0E9024204618161FEF76B
:10409000CFF818B1EFF3108072B6FEE74FF48050FE
:1040A000029040F24420C2F2000002A9FEF780F91B
:1040B00020B1EFF3108072B6FEE700BF40F244205B
:1040C000C2F200000AA9FEF757F818B1EFF310800A
:1040D00072B6FEE7FFF7E4F8FFF7AEF840F2D4213E
:1040E00000270120C2F20001C6E90070087040F20A
:1040F0000410C2F200004FF47A71016040F2FC102B
:10410000C2F20000FEF7FEF840F24420C2F20000C6
:10411000FEF7F8F840F2B414C2F200042046002181
:10412000FEF760FC20460421FEF75CFCFFF740FC34
:1041300040F2E832C2F200022846002164230097D0
:10414000FDF736F806F11C042046FFF783F8002837
:10415000FAD02046FFF794FB2146FFF7C5FBF3E7B3
:104160005FEA400C08BF91F0000F4FEA8C234FEA42
:10417000C12243EA51514FEA1C5018BF00F5F040EC
:104180004FEA300018BF41F000415FEA6C5C00F07C
:104190002980BCF1FF3F08BF40F080407047130CFE
:1041A00006BF12044FF0100C4FF0000C130E04BFAA
:1041B00012020CF1080C130F04BF12010CF1040CD5
:1041C000930F04BF92000CF1020CD30F04BF5200F6
:1041D0000CF1010C11464FF00002A0F11F00A0EB02
:1041E0000C00704711F0004F08BF704731F00041DC
:1041F0003FF4D5AF0B0C06BF09044FF0100C4FF085
:10420000000C0B0E04BF09020CF1080C0B0F04BFCD
:1042100009010CF1040C8B0F04BF89000CF1020C96
:10422000CB0F04BF49000CF1010CCCF1200322FAA2
:1042300003F341EA030102FA0CF2A0EB0C0000F1D7
:104240000100704723F07F4720F07F4C80EA030095
:1042500000F00040ACEB070303F57C5303F1FF03D0
:104260002DE9804909B44FEA144324EA03484FEA90
:10427000154B25EA0B4E0FF2042606EB13273E786A
:1042800003FB0667C7F5000707FB06F64FEAD646AD
:1042900006F102064FEA543707FB066CCCF1005CCE
:1042A0004FEA1C472CEA074C0CFB06F507FB06F40B
:1042B00004EB15464FEA961649085FEA320234BF0E
:1042C00000204FF000404FEAD13706FB07FC4FEAD1
:1042D0001C4C0CFB0BF7D21B03FB0CF761EB07012B
:1042E0000CFB0EF7B0EB074072EB17420CFB08F724
:1042F00034BFA2EB0742B2EB074261EB17414FEA32
:104300000C444FEA910706FB07FC4FEA1C4C0CFBE0
:104310000BF7B0EBC74072EB573203FB0CF734BF1F
:10432000A2EBC742B2EBC74261EB57310CFB0EF771
:10433000B0EBC70072EB57720CFB08F734BFA2EB6F
:10434000C702B2EBC70261EB57714FEA816141EAE4
:1043500092114FEA826242EA90124FEA806004EBC7
:10436000CC04039F4FEAD13706FB07FC4FEA1C4CF5
:104370000CFB0BF7D21B03FB0CF761EB07010CFBEB
:104380000EF7B0EB074072EB17420CFB08F734BF97
:10439000A2EB0742B2EB074261EB17414FEA8C55A3
:1043A00004EB9C244FEA910706FB07FC4FEA1C4CE8
:1043B0000CFB0BF7B0EBC74072EB573203FB0CF76B
:1043C00034BFA2EBC742B2EBC74261EB57310CFBE3
:1043D0000EF7B0EBC70072EB57720CFB08F734BF57
:1043E000A2EBC702B2EBC70261EB57714FEA8161E2
:1043F00041EA92114FEA826242EA90124FEA8060EB
:1044000015EB4C2544F100044FEAD13706FB07FCBD
:104410004FEA1C4C0CFB0BF7D21B03FB0CF761EBB8
:1044200007010CFB0EF7B0EB074072EB17420CFBD9
:1044300008F734BFA2EB0742B2EB074261EB17412A
:104440004FEA813141EA92414FEA823242EA904298
:104450004FEA80304FEA0C7615EB1C1544F100044E
:1044600048EA03434EEA0B484FF0000EB2EB080C4B
:1044700071EB030724BF624639464EEB0E0E4FF038
:10448000000B0018524149414BEB0B0BB2EB080CEF
:1044900071EB03077BF1000B24BF624639464EEBFC
:1044A0000E0E4FF0000B0018524149414BEB0B0B25
:1044B000B2EB080C71EB03077BF1000B24BF6246E3
:1044C00039464EEB0E0E51EA020718BF46F00106C0
:1044D00016EB0E7655F1000254F1000103D5BDE84C
:1044E0008901BDE80088BDE88901BDE80048B6192A
:1044F000524141EB0101A3F10103704780807F7EAF
:104500007D7C7B7A79787776767574737271717049
:104510006F6E6E6D6C6C6B6A6A69686867666665FB
:104520006464636362616160605F5F5E5E5D5D5C89
:104530005C5B5B5A5A5959585857575656555555FA
:104540005454535352525251515050504F4F4F4E5A
:104550004E4D4D4D4C4C4C4B4B4B4A4A4A494949A8
:1045600048484847474747464646454545444444EA
:104570004443434343424242424141419C46002B13
:1045800030D477002BD04FEA37071CB503B44FF077
:1045900010004FF01001BAF1000F06D0BCF1000F6F
:1045A000DCBF40F0080040F008014FF000000FBCF5
:1045B000BDE810400BF1010BBBF1010F08BF5FEA32
:1045C000170722BF12F1010211F101014FF0004162
:1045D00043F1000300F0004043EA00007047F9D3C4
:1045E0005708D0E746EA06464FEA164613F1400F51
:1045F0001FDD13F1200FDFBF16430A4600212033D1
:104600005B42BED0C3F1200746EA06464FEA164693
:1046100002FA07F746EA070622FA03F2C3F1200777
:1046200001FA07F742EA070221FA03F14FF000030B
:10463000A7E746EA020646EA06464FEA164646EA73
:104640000106BCBF46EA0646360C4FF000034FF0A9
:1046500000024FF0000194E72DE9804C70B49A46B7
:10466000934691E8380007C831EA400C48BF34EA65
:10467000430C03D5FFF7E6FDFFF780FFF0BCBDE874
:10468000008C2DE9804C70B49A46934691E838002E
:1046900007C810F0804F08BF13F0804F03D100F01F
:1046A00005F8FFF76BFFF0BCBDE8008C20F07F47FA
:1046B00023F07F4C80EA030000F0004007EB0C037E
:1046C000A3F57C53A3F1FE0392F0000F00F0B3803A
:1046D00095F0000F00F077802DE901494FEA114075
:1046E00021EA00484FEA144624EA064700FB06FC8C
:1046F00008FB06F607FB08F818EB06484CEB164CCF
:1047000000FB07F718EB07484CEB17404FEA124B3A
:1047100022EA0B4E4FEA154625EA06470BFB06FC3C
:104720000EFB06F607FB0EFE1EEB064E4CEB164C80
:104730000BFB07F71EEB074E4CEB174B18EB0B0868
:1047400040F1000018EB0E0B58EB000840F10000A0
:104750008F1A4FF000014FF000063CBFC943661BA3
:1047600014BFB5EB040C00213CBFC943F61B4FEA54
:10477000174427EA04454FEA1C472CEA074C04FB80
:10478000076205FB07F70CFB05F616EB074642EB45
:10479000174204FB0CFC16EB0C4642EB1C421BEBD5
:1047A000060658EB020241414EEA8E0E46EA9E068C
:1047B00001D5BDE80189B619524141EB0101A3F1D0
:1047C0000103BDE801894FEA144524EA05464FEA92
:1047D000114721EA074C05FB07F406FB07F70CFB22
:1047E00006F111EB074144EB174405FB0CFC11EB00
:1047F0000C4144EB1C444FEA124722EA074C05FBEC
:1048000007F206FB07F70CFB06F616EB074642EB32
:10481000174205FB0CFC16EB0C4642EB1C456A18D4
:1048200054F1000148BF7047B619524141EB0101F4
:10483000A3F10103704795F0000F37D04FEA114202
:1048400021EA02464FEA144724EA074C02FB07F12B
:1048500006FB07F70CFB06F414EB074441EB17418A
:1048600002FB0CFC14EB0C4441EB1C414FEA1547D6
:1048700025EA074C02FB07F506FB07F70CFB06F6DB
:1048800016EB074645EB174502FB0CFC16EB0C46F6
:1048900045EB1C42121951F1000148BF7047B6198F
:1048A000524141EB0101A3F1010370474FEA144566
:1048B00024EA05464FEA114721EA074C05FB07F1B8
:1048C00006FB07F70CFB06F212EB074241EB174120
:1048D00005FB0CFC12EB0C4251EB1C414FF00006A7
:1048E00048BF7047921841EB0101A3F101037047E3
:1048F00003B401984100009850EAC12018BF042079
:104900004A0D18BF40F0010040F2FF72B2EB515F58
:1049100008BF40F00200012808BF052002B0704720
:1049200010B52F499FED2C1B2DED020B84B005987F
:1049300020F000408842DCBF00209DED040B32DDFA
:104940002849884209D1049840B94FF00100FBF78B
:10495000BAFD00F03DFC06B010BD05DB9DED040B7B
:1049600000F02AFC06B010BD68469DED040B00F077
:104970003BF810F0030011D0012818D09DED021B68
:104980009DED000B02281AD000F04AFA51EC100BF2
:1049900000F060FC06B041EC100B10BD9DED021B59
:1049A0009DED000B012000F06FFB06B010BD9DEDEA
:1049B000021B9DED000B00F033FA06B010BD012084
:1049C00000F062FB51EC100B00F044FC06B041EC2F
:1049D000100B10BD000000000000000000000000EF
:1049E000FB21E93F0000F07F2DE9F14F04462DED5A
:1049F000020B2DED088B8AB09FEDE70B80ED020BCB
:104A0000139EE74826F0004585420ADC9DED120B17
:104A1000002084ED000B0AB0BDEC088B03B0BDE8AC
:104A2000F08FE0489FEDE0AB9FEDE1BBA84247DD92
:104A3000E14F9FEDE39B9FEDE48B9DED120B53EC5B
:104A40001A2B51EC100B002E1CDD00F0A3FF41ECE3
:104A5000100BBD4208D053EC1B2B51EC100B00F097
:104A600099FFC4E900010BE053EC192B51EC100B3A
:104A700000F090FF53EC182B00F08CFFC4E900010C
:104A80000120C8E700F0F2FB41EC100BBD4208D05A
:104A900053EC1B2B51EC100B00F0E8FBC4E90001B8
:104AA0000BE053EC192B51EC100B00F0DFFB53EC37
:104AB000182B00F0DBFBC4E900014FF0FF30AAE740
:104AC000C348A84279DB9DED120B51EC100B00F0AE
:104AD0009FFB41EC180B9FEDC00B53EC102B00F02B
:104AE0004FFE9FEDBF1B53EC112B00F0BFFB00F0FE
:104AF000BFFD074600F019FE41EC190B53EC1A2BD1
:104B000000F03EFE53EC182B00F038FF41EC180B80
:104B100053EC1B2B51EC190B00F032FEDFF8C8A24E
:104B200041EC100B4FEA15580125FA4453EC102BB9
:104B300051EC180B00F02EFF032DC4E900013DD00D
:104B4000C1F30A5005EB4511A8EB00001139814271
:104B500034DA0AEB051BB0EE48AA9BED000BF0EE31
:104B600068AA53EC102B51EC190B00F009FE41EC34
:104B70001B0B51EC1A0B53EC1B2B00F00BFF41EC01
:104B8000180B51EC1A0B53EC182B00F003FF53ECED
:104B90001B2B00F0FFFE9BED020B41EC1A0B53ECBC
:104BA000102B51EC190B00F0EBFD53EC1A2B00F01D
:104BB000F1FE41EC100B6D1CB8E70EE0002EA8BF13
:104BC0003846BFF628AF94ED000B51EC100B00F007
:104BD00041FBC4E9000178421DE7C6F3130040F42D
:104BE000801EC6F30A50A0F2F530471100F01F05F1
:104BF000C5F12000DDF848B008900020069007902D
:104C00000520EC467949002D07EB0002794408BFE6
:104C100051F8221009D051F8223001EB8201AB404B
:104C20004A68089922FA01F11943A1FB0E26A1FB5B
:104C30000B131A449A4234BF0123002303EB0608E6
:104C40000CEB8003D3E901A60E448E4234BF012150
:104C5000002192448A4411B1924502D903E0924561
:104C600001D2012100E00021C3E901A641444CF832
:104C70002010011EA0F10100C4DC029800F10050D8
:104C8000850F0298DDE903678000DDF8148000F0ED
:104C90004CFD41EC1A0B304600F05EFD9FED541BBD
:104CA00053EC112B00F06CFD41EC1B0B384600F06F
:104CB00053FD9FED511B53EC112B00F061FD41ECB6
:104CC000180B404600F048FD9FED4D1B53EC112B97
:104CD00000F056FD41EC190B51EC180B53EC192B5D
:104CE00000F0C4FA53EC1B2B00F0C0FA53EC1A2B63
:104CF00000F0BCFACDE90801002008909DED080BFA
:104D000053EC1A2B51EC100B00F044FE53EC1B2B10
:104D100000F040FE53EC182B00F03CFE53EC192B36
:104D200000F02CFE9FED381B53EC112B00F028FDFA
:104D30009FED370B41EC180B53EC102B9DED080B3E
:104D400051EC100B00F01CFD53EC182B00F08EFA08
:104D50009FED310B41EC180B53EC102B9DED080B24
:104D600051EC100B00F00CFD53EC182B00F07EFA08
:104D700041EC100B139810F0004F06D06D4251EC2F
:104D8000100B00F067FA41EC100B284684ED000B85
:104D900041E60000000000000000000000000000EC
:104DA000FB21E93F7CD9024000004054FB21F93F40
:104DB0003163621A61B4D03DFB21F93F000000006D
:104DC0000000601A61B4D03D7370032E8A19A33BB2
:104DD000FB2139410000000083C8C96D305FE43F0A
:104DE000000000000000E03F92100000E00F000013
:104DF000000000000000103E000000000000103C19
:104E0000000000000000103A182D4454FB21F93D29
:104E10003326A611460B113C00000054FB21F93D3E
:104E200010B52DED040B2DED088B82B0B0EE419A3C
:104E3000F0EE619A0B9820F000449FED4BABB4F17B
:104E4000795F11DA9DED0A0B51EC100B00F010FCAC
:104E5000002801BFB0EE4A0AF0EE6A0A02B0BDECCB
:104E6000088B04BF04B010BD9DED0A0B53EC102B52
:104E700051EC100B00F084FC41EC180B3C4806216F
:104E8000B0EE480AF0EE680A784400F081F853EC7E
:104E9000182B51EC100B00F073FC9DED0A0B41EC4C
:104EA0001B0B53EC192B51EC100B00F069FC41EC7F
:104EB000190B53EC1B2B51EC180B00F061FC53EC5D
:104EC000192B00F067FD9FED2C0B41EC190B53ECF7
:104ED000102B51EC180B00F053FC41EC100B284840
:104EE000844210DA53EC192B51EC100B00F052FDF8
:104EF00053EC1A2B00F042FD41EC100B02B0BDEC5C
:104F0000088B04B010BD1F48A042BCBF9FED1E1B04
:104F10008DED001B06DBA4F5001001900020009031
:104F20009DED001B51EC100B53EC112B00F032FDEA
:104F30009DED000B41EC180B53EC102B51EC1A0BB0
:104F400000F028FD41EC1A0B53EC192B51EC180B17
:104F500000F020FD53EC1A2B00F010FD41EC100B7B
:104F6000CCE7000000000000000000000000F03F5F
:104F7000040D000000000000000000000000E03F01
:104F80003333D33F0000E93F000000000000D23F70
:104F900070B504462DED028B4D1E00EBC500B0EE42
:104FA000408AF0EE608A90ED000B35F0060017D0D5
:104FB00053EC182B51EC100B00F0E2FB41EC100B02
:104FC0006D1E04EBC50090ED001B51EC100B53EC73
:104FD000112B00F04BF941EC100B35F00600E7D136
:104FE000022D36D0042D1CD0062D1CBFBDEC028B2B
:104FF00070BD53EC182B51EC100B00F0C1FB94ED7D
:105000000A1B53EC112B00F031F953EC182B00F074
:10501000B7FB94ED081B53EC112B00F027F941EC82
:10502000100B53EC182B51EC100B00F0A9FB94ED76
:10503000061B53EC112B00F019F953EC182B00F060
:105040009FFB94ED040B53EC102B00F00FF941EC97
:10505000100B53EC182B51EC100B00F091FB94ED5E
:10506000021B53EC112B00F001F953EC182B00F04C
:1050700087FB94ED001B53EC112B00F0F7F8BDEC0F
:10508000028B41EC100B70BD31B504462DED040BC5
:105090002DED0A8BB0EE41BAF0EE61BA0B989DEDA2
:1050A0000A0B20F00040B0F1795F0DDA51EC100BE3
:1050B000FFF71EFC042808BF00F09AF89DED0A0BCC
:1050C000BDEC0A8B05B030BD53EC102B51EC100B2E
:1050D00000F056FB41EC180B9DED0A0B53EC182B1E
:1050E00051EC100B00F04CFB41EC190B2C48B0EECE
:1050F000480AF0EE680A05217844FFF749FF9FED62
:105100002ACBB0EE40AAF0EE60AA9CB353EC1C2B65
:1051100051EC190B00F034FB41EC1C0B53EC1A2B37
:1051200051EC190B00F02CFB9FED210B41EC190BFE
:1051300053EC102B51EC1B0B00F022FB53EC192B02
:1051400000F028FC53EC182B00F01AFB53EC1B2B3F
:1051500000F020FC53EC1C2B00F01CFC9DED0A1B06
:1051600053EC112B00F00AFCBDEC0A8B05B041ECAE
:10517000100B30BDFFE753EC1A2B51EC180B00F06D
:10518000FFFA53EC1C2B00F071F853EC192B00F0D4
:10519000F7FA9DED0A1B53EC112B00F067F8E3E7DB
:1051A000940B000000000000495555555555C5BFEA
:1051B000000000000000E03F10B553EC102B51EC54
:1051C000100B00F053F841EC100B10BD0000000074
:1051D0009FED050B10B553EC102B51EC100B00F0AC
:1051E000EDF841EC100B10BD0000000000000000C5
:1051F0009FED050B10B553EC102B51EC100B00F08C
:10520000BFFA41EC100B10BD0000000000000010C0
:1052100082B0CDE9000121F0004001909DED000B2E
:1052200002B051EC100B704710B500290AD0087875
:10523000002807D005487844FBF7FAF8002801D089
:10524000002010BD0248784410BD0000560B00003D
:105250004E0B000081F00041704780F00040704725
:1052600021F00041704720F00040704710B591EAEE
:10527000030F48BF83F0004300F19483841A71EB5D
:10528000030C05D2121943EB0C03001B61EB0C015C
:105290004FEA1154A4EB135CDFF81CE11EEA430F44
:1052A00018BF9EEA445F00F0748021EA045123EAAB
:1052B0000E0343F48013DCF1200E32D322FA0CFEED
:1052C00010EB0E0023FA0CFE41EB0E01CCF1200E88
:1052D00003FA0EFE10EB0E00CCF1200E51F100018E
:1052E000B1F5801F32D201EB045112FA0EF2BDE883
:1052F000104058BF7047401C38BF5FEA420218BFD9
:105300007047002814BF20F0010041F100014FEA6E
:10531000410313F5001F38BF7047A1F1C04100F0F1
:1053200027BB012A43EB0302ACF1200CDCF11F0E7A
:1053300032BF4FF0000E23FA0CF310EB030041EBE9
:105340000451B4EB115FD0D0A1EB045101F58011F1
:10535000490801EB04515FEA30000ED350F1000020
:1053600038BF12FA0EFE08D1BDE81040C9E7401C54
:1053700038BF5FEA4202CAD1C3E7BDE810404FEA36
:10538000410313F5001F38BF7047A1F1C04100F081
:10539000EFBA9EEA445F08D011EA5E0FBDE8104004
:1053A00004BF01F0004100207047BDE8104070B517
:1053B00000F090FA64FBBE3E0000E0FF2DE9C04122
:1053C00030B4DFF8A4C23CEA111418BF3CEA13144D
:1053D00000F0ED801CEA111481EA030544EAD5745B
:1053E00018BF1CEA131500F0C880A4EB050404F1F3
:1053F0007F7404F500344FF0004545EAC12145EAC9
:10540000C32341EA505143EA52534FEAC0204FEAC6
:10541000C222994208BF904200F09D804FEA136576
:105420000FF24416765D4FEA134506FB05F7C7F108
:10543000807706FB07F74FEAD737A7FB036876426A
:10544000A7FB06CEC8F5803838BFA8F1010807FBD6
:1054500008E6A6FB028C4FF0000EE6FB03CEDCF163
:10546000000CCEF1004E38BFAEF1010EA6FB0C5879
:105470004FF00007E6FB0E87A1FB08C6A0FB07CE96
:1054800016EB0E064FF0000545F10005E1FB076540
:1054900015F1E04E7EBFA4F580345FEA46066D410B
:1054A00016F1800745F100054FEA172747EA05671F
:1054B0004FEA15254FEA0666A6F1DE46B6F1805F93
:1054C00020D9384605EBC47124F0010C01EB0C1116
:1054D000BCF1FE6F02D8F0BCBDE8008124425CBF85
:1054E00001F5801E9EEAC47F02D4F0BCBDE80081B5
:1054F000244200F13980A1F1C041F0BCBDE8004177
:1055000000F036BA4FEAD02040EA41504FEAD121AC
:105510004FEAD22242EA43524FEAD323A7FB028644
:1055200007FB036605FB02661EEA0E0F58BFA6EBDB
:105530000056B6EB00564FEA520E4EEAC37E18EB09
:105540000E0E56EB530EBCD518EB02085E417F1CC5
:1055500055F10005B5E74FF480154FF000074FF007
:1055600000064FF00008ACE701F1C04101F0004136
:105570004FF00000F0BCBDE800810CEA131511EA01
:105580000C1F00D00CE013EA0C1F00F026804FF037
:10559000000081EA030101F00041F0BCBDE8008198
:1055A000F0BCBDE8004181EA030100F0E1B9F0BCC4
:1055B000BDE8004170B500F08DF900BF097EFC3EEA
:1055C00000F007B84FF0000081EA030101F000414C
:1055D000704781EA030100F0CBB9F0BCBDE800419F
:1055E00022494FF000007047FFFDFBF9F7F5F4F298
:1055F000F0EEEDEBE9E8E6E4E3E1E0DEDDDBDAD86E
:10560000D7D5D4D3D1D0CFCDCCCBCAC8C7C6C5C4CB
:10561000C2C1C0BFBEBDBCBBBAB9B8B7B6B5B4B3E2
:10562000B2B1B0AFAEADACABAAA9A8A8A7A6A5A4CD
:10563000A3A3A2A1A09F9F9E9D9C9C9B9A99999891
:105640009797969595949393929191908F8F8E8E34
:105650008D8C8C8B8B8A89898888878786858584C1
:1056600084838382828181800000FF070000F87FAD
:105670004FEA41034FEA5353A3F58063D3F11E036E
:10568000C8BFD3F1210C0CDD4FF0004242EAC12229
:1056900042EA505232FA03FC8CEAE17CACEBE17056
:1056A0007047102BC4BF0020704703F5787CBCF115
:1056B000FF3F04D06FF0004282EA2100704770B5CE
:1056C00000F008F94992248000207047F2E70000BA
:1056D0004FEA1153A3F58063D3F11E03A8BFD3F1A2
:1056E000200C08DB4FF0004242EAC12252EA50523D
:1056F00032FA03F0704709420BD4102BC4BF0020CC
:10570000704703F5787CBCF1FF3F05D04FF0FF30C8
:1057100070474FF00000704770B500F0DBF800BF35
:105720004992248000207047F0E710F0004248BF03
:105730004042B0FA80F310FA03F10AD0C3F11D031E
:1057400003F5806302EB03524FEA415002EBD12193
:1057500070474FF000007047B0FA80F310FA03F181
:105760000AD0C3F11D0303F580634FEA03524FEAE9
:10577000415002EBD12170474FF00000704700000C
:1057800070B5DFF848C11CEA111E1EBF1CEA1315D4
:105790009EEA0C0F95EA0C0F00F06F8081EA03047B
:1057A0004EEAD47EAE4421EA4C1123EA4C1341F474
:1057B000801143F48013AEF17F7EA1FB024CA0FB6D
:1057C0000365361955EB0C05A1FB034C4CF10003A6
:1057D000A0FB021C16EB0C06654153F100030942C5
:1057E00018BF46F0010613F4007F0BD14FEA0331D6
:1057F0004FEA053041EA155140EA165034036FF084
:1058000003020AE04FEAC3214FEAC52041EA55519D
:1058100040EA5650F4026FF0020202EB2E4201EB16
:10582000025585EACE710AD05FEA440C18BF24F015
:10583000004450F1000041F1000120EAD47040F230
:10584000FE7C624500D270BDA84214BF4FF0804478
:105850004FF04044002E08BF0024BEF1806FA8BF67
:10586000A1F1C041BDE8704080F2828001F1C041E9
:1058700001F000414FF0000070470CEA13159EEA5A
:105880000C0F18BF95EA0C0F06D081EA030E4FF0FB
:1058900000000EF0004170BD00F01CF88900013ED0
:1058A00000F007B800F009B84FEA430C5FEA5C5C0F
:1058B00008D081EA030100F05BB84FEA410C5FEACF
:1058C0005C5CF6D102494FF0000070470000FF0712
:1058D0000000F87F0EF1020E2EF0030E5EF8046B4E
:1058E000364205D4012A43EB030515F5001F12D8F3
:1058F000012841EB010C1CF5001F0CD80ED14FEA1A
:10590000D17C0CEB4C0C0CF1020C15F5001F08BF00
:105910004CEBD37C04E04FF0080C01E04FEAD37C61
:105920000CEB4C0526FA05F606F00706B6F1040C5A
:1059300006D20EEB860CBDE870404CF0010C6047BF
:10594000DFE80CF0090B02024FF00041A1F5002145
:105950004FF0000070BD19461046012851EB0104BC
:1059600018BFD4F5001484BF002001F0004170BDC1
:105970000808A0F500114FEA3101704710B591EA0F
:10598000030F81F000413FF579AC83F0004300F054
:1059900009B8000010B591EA030F48BF83F0004337
:1059A0003FF56CAC841A71EB030C07D28CF0004C01
:1059B000121943EB0C03001B61EB0C014FEA11546D
:1059C000A4EB135CDFF8A4E11EEA430F18BF9EEAC4
:1059D000445F00F0B48021EA045123EA6E0352428E
:1059E000C3EB6E0338BF5B1EDCF1200E25D322FA19
:1059F0000CFE10EB0E0043FA0CFE41EB0E01CCF155
:105A0000200E03FA0EFE10EB0E00CCF1200E51F129
:105A1000000129D401EB045112FA0EF2BDE8104046
:105A200058BF7047401C1CBFB2F1004F70470028A0
:105A30000CBF491C20F00100704712EB020E43EB33
:105A4000030218BF4FF0010E4EEA4202ACF1200CE7
:105A5000DCF11E0E56D943FA0CFE10EB0E00CCF111
:105A60001E0E51F1FF31D5D50EF1010E12FA0EFEC8
:105A7000404141EB010101EB445C5FEA5C5C10D901
:105A800001EB045110EBDE7038BFBEF1004FBDE8F2
:105A9000104018BF704700280CBF491C20F00100BF
:105AA000704734D24FEAD42C24F4006411F500116D
:105AB0001BD0B1FA81F20B3AA41AA41ED2F1200332
:105AC000914030FA03F31943904001EBCC7101EBA4
:105AD0000451002CBDE81040A8BF704701F1C0413F
