:020000040800F2
:10000000400A0020810200086527000841270008F7
:1000100061270008490A0008252F00080000000099
:10002000000000000000000000000000C9290008D6
:100030004D0A00080000000059290008CD290008D9
:100040009B0200089B0200089B0200089B0200081C
:100050009B0200089B0200089B0200089B0200080C
:100060009B0200089B0200089B0200089B020008FC
:100070009B0200089B0200089B0200089B020008EC
:100080009B0200089B0200089B0200089B020008DC
:100090009B0200089B0200089B0200089B020008CC
:1000A0009B020008A92A00089B0200089B02000886
:1000B0009B0200089B0200089B0200089B020008AC
:1000C0009B0200089B0200089B0200089B0200089C
:1000D0009B0200089B020008012E00081D2E00084C
:1000E0009B0200089B0200089B0200089B0200087C
:1000F0009B0200089B0200089B0200089B0200086C
:100100009B0200089B0200089B0200089B0200085B
:100110009B0200089B0200089B0200089B0200084B
:100120009B0200089B0200089B0200089B0200083B
:100130009B02000800000000000000009B02000875
:100140009B0200089B0200089B0200089B0200081B
:100150009B0200089B0200089B0200089B0200080B
:100160009B0200089B0200089B0200089B020008FB
:100170009B0200089B0200089B0200080000000090
:10018000000000009B0200080000000000000000CA
:100190009B02000800000000000000009B02000815
:1001A0000000000000000000000000009B020008AA
:1001B0009B0200089B0200089B0200089B020008AB
:1001C0009B02000800F002F800F04AF80AA090E84C
:1001D000000C82448344AAF10107DA4501D100F002
:1001E0003FF8AFF2090EBAE80F0013F0010F18BF85
:1001F000FB1A43F001031847B4300000D43000006C
:10020000103A24BF78C878C1FAD8520724BF30C842
:1002100030C144BF04680C60704700000023002414
:1002200000250026103A28BF78C1FBD8520728BF06
:1002300030C148BF0B607047642900F0B9800020CE
:1002400070471FB503F012F800F034FB04000020E3
:10025000002102F0F5FF401C60601FBD10B510BD0D
:1002600000F0ADFB1146FFF7ECFF02F05DFE00F081
:10027000D9FB03B4FFF7F2FF03BC00F0DDFB000085
:100280000948804709480047FEE7FEE7FEE7FEE72A
:10029000FEE7FEE7FEE7FEE7FEE7FEE70448054966
:1002A000054A064B70470000952A0008C501000862
:1002B00040040020400A00204006002040060020A4
:1002C00053EA020C00F069802DE9F04B4FF0000674
:1002D000002B1FBFB3FA83F503FA05F424FA05F6E1
:1002E0005E4012BF1643B2FA82F502FA05F4C5F178
:1002F00020051EBF22FA05FC44EA0C04203556EA0C
:10030000044C4FEA144418BF641C4FF000084FF02F
:100310000009904271EB030C39D3002919BFB1FADF
:1003200081F701FA07F6B0FA80F700FA07F6C7F18D
:1003300020071EBF20FA07FC46EA0C062037B6FB52
:10034000F4FCA7EB0507103F07F01F0BCBF12006CD
:100350002CFA06F60CFA0BFB44BFB3460026202FFE
:10036000A4BF5E464FF0000B5BEA060C08BF4FF0DF
:10037000010B19EB0B0948EB0608ABFB027C06FBF3
:1003800002CC0BFB03CCC01B71EB0C01C1E70B468D
:10039000024641464846BDE8F08B13B5084318BFF6
:1003A0004FF0FF300146AFF30080BDE81C407047BE
:1003B0002DE9F0410646002410687529314616A53E
:1003C00010D0AFF30080002802DA404213A507E006
:1003D00031688A0701D512A502E0490704D511A5A5
:1003E000012401E0AFF3008000210A2206F1240776
:1003F00009E0B0FBF2FCB0FBF2F302FB1C00303072
:1004000078541846491C0028F3D123462A46304622
:10041000BDE8F04100F02EB9000000002D00000002
:100420002B0000002000000070B5064600F01EF909
:100430000468054630460A22002100F074F92C6059
:1004400070BD10B5431C02E010F8011B71B18107AB
:10045000FAD14FF0013202C88C1A8C4314EAC2114F
:10046000F9D0C01A0A0603D0C01E10BDC01A10BDB4
:100470000A0401D0801E10BD0902FCD0401E10BD30
:1004800040EA010370B59B072ED14FF00136042AD4
:100490002AD308C810C99D1B9D43121F15EAC61513
:1004A00017D0D8B2E1B2401A50EA056110D198B223
:1004B000A1B2401A50EA05410AD123F07F4024F04E
:1004C0007F41401A50EA052102D1180EA0EB1460BA
:1004D00070BDA342DBD018BA21BA884201D90120ED
:1004E00070BD4FF0FF3070BD0AB9002070BD10F82C
:1004F000013B11F8014B63B1A3420AD1521E08D04F
:1005000010F8013B11F8014B1BB1A34201D1521E5F
:10051000EDD1181B70BD431A28BF9A4240F23B81AF
:1005200010441144032A40F2268010F0030F1EBF2E
:1005300011F8013D521E00F8013D10F0030F7FF449
:10054000F6AF11F0030300F07E81083AC0F00B8093
:1005500051F8043D083A51F804CD40F8043D40F804
:1005600004CDFFF7F3BF121D5CBF51F8043D40F806
:10057000043DAFF30080D20724BF11F8013D11F80C
:1005800001CD48BF11F8012C24BF00F8013D00F84F
:1005900001CD48BF00F8012C70474FF0000200B5B4
:1005A000134694469646203922BFA0E80C50A0E896
:1005B0000C50B1F12001BFF4F7AF090728BFA0E844
:1005C0000C5048BF0CC05DF804EB890028BF40F810
:1005D000042B08BF704748BF20F8022B11F0804F52
:1005E00018BF00F8012B704730B44FF0013C50F8B1
:1005F000042B51F8043BCCFA52F4D51A20D1FCB9A3
:1006000050F8042B51F8043BCCFA52F4D51A17D108
:10061000B4B950F8042B51F8043BCCFA52F4D51A73
:100620000ED16CB950F8042B51F8043BCCFA52F4BB
:10063000D51A05D1002CDAD030BC4FF0000070473D
:1006400029BAB1FA81F111F01801D1F120008440EA
:10065000F2D1CA40CB4012F0FF0213F0FF0330BCCE
:10066000D01A7047704770477047000000487047C5
:10067000100000202DE9F0470D46994692460446A9
:1006800000F124080168880604D5E06921F0100112
:10069000216000E00120A84201DD471B00E00027A7
:1006A000A1697A1902EB0900081AA0612078C00636
:1006B00002D42046AFF30080002608E0D4E90121EF
:1006C0001AF806009047206A401C761C20624E45AE
:1006D000F4DB2078C0060AD52046AFF3008006E0A0
:1006E000D4E9012130209047206A401C2062381E46
:1006F000A7F10107F4DC07E0D4E9012118F80500AF
:100700009047206A401C2062281EA5F10105F3DCF9
:100710002046AFF300802078000602D50220BDE815
:10072000F0870120FBE72DE9F04791460F46804610
:100730000446002614F8015B2DB100F0B3F8006800
:10074000405DC007F6D12B2D02D02D2D18D0641E90
:100750004A463946204600F0B1F827B13968A1422F
:1007600001D1C7F800804FF0020471050BD540425B
:10077000002803DDFFF77AFF0460A007BDE8F087DB
:1007800046F48066E4E70028F8DAFFF76FFF0460BC
:100790006FF00040F2E7032A40F2308010F0030CC3
:1007A00000F0158011F8013BBCF1020F624498BFC4
:1007B00011F801CB00F8013B38BF11F8013BA2F161
:1007C000040298BF00F801CB38BF00F8013B11F0DC
:1007D000030300F0C280083AC0F0088051F8043BDF
:1007E000083A51F804CBA0E80810F5E7121D5CBFE9
:1007F00051F8043B40F8043BAFF30080D20724BF1C
:1008000011F8013B11F801CB48BF11F8012B24BFAF
:1008100000F8013B00F801CB48BF00F8012B7047FE
:10082000431A28BF9A4240F298801044114410F0B5
:10083000030F1EBF11F8013D521E00F8013D10F0DC
:10084000030F7FF4F6AF103AC0F00A8010B531E91B
:10085000185020E91850103ABFF4F9AFBDE8104025
:10086000530724BF31E9081020E9081044BF51F8AC
:10087000043D40F8043D12F0030F08BF7047D20753
:1008800028BF31F8023D48BF11F8012C28BF20F8DD
:10089000023D48BF00F8012C704700000048704737
:1008A0001000002010B500F005F8001D10BD00BFBD
:1008B0009129000000487047300000202DE9F05FCA
:1008C000824615468B4600270AF10104B946007896
:1008D000302801D09DB113E014F8010B01277828CE
:1008E00003D0582801D045B10AE00DB1102D07D131
:1008F000002714F8010B102502E0082500E00A2566
:100900000026B0460EE005FB080005FB06F10127B6
:100910001FFA80F801EB1046B6F5803F00D3B946C8
:1009200014F8010B294600F06FF80028EBDABBF150
:10093000000F05D00FB1641E00E05446CBF8004014
:10094000B9F1000F06D0FFF791FE02210160C81E29
:10095000BDE8F09F48EA0640FAE710B5203AC0F03B
:100960000B80B1E81850A0E81850B1E81850A0E882
:100970001850203ABFF4F5AF5FEA027C24BFB1E81B
:100980001850A0E8185044BF18C918C0BDE810405E
:100990005FEA827C24BF51F8043B40F8043B08BF67
:1009A0007047D20728BF31F8023B48BF11F8012B2E
:1009B00028BF20F8023B48BF00F8012B704775465E
:1009C000FFF76CFFAE4605006946534620F007006E
:1009D000854618B020B5FFF761FCBDE820404FF018
:1009E00000064FF000074FF000084FF0000BAC4638
:1009F000ACE8C009ACE8C009ACE8C009ACE8C00983
:100A000021F007018D4670473A2800D2303820F097
:100A10002002412A01D3A2F13700884201D34FF0CE
:100A2000FF30704710B50446AFF300802046BDE8A4
:100A30001040FFF71EBC000001491820ABBEFEE7C6
:100A40002600020070470000FEE70000704700002B
:100A500070B581B00022009290F83C20012A03D1A9
:100A60000221084601B070BD0E6801220A2E80F8EE
:100A70003C2009D3B2B25200D0F800E012FA86F25C
:100A80001E3A0EF10C0305E0D0F800E006EB46023A
:100A90000EF110034FF0070C1D680CFA02F4A54389
:100AA0001D608D681C6805FA02F222431A604968CD
:100AB00006290FD801EB81014A1F71461F2351F807
:100AC000345F934025EA03030B60B3B203FA02F2EA
:100AD00014E000BF01EB81030C29B2B204D87146C7
:100AE00051F8304F233B03E0714651F82C4F413B06
:100AF0001F259D4024EA05059A400D600B6842F2CF
:100B0000043CC4F2010C1A43ACF541739E450A60E3
:100B100006D0002180F83C10084601B070BD00BF2F
:100B20001221112EC1F2000118BF8E423AD1DCF819
:100B300000208E4222F48002CCF80020DCF8002055
:100B400042F40002CCF80020E3D140F20801C2F2E6
:100B5000000109684DF68362C4F21B32A1FB021248
:100B6000910C01EB81014900009100990029D0D03E
:100B700000990139009100990029CAD000990139E2
:100B8000009100990029C4D0009901390091009981
:100B90000029BED000990139009100990029E7D1C0
:100BA000B7E700BF122EB4D1DCF8001021F4000129
:100BB000CCF80010DCF8001041F48001CCF80010F3
:100BC000A7E70000002804BF0120704710B50446C5
:100BD000006C00283ED0206CC00645D4206C41F249
:100BE00002118843023042F204312064C4F2010150
:100BF000086820F4403008600A6894E809101A4335
:100C0000D4F810E00A604168012321F4807141604A
:100C10004168C0F6007341EA0E214160416821F04D
:100C200040714160416841EA0C014160816821F4F2
:100C300000618160E168826811438160A16A826815
:100C4000994222F070628260826813D122F0405192
:100C500019E000BF204600F065F80020606484F8C9
:100C60003C00206CC006B9D50120002184F83C105E
:100C700010BD00BF11438160816821F04051816047
:100C8000E16A826811438160816821F0020181601C
:100C90008168227E94F8203041EA420181604168F7
:100CA00083B141F40061416041684EF2000221F4D9
:100CB00060414160616ACFF6FF72436802EB4131E7
:100CC000194301E021F400614160C16A40F2000C67
:100CD00021F47001C162E2696169CFF6F07CC36AF8
:100CE0000CEB02521A43C262826822F400728260E4
:100CF00094F83020836843EA42228260826822F4BA
:100D000080628260826842EA8121816000206064A2
:100D1000216C012262F301012164002184F83C105E
:100D200010BD000080B586B042F200010068C4F238
:100D30000101002288420592049201D006B080BDD4
:100D400043F630000092C4F20200436943F480731A
:100D50004361436903F480730093009B009203682E
:100D600043F001030360006800F001000090009868
:100D70000320CDE9010001F5604001A9039200F0D4
:100D80005DF806B080BD000070B5866D044600F0C9
:100D900037F994F83510022928D105462068216CCE
:100DA000026822F016020260426922F0800242616B
:100DB00009B9A16C19B1016821F00801016001684D
:100DC00021F00101016000BF20680068C00715D054
:100DD00000F016F9401B0628F6D32020606503209A
:100DE00084F83500002184F8341070BD80206065DF
:100DF0000120002184F8341070BD00BFE06D3F2158
:100E000001FA00F0B060012084F8350000200021D4
:100E100084F8341070BD000090F83510022909D113
:100E2000052180F835100068016821F0010101609A
:100E30000020704780214165012070472DE9F04F67
:100E400082B000F13E4241F6000502F1FF77C4F2A4
:100E50000205072243F6004E4FEAB726A84208BF14
:100E60000622C4F2010E062E38BF4FEAB722012532
:100E7000002600274FF00008009208E008F1010862
:100E80000437B8F1100F06F1020600F0A7800C68D5
:100E900005FA08F914EA090FF0D0D1F804B00322DA
:100EA0000BF0030CACF10104B240012C6FEA020A12
:100EB00010D88268CC6802EA0A02B44022438260F9
:100EC0004268CBF3001422EA090204FA08F4224330
:100ED000426005E0BCF1030F02D14FF0030C20E0AB
:100EE000C2688C6802EA0A02B4402243BCF1020FD5
:100EF000C26016D16FF0030202EA58020244D2F82F
:100F000020C007F01C050F230C69AB402CEA03033B
:100F100004FA05F52B431362D1F804B001250BF058
:100F2000030C02680CFA06F302EA0A021A431BF4E5
:100F3000403F0260A2D0002243F644030192C4F273
:100F400002031A684FF6084C42F480421A601A688D
:100F5000CFF6FF7C02F480420192019A28F003024E
:100F6000724452F80C3007F00C050F24AC40A34338
:100F7000009C04FA05F52B4342F80C30DEF80820FB
:100F80004B6842EA090543F60C4CDC0258BF22EAE2
:100F90000905CEF80850C4F2010CDCF800209C02D0
:100FA00042EA090558BF22EA0905CCF80050DEF8EC
:100FB00004209C0342EA090558BF22EA0905CEF83D
:100FC0000450DEF80020DB0342EA090558BF22EA9C
:100FD0000905CEF80050012550E700BF02B0BDE87A
:100FE000F08F0000426902EA0103914341EA0341A4
:100FF00081617047002A08BF0904816170470000C1
:1010000040F23C40C2F200000068704740F200002D
:1010100040F23C41C2F20000C2F2000100780A68CE
:10102000104408607047000080B543F60040C4F2E9
:101030000200016841F400710160016841F48061BF
:101040000160016841F480710160032000F08AF8BA
:10105000002000F005F800F027F8002080BD000017
:1010600070B540F20006C2F2000640F20801327884
:10107000C2F200014FF47A730968B3FBF2F204463E
:10108000B1FBF2F1084600F0BBFB0F2C4FF001055D
:1010900008D838B94FF0FF3021460022002500F073
:1010A00035F87460284670BD82B0002043F64001D8
:1010B0000190C4F202014A6842F480424A604A68E0
:1010C00002F480420192019A0090086840F080503A
:1010D0000860086800F0805000900098072002B077
:1010E00000F040B8002848BF7047C1B200F01F00B0
:1010F000012202FA00F04EF20012CEF2000242EAA1
:10110000D10121F0030108607047000010B54EF6D0
:101110000C5CCEF2000CDCF80030C3F3022E8EF033
:101120000704042C28BF0424BEF103034FF0FF3E44
:101130000EFA04F438BF0023A14399400EFA03F3DA
:101140009A43114300F00F0200F160430901043A91
:1011500003F564436244002848BF02F10C03197090
:1011600010BD00004EF60C51CEF200010A684FF699
:10117000FF031A4060F30A2242F0806040F0FD70E5
:101180000860704770B582B00020019043F64000BF
:10119000C4F202000168402641F0805101600068FD
:1011A000C4F20E2600F080500190019847F2040529
:1011B0000120C4F200053060FFF722FF044600BFA3
:1011C0002868C00306D4FFF71BFF001BB0F57A7F29
:1011D000F6D90EE001207060FFF712FF044600BF51
:1011E0002868800308D4FFF70BFF001BB0F57A7F57
:1011F000F6D9032002B070BD002002B070BD00001F
:101200002DE9F041002800F08B8043F60808C4F275
:1012100002080446D8F8F8030D4600F00F00884293
:1012200007D288F8F853D8F8F80300F00F00A84266
:1012300076D12068810717D5410705D5D8F8001069
:1012400041F4E051C8F80010010705D5D8F80010A6
:1012500041F46041C8F80010D8F80010A26821F0ED
:10126000F0011143C8F80010C0073FD1D8F8F803C7
:1012700000F00F00A84207D988F8F853D8F8F8030F
:1012800000F00F00A8424BD12068410707D5D8F8DD
:101290000010E26821F4E0511143C8F80010000783
:1012A00008D5D8F80000216920F4604040EAC10068
:1012B000C8F8000000F07CF8D8F8001043F286224D
:1012C000C1F30311C0F60002515C40F2080220FA9B
:1012D00001F140F20400C2F200000068C2F2000214
:1012E0001160FFF7BDFE0020BDE8F0816068811E3F
:1012F000022907D258F8081C89015CBF0120BDE80B
:10130000F08111E0012807D158F8081C89035CBF5F
:101310000120BDE8F08107E058F8081C890703D4D4
:101320000120BDE8F08100BFD8F8001021F00301D2
:101330000843C8F80000FFF763FE064641F288370D
:10134000D8F80000616800F00C00B0EB810F8DD080
:10135000FFF756FE801BB842F2D90320BDE8F081AA
:1013600040F2080043F60801C2F20000C4F2020194
:101370000068096843F29622C1F38221C0F6000298
:10138000515CC8407047000040F2080043F6080175
:10139000C2F20000C4F202010068096843F296221A
:1013A000C1F34231C0F60002515CC84070470000F2
:1013B00010B543F60404C4F202046068C0F381016E
:1013C00042F20040C0F2F400DFE801F044020818E5
:1013D00041F20020C0F27A0010BD00BF216801F088
:1013E0003F02216823684902C3F3881116D4A1FB88
:1013F00000010023FEF764FF17E000BF216801F041
:101400003F02216823684902C3F3881116D4A1FB67
:1014100000010023FEF754FF17E000BF41F2002057
:10142000C0F27A004843B0FBF2F021680222C1F317
:10143000014102EB4101B0FBF1F010BD41F200208F
:10144000C0F27A004843B0FBF2F02168C1F30271A8
:10145000B0FBF1F010BD00002DE9F04182B0002892
:1014600000F096800446007843F60006C007C4F2F8
:1014700002062BD0B06800F00C00042820D0B06821
:1014800000F00C00082802D17068400218D4B0683F
:1014900000F00C000C2802D17068400210D4606883
:1014A000B0F5803F07D0B0F5A02F40F03B81306809
:1014B00040F480203060306840F4803030603BE1A0
:1014C0003068800302D56068002861D020788007EA
:1014D00022D5B06810F00C0F11D0B06800F00C00ED
:1014E000082802D17068400209D5B06800F00C00ED
:1014F0000C2840F09F807068400200F19B803068AB
:10150000800702D5E068012842D13068216920F0C7
:10151000F80040EAC1003060207800073CD4207811
:10152000400751D4A56985B3B06800F00C000828C5
:1015300040F0A880012D2BD07068E16900F4800292
:101540008A4225D1216A00F03F028A4220D147F623
:10155000C071626A0140B1EB821F19D1A16A4FF6D6
:10156000FF73C903994300F44032A1F580318A42E8
:101570000ED1E16A00F07062B2EB016F08D1216B0D
:1015800000F0E040B0EB017F02D1002034E100BF69
:10159000012002B0BDE8F0816069002840F200003F
:1015A000C4F247205ED00121C0F8801EFFF728FD5D
:1015B000054600BF706F8007B1D4FFF721FD401BC7
:1015C0000228F7D9C5E000BF306C10F080580AD16E
:1015D00000200190306C40F080503064306C00F09E
:1015E00080500190019847F20007C4F20007386864
:1015F000C00511D4386840F480703860FFF700FDF2
:10160000054600BF3868C00506D4FFF7F9FC401B4B
:101610000228F7D99DE000BFA068012805D0052861
:1016200052D1306F40F004003067306F40F001005D
:10163000306753E0E068002860D00020C4F2472003
:1016400001210160FFF7DCFC054600BF3068800720
:101650003FF55BAFFFF7D4FC401B02284FF00300BF
:10166000F4D9C9E00021C0F8801EFFF7C9FC054687
:10167000706F80077FF553AFFFF7C2FC401B022855
:10168000F6D966E00027C4F2472700203866FFF746
:10169000B7FC022D05460BD1306880015ED5FFF7FF
:1016A000AFFC401B02284FF00300F5D9A4E000BFB7
:1016B000306880017FF569AFFFF7A2FC401B02286C
:1016C0004FF00300F4D997E0316F002821F00101B9
:1016D0003167316F21F00401316763D0FFF790FC6F
:1016E000054641F2883700BF306F80076CD4FFF7A2
:1016F00087FC401BB842F7D92BE000BF0020C4F2A2
:10170000472000210160FFF77BFC05463068800719
:101710007FF502AFFFF774FC401B02284FF0030077
:10172000F4D969E03168002821F4803131603168F2
:1017300021F48021316051D0FFF762FC054600BFE3
:10174000306880033FF5C2AEFFF75AFC401B6428A7
:10175000F6D9032002B0BDE8F08100BF04F11C05FA
:101760002FCD246B084340EA8210D9034FF6FF7255
:101770009143A1F5803140EA0560084340EA0470D6
:10178000706001203866FFF73BFC0446306880013A
:101790003FF5FBAEFFF734FC001B02284FF00300BF
:1017A000F4D929E0FFF72CFC054641F2883700BF49
:1017B000306F800708D5FFF723FC401BB8424FF07D
:1017C0000300F5D918E000BFB8F1000F7FF4AAAE0E
:1017D000306C20F080503064A4E600BFFFF710FCAE
:1017E0000546306880037FF571AEFFF709FC401BAA
:1017F00064284FF00300F4D902B0BDE8F081000086
:10180000411E0020B0EB116F1CBF012070474EF24B
:101810001002CEF2000251604EF62351CEF20001CA
:10182000F0230B7007219060116070477047000033
:1018300070470000B0B590F83C20012A04BF022098
:10184000B0BD01F108053CCDD1E900CE23F47C53B5
:1018500022F470521A432EF4F0431A432CF4E0435E
:101860001A4324F4C0431A432A43C96922F480422C
:10187000036811435964002180F83C100846B0BD4C
:1018800010B590F83C20012A4FF0020251D080F8A8
:101890003D200268D2F804E0D2F808C00C682EF0AF
:1018A0007003234341F2FF74C4F20004A242536068
:1018B0000EDC40F2FF73C4F200039A4216DCB2F170
:1018C000804F2BD040F20043C4F2000324E000BF5D
:1018D00040F2FF33C4F201039A4213DC41F60003E5
:1018E000C4F200039A4219D0002313E040F600032B
:1018F000C4F200039A4211D040F60043C4F2000340
:101900000AE000BF44F20003C4F201039A4205D08A
:1019100040F20043C4F201039A4204D149682CF01A
:101920008003194391600121002280F83D1080F866
:101930003C20104610BD0000002804BF0120704765
:1019400010B5044690F83D0028B9002084F83C000A
:10195000204600F01FF8022084F83D002068211D79
:1019600001F0B2F8012084F8460084F83E0084F8C3
:101970003F0084F8400084F8410084F8420084F875
:10198000430084F8440084F8450084F83D000020BA
:1019900010BD000080B582B0006844F20041C4F27E
:1019A000010188421CBF02B080BD0020019043F6B7
:1019B0004400C4F202000168002241F400310160D9
:1019C0000068002100F40030019001981920FFF711
:1019D0009DFB192002B0BDE88040FFF783BB0000EB
:1019E00090F83D1001291CBF01207047022180F8AA
:1019F0003D10006841F2FF72C168C4F200029042DB
:101A000041F00101C1600DDC40F2FF71C4F2000140
:101A1000884215DCB0F1804F2AD040F20041C4F278
:101A2000000123E040F2FF31C4F20101884213DCDF
:101A300041F60001C4F20001884219D0002113E0F0
:101A400040F60001C4F20001884211D040F6004186
:101A5000C4F200010AE000BF44F20001C4F2010137
:101A6000884205D040F20041C4F20101884206D10B
:101A7000816801F00701062904BF00207047016852
:101A800041F0010101600020704700007047000034
:101A900010B5016804460869800744BFC8685FEA5A
:101AA000807039D40869400744BFC8685FEA407055
:101AB0003ED40869000744BFC8685FEA007045D497
:101AC0000869C00644BFC8685FEAC0604AD40869B4
:101AD000C0071CBFC8685FEAC07051D10869000622
:101AE00044BFC8685FEA006052D40869400644BF3A
:101AF000C8685FEA406053D40869800646BFC8687A
:101B00005FEA806010BD6FF0200220460A61BDE8E8
:101B10001040FFF78DBE00BF6FF00200086101208A
:101B200020778869800743D02046FFF7AFFF45E064
:101B30006FF00400086102202077886910F4407F6C
:101B400040D02046FFF7A2FF42E000BF6FF0080040
:101B5000086104202077C86980073DD02046FFF740
:101B600095FF3FE06FF01000086108202077C869FA
:101B700010F4407F3AD02046FFF788FF3CE000BFDA
:101B80006FF001000861204600F056FA2168A5E7D1
:101B90006FF0800008612046FFF748FE2168A4E747
:101BA0006FF040000861204600F058FA2168A3E772
:101BB000204600F04FF8204600F0B2F921680020DE
:101BC00020776FE7204600F045F8204600F0A8F99E
:101BD0002168002020776CE7204600F03BF8204683
:101BE00000F09EF921680020207769E7204600F088
:101BF00031F8204600F094F921680020207766E74C
:101C000080B586B001680020C4F20100814201D095
:101C100006B080BD002143F630020191C4F20202F9
:101C2000136800F5803043F001031360126802F07E
:101C300001020192019A4FF4E06201920222CDE981
:101C4000022104910121059101A9FFF7F7F806B0DF
:101C500080BD0000704700002DE9F04390F83C3053
:101C6000012B04BF0220BDE8F0834FEAB202032A31
:101C700000F2FC80DFE802F0023E7EBE036840F224
:101C800000471A6A43F4806522F001021A621C6A56
:101C90001A46D3F804E052F818CF8E6824F00204F4
:101CA000C4F20107BD4244EA060405D1CE6824F01F
:101CB0000C0426F0040634430E68BD4207D1D1E976
:101CC00005572EF4407E45EA0E0545EA070E2CF036
:101CD00073073743C3F804E09F614F6809695F6386
:101CE0001C629F6947F008079F619F6927F00407FE
:101CF0009F61B1E0036840F200481A6A43F48065CE
:101D000022F010021A621C6A1A46D3F804C052F874
:101D100018EF8F6824F02004C4F20108454544EA16
:101D2000071407D1CF686FF0400624F0C00406EA1C
:101D300007163443D1F80090454506D1D1E9055640
:101D40002CF440672E4347EA860C2EF4E64747EA18
:101D50000927C3F804C09F614F6809699F631C622B
:101D60009F6947F400679F619F6927F480679F61BF
:101D700071E000BF036840F200481A6A43F48065CE
:101D800022F480721A621C6A1A46D3F804C052F810
:101D90001CEF8F6824F40074C4F20108454544EA3E
:101DA000072408D1CF6840F2FF463F0224F4406484
:101DB00027EA06063443D1F80090454506D1D1E91B
:101DC00005562CF440572E4347EA061C2EF07307A5
:101DD00047EA0907C3F804C0DF614F680969DF6398
:101DE0001C62DF6947F00807DF61DF6927F004073D
:101DF000DF6131E0036840F200451A6A43F480670E
:101E000022F480521A621A46D3F820C05C6852F855
:101E10001CEFD1F800808E68C4F20105AF4204D1F6
:101E20004D6924F4804444EA85142CF4005747EAB1
:101E300006372EF4E64646EA08265C60DE614E6808
:101E400009691E641F62DF6947F40067DF61DF69AB
:101E500027F48067DF6109021368194311600021CC
:101E6000002280F83C200846BDE8F08301210022D2
:101E700080F83C200846BDE8F0830000002804BF3D
:101E80000120704710B5044690F83D0028B90020A5
:101E900084F83C00204600F01FF8022084F83D0042
:101EA0002068211D00F010FE012084F8460084F80F
:101EB0003E0084F83F0084F8400084F8410084F834
:101EC000420084F8430084F8440084F8450084F814
:101ED0003D00002010BD000080B582B000680021E8
:101EE000C4F2010188421CBF02B080BD00200190F5
:101EF00043F64400C4F202000168002241F00101EF
:101F000001600068002100F0010001900198192093
:101F1000FFF7FCF8192002B0BDE88040FFF7E2B8F7
:101F20007047000041B1082910D0042914BF00F106
:101F3000410200F13F020BE090F83E20012A1CBF55
:101F400001207047022280F83E2013E000F1400299
:101F50001278012A1CBF012070470222082907D0ED
:101F6000042914BF80F8412080F83F2002E000BF20
:101F700080F84020006801F01F010122036A02FA84
:101F800001F123EA01020262026A114341F2FF7287
:101F9000C4F20002904201620CDC40F2FF71C4F214
:101FA0000001884214DCB0F1804F37D040F200418C
:101FB00016E000BF40F2FF31C4F20101884215DC97
:101FC00041F60001C4F20001884227D0002115E04B
:101FD00040F60001C4F2000188421FD040F60041E3
:101FE000C4F20001884219D01FE000BF44F2000192
:101FF000C4F20101884211D040F20041C4F2010153
:10200000884212D1416C40F2004340F48062C4F235
:10201000010341F400419A42416406D1816801F014
:102020000701062904BF00207047016841F0010143
:10203000016000207047000040F29011C2F20001E0
:10204000884218BF704780B50020C4F202002021EA
:10205000FEF7C8FFBDE8804000F086BB7047000077
:102060007047000070470000B0B582B004460068B9
:102070000168C368426901F02F05202D03F0200597
:1020800006D12DB1204602B0BDE8B04000F0C0BD81
:102090005FEA017C1EBF02F0010E03F4907212EBA6
:1020A0000E0253D1226B012A05D111F0100218BF84
:1020B00013F0100236D10A0622D513F080021FD089
:1020C00094F83D1021293FD1A168B1F5805F03D17B
:1020D0002169002900F07282216A4A1C2262097873
:1020E0004160E18C01390A04E1842DD1C16821F0FD
:1020F0008001C160C16841F04001C16002B0B0BD63
:10210000490621D513F040011ED0C16821F04001DD
:10211000C1602021204684F83D1002B0BDE8B040E7
:1021200000F00CBB0021019101680191416801910F
:1021300001994069400613D4A08DE18DE28D002AFB
:1021400018BF884240F0BE8102B0B0BDCA0718BFB8
:1021500013F4807240F0BA804A0700F1BD80C2E0FB
:10216000A16B0868426893B2002BEDD0A08D83422A
:10217000EAD2E285C969B1F5807F00F09D802068D0
:1021800050E8030F216820F4807041E80302DAB1BF
:10219000206850E8030F216820F4807041E80302B2
:1021A00092B1206850E8030F216820F4807041E864
:1021B00003024AB1206850E8030F216820F48070C0
:1021C00041E80302002ADAD1206850E8050F2168AF
:1021D00020F0010041E80502DAB1206850E8050F5F
:1021E000216820F0010041E8050292B1206850E822
:1021F000050F216820F0010041E805024AB120687E
:1022000050E8050F216820F0010041E80502002A8E
:10221000DAD1206850E8050F216820F0400041E83D
:102220000502DAB1206850E8050F216820F040006F
:1022300041E8050292B1206850E8050F216820F0BE
:10224000400041E805024AB1206850E8050F2168C6
:1022500020F0400041E80502002ADAD1202084F86D
:102260003E0000202063206850E8030F216820F022
:10227000100041E80302DAB1206850E8030F21683A
:1022800020F0100041E8030292B1206850E8030FEB
:10229000216820F0100041E803024AB1206850E8AC
:1022A000030F216820F0100041E80302002ADAD170
:1022B000A06BFEF769FDA08DE18D401A81B220462A
:1022C00002B0BDE8B040FFF7CBBE00BF226C42F0C9
:1022D000010222644A0706D5BEF1000F03D0226C2A
:1022E00042F0020222648A0706D5BEF1000F03D035
:1022F000226C42F004022264BCF1000F09D545EAC9
:102300000E02B2FA82F2520903D1226C42F00802A4
:102310002264226C002A3FF417AF11F0200118BF8D
:10232000002D03D0204600F073FC20684069216C2A
:1023300000F0400001F00801401800F0B58000BF37
:10234000206850E8030F216820F4907041E80302F0
:10235000BAB3206850E8030F216820F4907041E878
:10236000030272B3206850E8030F216820F49070D4
:1023700041E803022AB3206850E8030F216820F4E3
:10238000907041E80302002ADAD11AE0206850E890
:10239000050F216820F0010041E80502DAB120684C
:1023A00050E8050F216820F0010041E8050292B1D4
:1023B000206850E8050F216820F0010041E805027F
:1023C0004AB1206850E8050F216820F0010041E87B
:1023D0000502002ADAD1206B012824D1206850E8B8
:1023E000030F216820F0100041E80302DAB12068F1
:1023F00050E8030F216820F0100041E8030292B179
:10240000206850E8030F216820F0100041E8030223
:102410004AB1206850E8030F216820F0100041E81D
:102420000302002ADAD1202084F83E000020206335
:102430002068406940063FD5206850E8050F2168B4
:1024400020F0400041E80502DAB1206850E8050FAD
:10245000216820F0400041E8050292B1206850E870
:10246000050F216820F0400041E805024AB12068CC
:1024700050E8050F216820F0400041E80502002ADD
:10248000DAD1A06BC0B142F60541C0F6000101658A
:10249000FEF7C2FC00283FF457AEA06B016D02B0FE
:1024A000BDE8B040084700BF2046FFF7DBFD002035
:1024B000206402B0B0BD00BF204602B0BDE8B0400D
:1024C000FFF7D0BD401A216851E8031F226821F4AC
:1024D000907142E80313DBB1216851E8031F2268C1
:1024E00021F4907142E8031393B1216851E8031F6E
:1024F000226821F4907142E803134BB1216851E83E
:10250000031F226821F4907142E80313002BDAD1F3
:10251000216851E8051F226821F0010142E80513F6
:10252000DBB1216851E8051F226821F0010142E872
:10253000051393B1216851E8051F226821F00101BC
:1025400042E805134BB1216851E8051F226821F0CC
:10255000010142E80513002BDAD1202184F83E1056
:1025600000212163216851E8031F226821F0100136
:1025700042E80313002B3FF4A1AE216851E8031F8A
:10258000226821F0100142E80313002B3FF496AEBD
:10259000216851E8031F226821F0100142E803136B
:1025A000002B3FF48BAE216851E8031F226821F015
:1025B000100142E80313002BD4D17FE6216A31F8E1
:1025C000022B6FF35F22426021628AE5002804BF7C
:1025D0000120704710B5044690F83D0028B900204E
:1025E00084F83C00204600F021F8242084F83D00C7
:1025F0002068C16821F40051C160204600F088FBCA
:102600002068016921F490410161416921F02A01AA
:102610004161C16841F40051C16000202021206463
:1026200084F83D1084F83E1010BD0000F0B587B06E
:10263000006844F60001C4F2000100248842CDE99C
:102640000544CDE9034402942AD044F20041C4F287
:10265000000188426DD1002043F630010190C4F2A0
:1026600002010A69262442F400320A610A6902F46E
:1026700000320192019A01900A6842F001020A6058
:10268000096801F00101019101990C2102910221D7
:10269000CDE90310032005900020C4F202003BE0C6
:1026A00043F630000194C4F202000169002741F4AE
:1026B000802101610169C4F2020701F480210191C6
:1026C000019901940168022541F00401016001684B
:1026D000032601F00401019101990194016841F080
:1026E00002010160006802A900F002000190019857
:1026F000202002900720069007F50060CDE90354E2
:102700000596FEF79BFB4FF48060CDE90205CDE90D
:10271000044607F5806027240721069102A9FEF7E9
:102720008DFB204600210022FEF7F0FC2046FEF73C
:10273000D9FC07B0F0BD00007047000070470000F2
:10274000FEE7000040F28400C2F200000021C0E970
:102750000011C0E90211C0E9041181617047000055
:10276000FEE70000FEE700002DE9F041B2B040F2C4
:102770007006C2F20006F46843F29E21C0F6000122
:1027800020460222FDF77CFE40F2A42740F2F40826
:10279000C2F20007C2F2000870B10020C7F8800042
:1027A000C7F88400A8F8000020468021FDF7F5FE58
:1027B00032B0BDE8F08100BFB8786D468DF80100F9
:1027C00030208DF800002846FDF72EFEA8F8000006
:1027D0002046FDF736FEE11C821E2046FDF79BFEDB
:1027E000F46843F2A621C0F6000120460422FDF75A
:1027F00047FE064648B143F2A121C0F6000120463B
:102800000422FDF73DFE0028C7D12046FDF719FE42
:10281000052807D3204410F8020C302802D10221E9
:10282000012001E003210020BB88BA7900286B5207
:1028300004BF02316A5443F23001ADF800109DF834
:102840000210002808BF3021002E8DF8021045D05C
:1028500043F2A121C0F6000120460422FDF710FE3C
:1028600000289AD12C256846C4F20105FDF7DCFD4D
:1028700040F2F802C2F200021060B8F800302E6890
:1028800040F2EC01C2F200010E604FF47A76704320
:10289000106040F20802C2F20002126855F8046C9F
:1028A000012B06F1010606FB00F0B2FBF0F02860F8
:1028B0003ED1A8682A6809685043B0FBF1F040F2A5
:1028C000F601C2F20001088080B2A860286840F2D8
:1028D000F001C2F2000108605FE700BF2C256846E6
:1028E000C4F20105FDF7A0FD40F2FC01C2F20001B7
:1028F0000880296880B2484348F21F51C5F2EB11A5
:10290000A0FB0101322000EB511080B2B8F800109A
:10291000B0F57A7F28BF4FF47A70012940F2F601B2
:10292000C2F20001088014BFE860A86035E700BF6C
:10293000E8682A6809685043B0FBF1F040F2F601FC
:10294000C2F20001088080B2E860286840F2F0011D
:10295000C2F20001086020E77047000040F27000FA
:10296000C2F200000021017040F21C21C2F20001FD
:10297000416040F2A80140F22C3240F2A42340F220
:10298000B43CC2F20001C2F20002C2F20003C2F281
:10299000000C09688260C360C0F810C0486940F04C
:1029A0000100486140F2D810C2F20000006842699C
:1029B00042F001024261CA6842F02002CA60C16866
:1029C00041F02001C160704770470000FEF71EBB58
:1029D00080B594B0002043F640010C90CDE90A0088
:1029E000CDE908000690CDE90400CDE90200019090
:1029F000C4F202010A6842F080520A60096801F0DC
:102A000080510191019947F200010190C4F2000147
:102A10000A6842F440420A600968012201F4404118
:102A2000019101990221CDE90D1008200F90B420E9
:102A30000A921022CDE9100107A807910B92CDE967
:102A40001211FEF709FD28B1EFF3108072B600BF36
:102A5000FEE700BFFEF796FB20B1EFF3108072B6E1
:102A6000FEE700BF0F200290022003900020049098
:102A70004FF4A05005904FF48050069002A8052115
:102A8000FEF7BEFB20B1EFF3108072B6FEE700BF89
:102A900014B080BD4EF68850CEF20000016841F4BB
:102AA000700101607047000080B540F24810C2F22A
:102AB0000000FEF7EDFF40F29010C2F20000BDE80A
:102AC0008040FEF7E5BF000010B540F6FF3E03680A
:102AD000C4F2000E40F2004C7045C4F2010C27DC39
:102AE000B0F1804F31D040F20042C4F20002904277
:102AF0002BD040F60002C4F20002904225D041F6ED
:102B0000FF72C4F20002904229DC70453CDCB0F157
:102B1000804F5FD040F20042C4F20002904259D090
:102B200040F60002C4F20002904253D056E000BFCB
:102B300040F60042C4F20002904206D0604504D044
:102B40000022C4F201029042D9D14A6823F07003F6
:102B5000134341F6FF72C4F200029042D5DD43F602
:102B6000FF72C4F20102904222DC42F20002C4F27F
:102B7000000290422ED00022C4F20102904229D0DD
:102B8000604527D02AE000BF40F60042C4F20002B0
:102B900090421FD041F60002C4F20002904219D0C8
:102BA00041F60042C4F20002904213D016E000BF8A
:102BB00044F20002C4F2010290420BD044F600023B
:102BC000C4F20102904205D044F20042C4F2010274
:102BD000904203D1CA6823F44073134323F0800268
:102BE0004B69D1F800E08C681A430260C46240F47B
:102BF0008062C0F828E0624504BF096901630121D1
:102C0000416110BD806B0021C185C184FFF72ABAE4
:102C100081B090F83E10222921D183680246B3F595
:102C2000805F09D152F8281F52F8183C002B63D05E
:102C300003685B680AE000BF52F8281F13B90369F4
:102C4000002BF5D003685B6803F07F030B701168FD
:102C500001311160C18D01390A04C18502D001B072
:102C6000704700BF0168CA6822F02002CA60CA68C3
:102C700022F48072CA604A6922F001024A6120216E
:102C800080F83E10016B01293ED10021016300BF95
:102C9000016851E8031F026821F0100142E80313A4
:102CA000DBB1016851E8031F026821F0100142E81E
:102CB000031393B1016851E8031F026821F010016A
:102CC00042E803134BB1016851E8031F026821F089
:102CD000100142E80313002BDAD101680A68D2061A
:102CE00006D5002200920A68009249680091009976
:102CF000818D01B0FFF7B4B9026852686FF35F22AB
:102D000021F8022B8162A5E701B0FFF715BD000095
:102D100010B504460068D4E902C22369016921F4B0
:102D2000405111430161626943EA0C01E3691143B7
:102D3000C268194349F20C639A431143C160416967
:102D4000A26921F4407141F20043114340F48062D2
:102D5000C4F201039A42416102D1FEF715FB01E082
:102D6000FEF7FEFAE16963681922B1F5004FA0FB96
:102D7000020123D15A00DB0FFDF7A2FA48F21F51DE
:102D8000C5F2EB11A0FB01235A094FF69C73C0F664
:102D9000FF7303F1805302FB0300322303EBC000F7
:102DA000A0FB01014FF4F87000EA111000EB0210D3
:102DB000C1F3421108442168886010BD9A009B0F3E
:102DC000FDF77EFA48F21F51C5F2EB11A0FB01237B
:102DD0005A094FF69C73C0F6FF7302FB03003223BF
:102DE00003EB0010A0FB0101F02000EA511000EB02
:102DF0000210C1F3431108442168886010BD00002F
:102E000010B540F2A804C2F20004204600F014F805
:102E10002046BDE81040FFF727B9000010B540F28A
:102E2000D814C2F20004204600F006F82046BDE89F
:102E30001040FFF719B9000002681368D2F80CC0FF
:102E400099061FD51CF020011CD01168516840F272
:102E5000A802C2F20002904236D040F2D812C2F26A
:102E6000000290423ED140F27000C2F20000C06801
:102E7000D0F88020D0F88430013202F07F029A42EC
:102E800030D031E019062DD51CF080012AD040F257
:102E9000A801C2F2000188422CD040F2D811C2F23F
:102EA0000001884218BF704740F2B430C2F20000FF
:102EB000D0F88020D0F884309A4225D10868C168C3
:102EC00021F08001C160704740F27000C2F2000042
:102ED0004068D0F88020D0F88430013202F07F02C0
:102EE0009A4201D1704700BFD0F88030C154C0F879
:102EF0008020704740F22C30C2F20000D0F88020D1
:102F0000D0F884309A42D9D0D0F88420825CD0F8AE
:102F10008430013303F07F03C0F88430086801680F
:102F200042607047FEE7000092B044F20048C4F2ED
:102F30000108FEF779F8FFF74BFD002743F6300054
:102F4000CDE904770997C4F20200016808F53C4412
:102F500041F0040101600168002201F004010991BF
:102F6000099909970168202641F0800101600168F4
:102F700001F08001099109990997016841F0010167
:102F80000160016801F0010109910999099701683F
:102F900041F0020101600068202100F00200099068
:102FA00009982046FEF726F84FF4005001904FF4A0
:102FB000041001ADCDE9020708F544402946FDF7AC
:102FC0003DFF0196012620462946CDE90267049778
:102FD000FDF734FF40F2A005C2F20005A8F58031EC
:102FE000284640F8081F4FF4E1310C22C0E90117D0
:102FF000C0E90377C0E90527C761FFF7E7FA28B101
:10300000EFF3108072B600BFFEE700BF40F2001081
:103010000123A8F51051C2F20000C0F60073049716
:103020004FF48032077680F82070C0E90A37C66115
:1030300080F8307080E88600C0E903774661FDF7CC
:10304000C1FD28B1EFF3108072B600BFFEE700BFEC
:1030500000260120CDE9020640F20010C2F2000075
:1030600001A90196FDF7F4FC20B1EFF3108072B6D0
:10307000FEE700BF40F29014C2F2000444F24F6039
:10308000C4E90080C4E9026020462661A661FEF71B
:1030900053FC28B1EFF3108072B600BFFEE700BF0B
:1030A00040F2D810A8F57C41C2F2000000260C23A3
:1030B0004FF4E13280E84600C0E90366C0E9053616
:1030C000C661FFF783FA28B1EFF3108072B600BF34
:1030D000FEE700BF44F24F60C4E90080C4E902602B
:1030E00020462661A661FEF727FC28B1EFF3108089
:1030F00072B600BFFEE700BF40F20800C2F2000057
:1031000000684EF22F318009C0F2BE01A0FB010120
:1031100040F248104FF0FF370022A8F58843C2F272
:10312000000007EBD12140F2E737CDE910220792EA
:10313000C0E90031C0E90227C0E904228261FEF73C
:103140009DFE28B1EFF3108072B600BFFEE700BF0E
:1031500040F24810C2F2000010A9FEF791FB28B11E
:10316000EFF3108072B600BFFEE700BF6020099049
:103170004FF4FA700A900020CDE90B00CDE90D0064
:103180000F9040F24810C2F2000009A90022FEF799
:1031900063FD28B1EFF3108072B600BFFEE700BFF9
:1031A00040F24810C2F2000009A90422FEF754FDC3
:1031B00020B1EFF3108072B6FEE700BF40F2481076
:1031C000C2F2000009A90822FEF746FD20B1EFF384
:1031D000108072B6FEE700BF4FF40050069040F238
:1031E00048100026C2F2000001A90596CDE9036649
:1031F000CDE901660896FEF71DFB18B1EFF31080CC
:1032000072B6FEE740F24814C2F200042046FEF710
:10321000F7FCFFF7A3FBFFF795FA0120C5E9006073
:1032200040F29010C2F20000FEF7DAFB20460021C7
:10323000FEF778FE20460421FEF774FEFEE700004C
:1032400010B500290AD00878002807D0054878442E
:10325000FDF7CAF9002801D0002010BD02487844CB
:1032600010BD00007E00000076000000F1EE100AA4
:103270004FF6FF71C0F2C03120EA010040F040700B
:10328000E1EE100A7047000000000000000001029B
:103290000304060708090000000001020304434874
:1032A000004672657100447574790000E0330008CF
:1032B000000000201000000000020008F0330008A9
:1032C00010000020300A00001C020008100100005D
:1032D00043000000F8FFFFFF0040404040404040F6
:1032E00040404141414141404040404040404040D9
:1032F000404040404040404040050202020202027D
:1033000002020202020202020220202020202020CB
:1033100020202002020202020202909090909090DF
:10332000101010101010101010101010101010109D
:103330001010101002020202020288888888888811
:1033400008080808080808080808080808080808FD
:103350000808080802020202400000000000000005
:10336000000000000000000000000000000000005D
:10337000000000000000000000000000000000004D
:10338000000000000000000000000000000000003D
:10339000000000000000000000000000000000002D
:1033A000000000000000000000000000000000001D
:1033B000000000000000000000000000000000000D
:1033C00000000000000000000000000000000000FD
:1033D00000000000000000000000000000000000ED
:1033E00001000000100000000024F40000000000B4
:04000005080001C529
:00000001FF
