:020000040800F2
:10000000800C00208502000869350008453500088D
:1000100065350008C10E0008513B000800000000D3
:10002000000000000000000000000000DD350008B6
:10003000E90F0008000000006D350008E1350008F8
:100040009F0200089F0200089F0200089F0200080C
:100050009F0200089F0200089F0200089F020008FC
:100060009F0200089F0200089F0200089F020008EC
:100070009F0200089F0200089F0200089F020008DC
:10008000DD0F00089F0200089F0200089F02000881
:100090009F0200089F0200089F0200089F020008BC
:1000A0009F020008BD3600089F0200089F0200085A
:1000B000DD3600089F0200089F0200089F0200082A
:1000C0009F0200089F0200089F0200089F0200088C
:1000D0009F0200089F0200082D3A0008493A0008D4
:1000E0009F0200089F0200089F0200089F0200086C
:1000F0009F0200089F0200089F0200089F0200085C
:100100009F0200089F0200089F0200089F0200084B
:100110009F0200089F020008E93600089F020008BD
:100120009F0200089F0200089F0200089F0200082B
:100130009F02000800000000000000009F0200086D
:100140009F0200089F0200089F0200089F0200080B
:100150009F0200089F0200089F0200089F020008FB
:100160009F0200089F0200089F0200089F020008EB
:100170009F0200089F0200089F0200080000000084
:10018000000000009F0200080000000000000000C6
:100190009F02000800000000000000009F0200080D
:1001A0000000000000000000000000009F020008A6
:1001B0009F0200089F0200089F0200089F0200089B
:1001C0009F02000800F002F800F04CF80AA090E846
:1001D000000C82448344AAF10107DA4501D100F002
:1001E00041F8AFF2090EBAE80F0013F0010F18BF83
:1001F000FB1A43F001031847F847000018480000B5
:10020000103A24BF78C878C1FAD8520724BF30C842
:1002100030C144BF04680C60704700000023002414
:1002200000250026103A28BF78C1FBD8520728BF06
:1002300030C148BF0B607047662904F0748364299D
:1002400000F0CC80002070471FB504F05FFB00F089
:1002500005FD04000020002104F042FBE0601FBD0A
:1002600010B510BD00F0F6FD1146FFF7EDFF03F0ED
:1002700049FD00F014FE03B4FFF7F2FF03BC00F0E9
:1002800017FE00000948804709480047FEE7FEE7DF
:10029000FEE7FEE7FEE7FEE7FEE7FEE7FEE7FEE736
:1002A00004480549054A064B70470000A936000876
:1002B000C501000880060020800C00208008002076
:1002C0008008002053EA020C00F069802DE9F04B11
:1002D0004FF00006002B1FBFB3FA83F503FA05F4B5
:1002E00024FA05F65E4012BF1643B2FA82F502FA0E
:1002F00005F4C5F120051EBF22FA05FC44EA0C04F2
:10030000203556EA044C4FEA144418BF641C4FF0E1
:1003100000084FF00009904271EB030C39D300291B
:1003200019BFB1FA81F701FA07F6B0FA80F700FABF
:1003300007F6C7F120071EBF20FA07FC46EA0C06A5
:100340002037B6FBF4FCA7EB0507103F07F01F0BA7
:10035000CBF120062CFA06F60CFA0BFB44BFB34691
:100360000026202FA4BF5E464FF0000B5BEA060C70
:1003700008BF4FF0010B19EB0B0948EB0608ABFB6C
:10038000027C06FB02CC0BFB03CCC01B71EB0C0107
:10039000C1E70B46024641464846BDE8F08B13B51F
:1003A000084318BF4FF0FF300146AFF30080BDE8AF
:1003B0001C4070470FB41CB5074B06AA7B44694626
:1003C0000090059800F02DFC0020694600F03CFCF0
:1003D0001CBC5DF814FB0000890800002DE9F04109
:1003E0000646002410687529314616A510D0AFF3D3
:1003F0000080002802DA404213A507E031688A072E
:1004000001D512A502E0490704D511A5012401E098
:10041000AFF3008000210A2206F1240709E0B0FBB7
:10042000F2FCB0FBF2F302FB1C00303078541846AB
:10043000491C0028F3D123462A463046BDE8F04146
:1004400000F083B9000000002D0000002B00000028
:10045000200000002DE9F05F894604464FF0000AB5
:10046000DFF824B1FB44C0F820A02046E1688847AB
:1004700000287DD0252806D0D4E901219047206AA4
:10048000401C2062F1E700255F462046E16888476E
:100490002028064607DB312E05D2B81910F8200CAB
:1004A00008B10543F1E7A80701D525F00405C4F814
:1004B0001CA00027C4F818A02A2E09D0304604F04A
:1004C00007FA38B304EB8708303EC8F8186019E023
:1004D00059F8041B204604EB87029161E1688847C4
:1004E000012F064618D1E069002820DA25F0200502
:1004F0001DE0D8F8180000EB800006EB4000303813
:10050000C8F818002046E1688847064604F0E0F97C
:100510000028EED1012F0AD02E2E08D12046E16806
:1005200088477F1C0646022F45F02005C4DBA069E2
:10053000002803DA404245F00105A061E80701D038
:1005400025F01005A6B1A6F14100192802D82036E1
:1005500045F400654A463146204625604D46FFF782
:100560006BFE60B1012807D0ED1D25F0070000E00B
:1005700007E000F1080978E705F1040975E730465E
:100580007AE7206ABDE8F09FC2440000401ECAB26C
:1005900010F8011F8A4202D00029F9D100207047CB
:1005A00010B5431C02E010F8011B71B18107FAD1AC
:1005B0004FF0013202C88C1A8C4314EAC211F9D0F0
:1005C000C01A0A0603D0C01E10BDC01A10BD0A040E
:1005D00001D0801E10BD0902FCD0401E10BD40EAB3
:1005E000010370B59B072ED14FF00136042A2AD3A0
:1005F00008C810C99D1B9D43121F15EAC61517D0C8
:10060000D8B2E1B2401A50EA056110D198B2A1B255
:10061000401A50EA05410AD123F07F4024F07F417F
:10062000401A50EA052102D1180EA0EB146070BDEB
:10063000A342DBD018BA21BA884201D9012070BD8B
:100640004FF0FF3070BD0AB9002070BD10F8013BBB
:1006500011F8014B63B1A3420AD1521E08D010F821
:10066000013B11F8014B1BB1A34201D1521EEDD148
:10067000181B70BD4FF0000200B513469446964615
:10068000203922BFA0E80C50A0E80C50B1F12001A5
:10069000BFF4F7AF090728BFA0E80C5048BF0CC053
:1006A0005DF804EB890028BF40F8042B08BF7047B1
:1006B00048BF20F8022B11F0804F18BF00F8012B23
:1006C000704700000000000030B44FF0013C50F8CB
:1006D000042B51F8043BCCFA52F4D51A20D1FCB9C2
:1006E00050F8042B51F8043BCCFA52F4D51A17D128
:1006F000B4B950F8042B51F8043BCCFA52F4D51A93
:100700000ED16CB950F8042B51F8043BCCFA52F4DA
:10071000D51A05D1002CDAD030BC4FF0000070475C
:1007200029BAB1FA81F111F01801D1F12000844009
:10073000F2D1CA40CB4012F0FF0213F0FF0330BCED
:10074000D01A70477047704770472DE9F0470D4643
:1007500099469246044600F124080168880604D5AB
:10076000E06921F01001216000E00120A84201DDD4
:10077000471B00E00027A1697A1902EB0900081A5B
:10078000A0612078C00602D42046AFF30080002686
:1007900008E0D4E901211AF806009047206A401CBD
:1007A000761C20624E45F4DB2078C0060AD5204630
:1007B000AFF3008006E0D4E9012130209047206AA1
:1007C000401C2062381EA7F10107F4DC07E0D4E9E1
:1007D000012118F805009047206A401C2062281E5D
:1007E000A5F10105F3DC2046AFF300802078000678
:1007F00002D50220BDE8F0870120FBE72DE9FF4F7D
:100800000C461E464FF0FF378BB0D2E90001DDF8F1
:1008100060800A908A46C1F30A5505B93D46002119
:1008200008464FF00000BAF1000F00F4400005DA6E
:1008300000EB80004FF4400101EA50004FEA90596C
:10084000B9F1010F00DDB9460A9850EA4A000ED00E
:1008500044F61050A5F2FF3545432F14B8F1000FB0
:100860001ED07542291E1EDDC9F100021CE0B8F140
:10087000010F4FF0000001D0302103E0F24305E00A
:100880002154401CB042FBDB3046002200212154A1
:100890000B99C1F80880C1E900200FB0BDE8F08FC6
:1008A000BD1B6D1CDEE74A4600DA694206A800F06F
:1008B0005FFA06AB93E8070003AB83E807005046F6
:1008C0000A9903F025FC8DE80700A0F500501F38B9
:1008D00000900398002D0ADD42F21F014A460844A9
:1008E000002303A90390684603F08EFE09E0A0F5FB
:1008F00000504A461F38002303A90390684603F0BE
:1009000098FE8DE807000004000C03D04FF0FF3084
:10091000410800E01046B8F1000F03D00022009219
:1009200015461EE0751E05D400F09CF93032625564
:100930006D1EF9D5B3460122084302D000227F1C68
:1009400004E02078302801D100227F1E002A099778
:1009500084D01DE0112D07DA00F084F930326255A1
:100960006D1C50EA0102F5D1084302D00098C8B1CD
:100970000EE00021681E05E0235C625C6354225493
:10098000401E491C8142F7DBAB46A81B401E099064
:10099000002004F80B000B98099AC0F80880C0E901
:1009A000002B7AE711264FF0000857E72DE9F04FAA
:1009B00088460446D21D22F0070191B0D1E900011A
:1009C000CDE90A0103F06CFF02460B98C00F01D07D
:1009D0002D2007E02068810701D52B2002E020218F
:1009E00001EAC000032A099001D0072A05DB03466B
:1009F0004146204600F07CF90BE12078800601D5C5
:100A0000E06900E00620B8F1650F814606D0B8F134
:100A1000660F18D0B8F1670F70D131E00020B9F13E
:100A2000110F009001DB112301E009F101030AAA73
:100A300001A90CA8FFF7E2FEDDE90C70002609F120
:100A40000105834647E001204B4600904FF00047E8
:100A50000AAA01A90CA8FFF7D1FEDDE90DB00C9997
:100A60005D46002610B909F101000D18B9EB05002B
:100A700003D4C0F1FF3609F10105A5EB09002BE015
:100A8000B9F1010F01DA4FF001090020B9F1110F9E
:100A90000090484601DD112300E003460AAA01A99F
:100AA0000CA8FFF7ABFEDDE90C704D46002683462F
:100AB000207800070AD4AB4500DA5D4601A8012D75
:100AC00004DD411911F8011C302907D04F4502DA25
:100AD00017F1040F04DA012082460FE06D1EEEE7E5
:100AE000002F02DCED1B3E4403E0781CA84200DD31
:100AF0007D1CB81B00F1010A4FF000472078000769
:100B000003D4AA4501DB4FF0FF3A0021B7F1004FB3
:100B10000DF143088DF8431024D002202B23002F21
:100B200001DA7F422D230A21021EA0F1010000DC20
:100B30005FB197FBF1FC97FBF1F201FB1C7C1746C0
:100B40000CF1300C08F801CDEEE7A8F101000370BC
:100B50002188090501D5452100E06521A0F10108A2
:100B600000F8011C09980FA9A1EB0807FF1D00B1AF
:100B70000120411901EBEA70A1693844081A401EAE
:100B8000A0612078C00602D42046AFF30080099807
:100B900028B1D4E901219047206A401C20622078C6
:100BA000C00622D52046AFF300801EE0002E04DBF5
:100BB000B34502DD01A8805D00E03020D4E90121C9
:100BC0009047206A401C2062761CAAF101005FEA6F
:100BD000000A0AD100F042F8C0680168405CD4E91C
:100BE00001219047206A401C2062281EA5F10105C2
:100BF000DCDC07E0D4E9012118F8010B9047206AFA
:100C0000401C2062381EA7F10107F3DC2046AFF339
:100C10000080032011B041E601694A1C0261087896
:100C2000704700B58FB0CDE901310021059105492C
:100C30007944CDE9031011466846FFF70BFC0FB06D
:100C400000BD0000E5FFFFFF0A6802F8010B0A6023
:100C500070470000004870471000002000487047AF
:100C60003000002030B5B0F10A0271F100034FEA04
:100C7000900E4EEA817EB0EB0E0061EB91014FEADF
:100C8000101E4EEA017E10EB0E0041EB11114FEAEF
:100C9000102E4EEA016E10EB0E0041EB11214FEACF
:100CA000104E4EEA014E10EB0E0041EB1141401880
:100CB00041F100014FEAD00040EA41704FEAD10112
:100CC0004FEA810444EA907410EB800544EB010480
:100CD0006D1944EB0404521BA3414FF0000348BFBD
:100CE0000A3200D530BD401C41F1000130BD00008A
:100CF0002DE9F0411F46044603260168072A01F446
:100D0000006004DB08B116A505E016A503E008B1F4
:100D100015A500E015A521F010002060A069C01EF7
:100D2000A0610FB1401EA0612046AFF300804FB11B
:100D3000D4E9012138469047206A401C2062C01C3B
:100D4000206206E0206AFAE7D4E9012115F8010BD8
:100D50009047761EF8D22046AFF30080BDE8F081C0
:100D60004E414E006E616E00494E4600696E66004F
:100D70002DE9F047814616468AB0354878440DC8BB
:100D80008DE80D0032487844801C03AC0DC884E81F
:100D90000D0041F69B300844372190FBF1F290FBA7
:100DA000F1F5A5F1800501FB12041B3C02D564425C
:100DB000012000E00020DFF898A080460027FA44D8
:100DC000AAF1BE0A0EE0E0070AD03246684607EBF9
:100DD000470101230AEB810103F02BFC8DE807009A
:100DE00064107F1C002CEED1194F7F44AE3F19E0F8
:100DF000E80715D007EB04100DF1180A90E80E0073
:100E00008AE80E00C068F04201D198190890324675
:100E1000012306A903A803F00CFC03AB83E8070039
:100E20006D10641C002DE3D14FF00103324669467A
:100E3000B8F1000F03A802D003F0E6FB01E003F0D5
:100E4000F8FBC9E90001C9F808200AB0BDE8F0873D
:100E5000383C00007546FFF7FDFEAE4605006946CA
:100E6000534620F00700854618B020B5FFF718FA62
:100E7000BDE820404FF000064FF000074FF000089B
:100E80004FF0000BAC46ACE8C009ACE8C009ACE8D8
:100E9000C009ACE8C00921F007018D46704710B5C4
:100EA0000446AFF300802046BDE81040FFF7E3B9E9
:100EB00001491820ABBEFEE7260002007047000083
:100EC000FEE7000010B5846B204600F05FFA0120B9
:100ED000207110BD10B5846B204600F029FA012066
:100EE000207110BD10B5846B206940F004002061B2
:100EF000204600F051FA0120207110BD10B5846B1E
:100F0000206940F004002061204600F017FA01201B
:100F1000207110BD806B00F03BBA0000806B00F0C8
:100F200009BA00002DE9F04740F2D83C0020C2F297
:100F3000000C00220CEB020300F1280A00F1510E14
:100F400000F17A0400F1A30500F1CC0600F1F507E9
:100F500000F58F7800F24711C3E901AE03F10C0EE2
:100F60004CF8020000F28F298EE8F001196200F5BA
:100F7000B87100F2991700F5E17600F2EB1500F573
:100F8000057400F23D2E00F266286432C3E90917A9
:100F9000C3E90B65C3E90D4EC3E90F8900F52E7156
:100FA00000F2E12700F20A3600F2333500F55774FB
:100FB00000F2853E00F2AE3800F2D739B2F5C87FB4
:100FC00000F58060C3E91117C3E91365C3E9154E45
:100FD000C3E91789AED1BDE8F087000040F24410A4
:100FE000C2F2000000F066BB70470000EFF3108013
:100FF00072B600BFFEE7000070B581B0002200921B
:1010000090F83C20012A03D10221084601B070BDAE
:101010000E6801220A2E80F83C2009D3B2B2520099
:10102000D0F800E012FA86F21E3A0EF10C0305E049
:10103000D0F800E006EB46020EF110034FF0070C6B
:101040001D680CFA02F4A5431D608D681C6805FA42
:1010500002F222431A60496806290FD801EB810188
:101060004A1F71461F2351F8345F934025EA03035A
:101070000B60B3B203FA02F214E000BF01EB81038C
:101080000C29B2B204D8714651F8304F233B03E02B
:10109000714651F82C4F413B1F259D4024EA050520
:1010A0009A400D600B6842F2043CC4F2010C1A43F2
:1010B000ACF541739E450A6006D0002180F83C10D3
:1010C000084601B070BD00BF1221112EC1F200010F
:1010D00018BF8E423AD1DCF800208E4222F4800202
:1010E000CCF80020DCF8002042F40002CCF800200C
:1010F000E3D140F20801C2F2000109684DF68362B3
:10110000C4F21B32A1FB0212910C01EB81014900D8
:10111000009100990029D0D00099013900910099DF
:101120000029CAD000990139009100990029C4D042
:1011300000990139009100990029BED00099013928
:10114000009100990029E7D1B7E700BF122EB4D172
:10115000DCF8001021F40001CCF80010DCF80010DD
:1011600041F48001CCF80010A7E70000002804BF7C
:101170000120704710B50446006C00283ED0206C5A
:10118000C00645D4206C41F202118843023042F27D
:1011900004312064C4F20101086820F44030086082
:1011A0000A6894E809101A43D4F810E00A6041680C
:1011B000012321F4807141604168C0F6007341EA67
:1011C0000E214160416821F040714160416841EA6F
:1011D0000C014160816821F400618160E1688268EE
:1011E00011438160A16A8268994222F07062826034
:1011F000826813D122F0405119E000BF204600F070
:1012000065F80020606484F83C00206CC006B9D505
:101210000120002184F83C1010BD00BF1143816003
:10122000816821F040518160E16A826811438160E8
:10123000816821F0020181608168227E94F820306B
:1012400041EA42018160416883B141F4006141603B
:1012500041684EF2000221F460414160616ACFF6BC
:10126000FF72436802EB4131194301E021F4006150
:101270004160C16A40F2000C21F47001C162E26970
:101280006169CFF6F07CC36A0CEB02521A43C2626A
:10129000826822F40072826094F83020836843EA06
:1012A00042228260826822F480628260826842EA1E
:1012B0008121816000206064216C012262F30101C0
:1012C0002164002184F83C1010BD000080B586B078
:1012D00042F200010068C4F2010100228842059236
:1012E000049201D006B080BD43F630000092C4F2F3
:1012F0000200436943F480734361436903F48073DC
:101300000093009B0092036843F0010303600068B0
:1013100000F00100009000980320CDE9010001F5E4
:10132000604001A9039200F0A7FB06B080BD000059
:1013300070470000704700007047000070470000D1
:1013400010B54379012B4FF002031DD003710368E0
:1013500002F0100ED3F800C0D1E9004140F6FE7251
:1013600002FA0EF221432CEA020201FA0EF11143B5
:101370001960C0211A6801FA0EF122EA0101196010
:101380000121002301714371184610BD7047000010
:1013900070470000704700007047000010B50168FA
:1013A00004460868800444BF486B5FEA804019D453
:1013B0000868800046BF486B5FEA800010BD0420CB
:1013C0002071206940F0020020614FF00050486316
:1013D000086820F0805220460A60BDE81040FFF700
:1013E000ABBF00BF04202071206940F001002061E4
:1013F0004FF400504863086820F48050086020468D
:10140000FFF7C8FF2168D3E7002804BF0120704719
:1014100010B50446007920B900206071204600F024
:1014200007F802202071002001212061217110BDE8
:10143000F0B587B0044647F200402168C4F20000CE
:10144000002681420696059602D007B0F0BD00BF87
:1014500043F630010196C4F202010A6900F5C63074
:1014600042F000520A610A6902F000520192019AA8
:1014700001960A6842F001020A60096801F0010160
:1014800001910199102102910321CDE9031602A9CE
:1014900000F0F2FA40F2441546F28800C2F200056C
:1014A000C4F202004FF0606140224FF4806385E88F
:1014B000470005F110004FF4006C4FF4005E4FF44C
:1014C000807780E808502846C5E907766E6200F00C
:1014D000D1F9002818BFFFF789FD3620002100222E
:1014E000A560AC6300F030FC362000F019FC07B0BA
:1014F000F0BD00002DE9F0410446407901284FF08D
:10150000020008BFBDE8F081884606990126B8F1BF
:10151000000F667120711FD0E06840F6D56540F677
:101520001D77C0F60005C0F60007C0E90F5740F66A
:10153000FD672668C0F60007C7643768082947F0CA
:101540008057376028D004292AD000290CBF06F123
:101550001405002526E000BFA06840F6C56640F6E9
:10156000157CC0F60006C0F6000CC0E90F6C40F612
:10157000E5662568C0F60006C6642E68082946F4AC
:1015800080562E6016D0042918D000290CBF05F112
:10159000080C4FF0000C13E006F11C0502E000BF40
:1015A00006F11805316841F00051316011462A46B4
:1015B0000CE000BF05F1100C02E000BF05F10C0CBF
:1015C000296841F4005129601146624600F004FA8E
:1015D0000021617140B104F1100104220B681A432B
:1015E0000A60BDE8F08100BF08F010020123216805
:1015F00003FA02F20B681A430A60BDE8F0810000AA
:1016000070B5866D044600F019FB94F83510022978
:1016100028D105462068216C026822F0160202607B
:10162000426922F08002426109B9A16C19B10168D6
:1016300021F008010160016821F00101016000BF93
:1016400020680068C00715D000F0F8FA401B062893
:10165000F6D320206065032084F83500002184F84B
:10166000341070BD802060650120002184F83410A2
:1016700070BD00BFE06D3F2101FA00F0B0600120B5
:1016800084F835000020002184F8341070BD00007B
:1016900090F83510022909D1052180F8351000682D
:1016A000016821F00101016000207047802141653F
:1016B00001207047F0B581B004460020009040F250
:1016C0000800C2F200000268D4E9166048F2B513BF
:1016D00037680821C1F64E3381403942A2FB032509
:1016E0000CD0226813685B0708D5136823F0040345
:1016F0001360B160616D41F00101616501218140BC
:10170000394208D022685269120604D5B160616D71
:1017100041F00201616504218140394208D022680C
:101720001268920704D5B160616D41F004016165F2
:1017300010218140394217D020680268120713D562
:10174000B16002680168520308D4C90508D4016871
:1017500021F008010160216C21B905E008033FD4A4
:10176000216C09B120468847E16D202000FA01F282
:101770003A4241D020680368DB063DD5B26094F858
:1017800035300268052B1BD122F016020260426937
:1017900022F080024261226C0AB9A26C1AB102687E
:1017A00022F0080202603F208840B060012084F8E7
:1017B0003500216D0020002984F8340052D157E013
:1017C0000168520310D4C90512D4016821F0100138
:1017D0000160012084F83500002084F8340007E01F
:1017E000A16C0029BED1BFE7080301D4616C00E001
:1017F000E16B09B120468847606DC8B3606DC007D2
:101800002ED0052084F835002068A90A026822F04D
:1018100001020260009A01328A4200921AD80268DC
:10182000D20717D0009A01328A42009212D8026879
:10183000D2070FD0009A01328A4200920AD8026879
:10184000D20707D0009A01328A42009202D8026879
:10185000D207DFD1012084F83500002084F834005D
:10186000E16C29B1204601B0BDE8F040084700BF57
:1018700001B0F0BD2DE9F041044600F0DFF9ECB114
:101880000546022084F835000020216884F83400E1
:10189000086820F00100086021680868C00711D0BE
:1018A00000F0CCF9401B0528F6D90325202303209E
:1018B000636584F83550BDE8F08100BF0120BDE8C4
:1018C000F08100BF086848F23F02CFF21002D4E96D
:1018D000013500EA020C04F10C0898E8C10143EA62
:1018E0000C032B431843D4E9072E304338431043ED
:1018F000626A40EA0E00042A40EA08031CD1206B09
:10190000D4E90A2E40EA0E00184308604869BEF187
:10191000000F20F0030040EA020040F0040C11D058
:10192000B8F5005F36D0B8F1000F45D1022A46D095
:10193000012A3BD032B942E00B60486920F0070031
:1019400040EA020C01F0F8004AF6AB221038CAF661
:10195000AA22A0FB02231A0944F6E813C0F60003EA
:101960009A5C40F2FF335F284FF03F00C1F814C08B
:1019700021EA030100FA02F088BF0431C4E916121B
:101980008860002301250020636584F83550BDE898
:10199000F08100BF032AD5D8012540230120DFE8CC
:1019A00002F0030E030500BF82E700BFAEF1C07076
:1019B000B0FA80F0400904E0032A04D3C2D1CEF388
:1019C00000600028BED0012540230120636584F813
:1019D0003550BDE8F081000070B590F834C0BCF11E
:1019E000010F46D04FF0010C80F834C0D0F858E019
:1019F00090F835C0BCF1010F38D14FF0020C80F8DF
:101A000035C04FF0000CC0F854C0D0F800C0846856
:101A1000056CC06DDCF80060402C26F48026CCF804
:101A20000060CCF804300B4604BF13460A463F2141
:101A300001FA00F0CCF80830CCF80C20CEF8080001
:101A4000DCF8000040F01600CCF800002DB1DCF806
:101A5000000040F00800CCF80000DCF8000040F086
:101A60000100CCF80000002070BD00BF002180F80C
:101A70003410022070BD00002DE9F04F82B000F15B
:101A80003E4241F6000502F1FF77C4F2020507224B
:101A900043F6004E4FEAB726A84208BF0622C4F21A
:101AA000010E062E38BF4FEAB72201250026002777
:101AB0004FF00008009208E008F101080437B8F17F
:101AC000100F06F1020600F0A7800C6805FA08F96D
:101AD00014EA090FF0D0D1F804B003220BF0030C84
:101AE000ACF10104B240012C6FEA020A10D88268FE
:101AF000CC6802EA0A02B440224382604268CBF317
:101B0000001422EA090204FA08F42243426005E0C4
:101B1000BCF1030F02D14FF0030C20E0C2688C68C7
:101B200002EA0A02B4402243BCF1020FC26016D19D
:101B30006FF0030202EA58020244D2F820C007F014
:101B40001C050F230C69AB402CEA030304FA05F5CE
:101B50002B431362D1F804B001250BF0030C02688B
:101B60000CFA06F302EA0A021A431BF4403F026031
:101B7000A2D0002243F644030192C4F202031A6881
:101B80004FF6084C42F480421A601A68CFF6FF7C88
:101B900002F480420192019A28F00302724452F842
:101BA0000C3007F00C050F24AC40A343009C04FA52
:101BB00005F52B4342F80C30DEF808204B6842EA6A
:101BC000090543F60C4CDC0258BF22EA0905CEF8A1
:101BD0000850C4F2010CDCF800209C0242EA09051E
:101BE00058BF22EA0905CCF80050DEF804209C0317
:101BF00042EA090558BF22EA0905CEF80450DEF88A
:101C00000020DB0342EA090558BF22EA0905CEF8A5
:101C10000050012550E700BF02B0BDE8F08F000082
:101C2000426902EA0103914341EA0341816170473D
:101C3000002A08BF090481617047000040F2786003
:101C4000C2F200000068704740F2000040F2786184
:101C5000C2F20000C2F2000100780A681044086075
:101C60007047000080B543F60040C4F202000168EE
:101C700041F400710160016841F480610160016814
:101C800041F480710160032000F08AF8002000F028
:101C900005F800F027F8002080BD000070B540F284
:101CA0000006C2F2000640F208013278C2F20001DA
:101CB0004FF47A730968B3FBF2F20446B1FBF2F118
:101CC000084600F0BBFB0F2C4FF0010508D838B9CF
:101CD0004FF0FF3021460022002500F035F87460F7
:101CE000284670BD82B0002043F640010190C4F246
:101CF00002014A6842F480424A604A6802F4804223
:101D00000192019A0090086840F0805008600868CD
:101D100000F0805000900098072002B000F040B81A
:101D2000002848BF7047C1B200F01F00012202FA2C
:101D300000F04EF20012CEF2000242EAD10121F090
:101D4000030108607047000010B54EF60C5CCEF23F
:101D5000000CDCF80030C3F3022E8EF00704042CD4
:101D600028BF0424BEF103034FF0FF3E0EFA04F433
:101D700038BF0023A14399400EFA03F39A4311435D
:101D800000F00F0200F160430901043A03F56443D7
:101D90006244002848BF02F10C03197010BD000016
:101DA0004EF60C51CEF200010A684FF6FF031A40BE
:101DB00060F30A2242F0806040F0FD7008607047D6
:101DC00070B582B00020019043F64000C4F20200DA
:101DD0000168402641F0805101600068C4F20E267F
:101DE00000F080500190019847F204050120C4F2F0
:101DF00000053060FFF722FF044600BF2868C003DB
:101E000006D4FFF71BFF001BB0F57A7FF6D90EE072
:101E100001207060FFF712FF044600BF28688003AE
:101E200008D4FFF70BFF001BB0F57A7FF6D903202B
:101E300002B070BD002002B070BD00002DE9F0417D
:101E4000002800F08B8043F60808C4F2020804461C
:101E5000D8F8F8030D4600F00F00884207D288F842
:101E6000F853D8F8F80300F00F00A84276D12068A4
:101E7000810717D5410705D5D8F8001041F4E05186
:101E8000C8F80010010705D5D8F8001041F46041EA
:101E9000C8F80010D8F80010A26821F0F001114332
:101EA000C8F80010C0073FD1D8F8F80300F00F00C1
:101EB000A84207D988F8F853D8F8F80300F00F00C3
:101EC000A8424BD12068410707D5D8F80010E26836
:101ED00021F4E0511143C8F80010000708D5D8F8E4
:101EE0000000216920F4604040EAC100C8F8000009
:101EF00000F07CF8D8F8001044F6D012C1F30311BA
:101F0000C0F60002515C40F2080220FA01F140F2F2
:101F10000400C2F200000068C2F200021160FFF784
:101F2000BDFE0020BDE8F0816068811E022907D255
:101F300058F8081C89015CBF0120BDE8F08111E060
:101F4000012807D158F8081C89035CBF0120BDE8AF
:101F5000F08107E058F8081C890703D40120BDE888
:101F6000F08100BFD8F8001021F003010843C8F841
:101F70000000FFF763FE064641F28837D8F80000FC
:101F8000616800F00C00B0EB810F8DD0FFF756FEBA
:101F9000801BB842F2D90320BDE8F08140F208006E
:101FA00043F60801C2F20000C4F2020100680968A9
:101FB00044F6E012C1F38221C0F60002515CC84031
:101FC0007047000040F2080043F60801C2F200002A
:101FD000C4F202010068096844F6E012C1F342311C
:101FE000C0F60002515CC8407047000010B543F6CF
:101FF0000404C4F202046068C0F3810142F20040AC
:10200000C0F2F400DFE801F04402081841F20020B9
:10201000C0F27A0010BD00BF216801F03F022168C4
:1020200023684902C3F3881116D4A1FB00010023E1
:10203000FEF748F917E000BF216801F03F02216870
:1020400023684902C3F3881116D4A1FB00010023C1
:10205000FEF738F917E000BF41F20020C0F27A0025
:102060004843B0FBF2F021680222C1F3014102EBC8
:102070004101B0FBF1F010BD41F20020C0F27A0046
:102080004843B0FBF2F02168C1F30271B0FBF1F0FC
:1020900010BD00002DE9F04182B0002800F09680CC
:1020A0000446007843F60006C007C4F202062BD0AF
:1020B000B06800F00C00042820D0B06800F00C00DC
:1020C000082802D17068400218D4B06800F00C00F3
:1020D0000C2802D17068400210D46068B0F5803FCF
:1020E00007D0B0F5A02F40F03B81306840F480204D
:1020F0003060306840F4803030603BE1306880030D
:1021000002D56068002861D02078800722D5B068A9
:1021100010F00C0F11D0B06800F00C00082802D1AC
:102120007068400209D5B06800F00C000C2840F03F
:102130009F807068400200F19B803068800702D564
:10214000E068012842D13068216920F0F80040EAB7
:10215000C1003060207800073CD42078400751D47B
:10216000A56985B3B06800F00C00082840F0A8808D
:10217000012D2BD07068E16900F480028A4225D1DC
:10218000216A00F03F028A4220D147F6C071626A9C
:102190000140B1EB821F19D1A16A4FF6FF73C90349
:1021A000994300F44032A1F580318A420ED1E16AB0
:1021B00000F07062B2EB016F08D1216B00F0E040DB
:1021C000B0EB017F02D1002034E100BF012002B05A
:1021D000BDE8F0816069002840F20000C4F24720A9
:1021E0005ED00121C0F8801EFFF728FD054600BF24
:1021F000706F8007B1D4FFF721FD401B0228F7D98B
:10220000C5E000BF306C10F080580AD1002001906A
:10221000306C40F080503064306C00F080500190A1
:10222000019847F20007C4F200073868C00511D4CE
:10223000386840F480703860FFF700FD054600BF45
:102240003868C00506D4FFF7F9FC401B0228F7D90F
:102250009DE000BFA068012805D0052852D1306F4D
:1022600040F004003067306F40F00100306753E009
:10227000E068002860D00020C4F2472001210160FE
:10228000FFF7DCFC054600BF306880073FF55BAF19
:10229000FFF7D4FC401B02284FF00300F4D9C9E03B
:1022A0000021C0F8801EFFF7C9FC0546706F80074B
:1022B0007FF553AFFFF7C2FC401B0228F6D966E05A
:1022C0000027C4F2472700203866FFF7B7FC022D2D
:1022D00005460BD1306880015ED5FFF7AFFC401B8F
:1022E00002284FF00300F5D9A4E000BF3068800158
:1022F0007FF569AFFFF7A2FC401B02284FF00300F7
:10230000F4D997E0316F002821F001013167316F76
:1023100021F00401316763D0FFF790FC054641F2DC
:10232000883700BF306F80076CD4FFF787FC401BF5
:10233000B842F7D92BE000BF0020C4F247200021AB
:102340000160FFF77BFC0546306880077FF502AF30
:10235000FFF774FC401B02284FF00300F4D969E03A
:102360003168002821F480313160316821F4802106
:10237000316051D0FFF762FC054600BF3068800332
:102380003FF5C2AEFFF75AFC401B6428F6D9032084
:1023900002B0BDE8F08100BF04F11C052FCD246B15
:1023A000084340EA8210D9034FF6FF729143A1F52A
:1023B000803140EA0560084340EA04707060012003
:1023C0003866FFF73BFC0446306880013FF5FBAE02
:1023D000FFF734FC001B02284FF00300F4D929E07A
:1023E000FFF72CFC054641F2883700BF306F8007AD
:1023F00008D5FFF723FC401BB8424FF00300F5D986
:1024000018E000BFB8F1000F7FF4AAAE306C20F0E6
:1024100080503064A4E600BFFFF710FC054630682A
:1024200080037FF571AEFFF709FC401B64284FF075
:102430000300F4D902B0BDE8F0810000411E002085
:10244000B0EB116F1CBF012070474EF21002CEF2AC
:10245000000251604EF62351CEF20001F0230B70C2
:1024600007219060116070477047000070470000BE
:10247000B0B590F83C20012A04BF0220B0BD01F1A4
:1024800008053CCDD1E900CE23F47C5322F47052F0
:102490001A432EF4F0431A432CF4E0431A4324F475
:1024A000C0431A432A43C96922F480420368114396
:1024B0005964002180F83C100846B0BD10B590F872
:1024C0003C20012A4FF0020251D080F83D200268E2
:1024D000D2F804E0D2F808C00C682EF07003234351
:1024E00041F2FF74C4F20004A24253600EDC40F2D9
:1024F000FF73C4F200039A4216DCB2F1804F2BD076
:1025000040F20043C4F2000324E000BF40F2FF3376
:10251000C4F201039A4213DC41F60003C4F2000343
:102520009A4219D0002313E040F60003C4F20003DE
:102530009A4211D040F60043C4F200030AE000BF03
:1025400044F20003C4F201039A4205D040F2004372
:10255000C4F201039A4204D149682CF08003194364
:1025600091600121002280F83D1080F83C20104647
:1025700010BD0000002804BF0120704710B50446BC
:1025800090F83D0028B9002084F83C00204600F077
:102590001FF8022084F83D002068211D01F0AAF8F0
:1025A000012084F8460084F83E0084F83F0084F857
:1025B000400084F8410084F8420084F8430084F825
:1025C000440084F8450084F83D00002010BD000060
:1025D00010B582B0006844F20041C4F201018842A3
:1025E00014D0B0F1804F2DD10020019043F640006F
:1025F000C4F2020001681C2441F00101016000687E
:1026000000F001000190019810E000BF0020009050
:1026100043F64000C4F202004168192441F400313D
:102620004160406800F4003000900098204600218E
:102630000022FFF789FB204602B0BDE81040FFF7FB
:102640006FBB00BF02B010BD90F83D1001291CBF48
:1026500001207047022180F83D10006841F2FF72AE
:10266000C168C4F20002904241F00101C1600DDC7A
:1026700040F2FF71C4F20001884215DCB0F1804FD6
:102680002AD040F20041C4F2000123E040F2FF31C1
:10269000C4F20101884213DC41F60001C4F20001DA
:1026A000884219D0002113E040F60001C4F2000175
:1026B000884211D040F60041C4F200010AE000BF98
:1026C00044F20001C4F20101884205D040F2004109
:1026D000C4F20101884206D1816801F00701062990
:1026E00004BF00207047016841F001010160002033
:1026F0007047000080B590F83C20012A4FF002029C
:1027000000F0C28080F83D20D0F800C04FF677720C
:10271000DCF8083023EA0202CCF808200B684F2BC3
:1027200028DC1F2B44DD202B45D0302B43D0402B01
:1027300040F0AC80D1F804E0C968DCF82030DCF867
:10274000202022F00102CCF82020DCF8182022F012
:10275000F00242EA011123F00A0242EA0E02CCF82A
:102760001810CCF82020DCF8081041F0470121F0C7
:10277000300180E06F2B27DDB3F5005F48D0B3F563
:10278000805F7AD0702B40F08180D1E901E3C96885
:10279000DCF8082043EA0E0322F47F4243EA0121D9
:1027A0001143CCF80810DCF8081041F0770162E022
:1027B0000BB1102B6AD1DCF8081021F0700119431D
:1027C00041F0070157E000BF502B35D0602B5DD1A1
:1027D000D1F804E0C968DCF8203023F01003CCF80D
:1027E0002030DCF81830DCF8202023F4704322F08D
:1027F000A00243EA013142EA0E12CCF81810CCF8DC
:102800002020DCF8081041F0670121F0100132E0CF
:10281000D1E901E3C968DCF8082043EA0E0322F499
:102820007F4243EA01211143CCF80810DCF808107C
:1028300041F480411FE000BFD1F804E0C968DCF832
:102840002030DCF8202022F00102CCF82020DCF837
:10285000182022F0F00242EA011123F00A0242EAB3
:102860000E02CCF81810CCF82020DCF8081041F04B
:10287000570121F02001CCF808100022012180F836
:102880003D10002180F83C10104680BD0122F5E784
:102890007047000010B5016804460869800744BF0E
:1028A000C8685FEA807039D40869400744BFC868C7
:1028B0005FEA40703ED40869000744BFC8685FEA19
:1028C000007045D40869C00644BFC8685FEAC060AC
:1028D0004AD40869C0071CBFC8685FEAC07051D1FC
:1028E0000869000644BFC8685FEA006052D40869FE
:1028F000400644BFC8685FEA406053D40869800658
:1029000046BFC8685FEA806010BD6FF020022046B5
:102910000A61BDE81040FFF7A9BD00BF6FF00200DB
:102920000861012020778869800743D02046FFF79F
:10293000AFFF45E06FF0040008610220207788694E
:1029400010F4407F40D02046FFF7A2FF42E000BFD6
:102950006FF00800086104202077C86980073DD027
:102960002046FFF795FF3FE06FF010000861082058
:102970002077C86910F4407F3AD02046FFF788FFDF
:102980003CE000BF6FF001000861204600F056FAFD
:102990002168A5E76FF0800008612046FFF764FD1D
:1029A0002168A4E76FF040000861204600F058FA63
:1029B0002168A3E7204600F04FF8204600F0B2F966
:1029C0002168002020776FE7204600F045F8204678
:1029D00000F0A8F92168002020776CE7204600F07D
:1029E0003BF8204600F09EF921680020207769E737
:1029F000204600F031F8204600F094F921680020CC
:102A0000207766E780B586B001680020C4F2010037
:102A1000814201D006B080BD002143F63002019111
:102A2000C4F20202136800F5803043F00103136022
:102A3000126802F001020192019A4FF4E0620192E1
:102A40000222CDE9022104910121059101A9FFF79C
:102A500013F806B080BD0000704700002DE9F04378
:102A600090F83C30012B04BF0220BDE8F0834FEA10
:102A7000B202032A00F2FC80DFE802F0023E7EBED2
:102A8000036840F200471A6A43F4806522F00102AD
:102A90001A621C6A1A46D3F804E052F818CF8E68FE
:102AA00024F00204C4F20107BD4244EA060405D141
:102AB000CE6824F00C0426F0040634430E68BD42B0
:102AC00007D1D1E905572EF4407E45EA0E0545EAC7
:102AD000070E2CF073073743C3F804E09F614F687B
:102AE00009695F631C629F6947F008079F619F69DE
:102AF00027F004079F61B1E0036840F200481A6ABA
:102B000043F4806522F010021A621C6A1A46D3F858
:102B100004C052F818EF8F6824F02004C4F20108B2
:102B2000454544EA071407D1CF686FF0400624F00A
:102B3000C00406EA07163443D1F80090454506D193
:102B4000D1E905562CF440672E4347EA860C2EF453
:102B5000E64747EA0927C3F804C09F614F6809693F
:102B60009F631C629F6947F400679F619F6927F418
:102B700080679F6171E000BF036840F200481A6AF5
:102B800043F4806522F480721A621C6A1A46D3F8F4
:102B900004C052F81CEF8F6824F40074C4F20108DA
:102BA000454544EA072408D1CF6840F2FF463F027A
:102BB00024F4406427EA06063443D1F800904545E2
:102BC00006D1D1E905562CF440572E4347EA061C9E
:102BD0002EF0730747EA0907C3F804C0DF614F68A6
:102BE0000969DF631C62DF6947F00807DF61DF699D
:102BF00027F00407DF6131E0036840F200451A6AFC
:102C000043F4806722F480521A621A46D3F820C037
:102C10005C6852F81CEFD1F800808E68C4F20105A0
:102C2000AF4204D14D6924F4804444EA85142CF465
:102C3000005747EA06372EF4E64646EA08265C6067
:102C4000DE614E6809691E641F62DF6947F4006730
:102C5000DF61DF6927F48067DF61090213681943C8
:102C600011600021002280F83C200846BDE8F08376
:102C70000121002280F83C200846BDE8F0830000D6
:102C8000002804BF0120704710B5044690F83D00AD
:102C900028B9002084F83C00204600F01FF80220EC
:102CA00084F83D002068211D00F024FD012084F8F7
:102CB000460084F83E0084F83F0084F8400084F821
:102CC000410084F8420084F8430084F8440084F80A
:102CD000450084F83D00002010BD000080B582B0A2
:102CE00000680021C4F2010188421CBF02B080BD0F
:102CF0000020019043F64400C4F202000168002263
:102D000041F0010101600068002100F00100019024
:102D100001981920FFF718F8192002B0BDE880408B
:102D2000FEF7FEBF7047000041B1082910D004290A
:102D300014BF00F1410200F13F020BE090F83E2089
:102D4000012A1CBF01207047022280F83E2013E0B8
:102D500000F140021278012A1CBF012070470222B4
:102D6000082907D0042914BF80F8412080F83F20AB
:102D700002E000BF80F84020006801F01F0101223E
:102D8000036A02FA01F123EA01020262026A1143B4
:102D900041F2FF72C4F20002904201620CDC40F288
:102DA000FF71C4F20001884214DCB0F1804F37D0CB
:102DB00040F2004116E000BF40F2FF31C4F20101D1
:102DC000884215DC41F60001C4F20001884227D098
:102DD000002115E040F60001C4F2000188421FD036
:102DE00040F60041C4F20001884219D01FE000BF44
:102DF00044F20001C4F20101884211D040F20041C6
:102E0000C4F20101884212D1416C40F2004340F407
:102E10008062C4F2010341F400419A42416406D148
:102E2000816801F00701062904BF0020704701688E
:102E300041F00101016000207047000040F2EC11F8
:102E4000C2F20001884218BF704780B50020C4F26A
:102E500002002021FEF7E4FEBDE8804000F07ABECB
:102E6000704700007047000070470000B0B582B0A6
:102E7000044600680168C368426901F02F05202DEF
:102E800003F0200506D12DB1204602B0BDE8B040C8
:102E900000F0D4BC5FEA017C1EBF02F0010E03F417
:102EA000907212EB0E0253D1226B012A05D111F060
:102EB000100218BF13F0100236D10A0622D513F003
:102EC00080021FD094F83D1021293FD1A168B1F5AF
:102ED000805F03D12169002900F07282216A4A1CB7
:102EE000226209784160E18C01390A04E1842DD124
:102EF000C16821F08001C160C16841F04001C1603A
:102F000002B0B0BD490621D513F040011ED0C16802
:102F100021F04001C1602021204684F83D1002B01C
:102F2000BDE8B04000F00CBB0021019101680191A7
:102F30004168019101994069400613D4A08DE18D4B
:102F4000E28D002A18BF884240F0BE8102B0B0BDB9
:102F5000CA0718BF13F4807240F0BA804A0700F124
:102F6000BD80C2E0A16B0868426893B2002BEDD02F
:102F7000A08D8342EAD2E285C969B1F5807F00F075
:102F80009D80206850E8030F216820F4807041E89C
:102F90000302DAB1206850E8030F216820F4807042
:102FA00041E8030292B1206850E8030F216820F441
:102FB000807041E803024AB1206850E8030F21689D
:102FC00020F4807041E80302002ADAD1206850E83A
:102FD000050F216820F0010041E80502DAB1206800
:102FE00050E8050F216820F0010041E8050292B188
:102FF000206850E8050F216820F0010041E8050233
:103000004AB1206850E8050F216820F0010041E82E
:103010000502002ADAD1206850E8050F216820F067
:10302000400041E80502DAB1206850E8050F216848
:1030300020F0400041E8050292B1206850E8050FF9
:10304000216820F0400041E805024AB1206850E8BC
:10305000050F216820F0400041E80502002ADAD17E
:10306000202084F83E0000202063206850E8030FF1
:10307000216820F0100041E80302DAB1206850E82E
:10308000030F216820F0100041E8030292B120688C
:1030900050E8030F216820F0100041E803024AB114
:1030A000206850E8030F216820F0100041E8030277
:1030B000002ADAD1A06BFEF7A3FAA08DE18D401AA9
:1030C00081B2204602B0BDE8B040FFF7CBBE00BFE2
:1030D000226C42F0010222644A0706D5BEF1000FBD
:1030E00003D0226C42F0020222648A0706D5BEF1A8
:1030F000000F03D0226C42F004022264BCF1000FE6
:1031000009D545EA0E02B2FA82F2520903D1226CC5
:1031100042F008022264226C002A3FF417AF11F03B
:10312000200118BF002D03D0204600F087FB206847
:103130004069216C00F0400001F00801401800F0E7
:10314000B58000BF206850E8030F216820F490701C
:1031500041E80302BAB3206850E8030F216820F465
:10316000907041E8030272B3206850E8030F2168B1
:1031700020F4907041E803022AB3206850E8030F5E
:10318000216820F4907041E80302002ADAD11AE0A5
:10319000206850E8050F216820F0010041E8050291
:1031A000DAB1206850E8050F216820F0010041E8FD
:1031B000050292B1206850E8050F216820F0010057
:1031C00041E805024AB1206850E8050F216820F067
:1031D000010041E80502002ADAD1206B012824D140
:1031E000206850E8030F216820F0100041E8030236
:1031F000DAB1206850E8030F216820F0100041E8A0
:10320000030292B1206850E8030F216820F01000FB
:1032100041E803024AB1206850E8030F216820F01A
:10322000100041E80302002ADAD1202084F83E0091
:10323000002020632068406940063FD5206850E8A0
:10324000050F216820F0400041E80502DAB120684E
:1032500050E8050F216820F0400041E8050292B1D6
:10326000206850E8050F216820F0400041E8050281
:103270004AB1206850E8050F216820F0400041E87D
:103280000502002ADAD1A06BC0B143F63101C0F6C5
:1032900000010165FEF7FCF900283FF457AEA06B72
:1032A000016D02B0BDE8B040084700BF2046FFF7FF
:1032B000DBFD0020206402B0B0BD00BF204602B09C
:1032C000BDE8B040FFF7D0BD401A216851E8031FA8
:1032D000226821F4907142E80313DBB1216851E8C0
:1032E000031F226821F4907142E8031393B121680F
:1032F00051E8031F226821F4907142E803134BB197
:10330000216851E8031F226821F4907142E80313F9
:10331000002BDAD1216851E8051F226821F0010154
:1033200042E80513DBB1216851E8051F226821F04E
:10333000010142E8051393B1216851E8051F226895
:1033400021F0010142E805134BB1216851E8051F46
:10335000226821F0010142E80513002BDAD1202177
:1033600084F83E1000212163216851E8031F226880
:1033700021F0100142E80313002B3FF4A1AE2168B5
:1033800051E8031F226821F0100142E80313002BCB
:103390003FF496AE216851E8031F226821F0100126
:1033A00042E80313002B3FF48BAE216851E8031F62
:1033B000226821F0100142E80313002BD4D17FE6EC
:1033C000216A31F8022B6FF35F22426021628AE5A5
:1033D000002804BF0120704710B5044690F83D0056
:1033E00028B9002084F83C00204600F021F8242071
:1033F00084F83D002068C16821F40051C160204676
:1034000000F09CFA2068016921F490410161416952
:1034100021F02A014161C16841F40051C1600020DE
:103420002021206484F83D1084F83E1010BD000077
:10343000F0B587B0006844F60001C4F20001002432
:103440008842CDE90544CDE9034402942AD044F2F0
:103450000041C4F2000188426DD1002043F63001E2
:103460000190C4F202010A69262442F400320A6182
:103470000A6902F400320192019A01900A6842F04E
:1034800001020A60096801F00101019101990C2112
:1034900002910221CDE90310032005900020C4F21F
:1034A00002003BE043F630000194C4F202000169DF
:1034B000002741F4802101610169C4F2020701F48F
:1034C00080210191019901940168022541F00401D4
:1034D00001600168032601F0040101910199019442
:1034E000016841F002010160006802A900F00200D9
:1034F00001900198202002900720069007F50060B7
:10350000CDE903540596FEF7B7FA4FF48060CDE994
:103510000205CDE9044607F58060272407210691BE
:1035200002A9FEF7A9FA204600210022FEF70CFCB2
:103530002046FEF7F5FB07B0F0BD00007047000025
:1035400070470000FEE7000040F28400C2F2000075
:103550000021C0E90011C0E90211C0E90411816134
:1035600070470000FEE70000FEE700007047000023
:1035700040F27000C2F200000021017040F2C82148
:10358000C2F20001416040F2B40140F2685240F2E0
:10359000503340F2F05CC2F20001C2F20002C2F20B
:1035A0000003C2F2000C09688260C360C0F810C05A
:1035B000486940F00100486140F27C20C2F20000FE
:1035C0000068426942F001024261CA6842F020028A
:1035D000CA60C16841F02001C160704770470000B7
:1035E000FEF732BB80B594B0002043F640010C904A
:1035F000CDE90A00CDE908000690CDE90400CDE947
:1036000002000190C4F202010A6842F080520A608E
:10361000096801F080510191019947F20001019080
:10362000C4F200010A6842F440420A6009680122BB
:1036300001F44041019101990221CDE90D100820CA
:103640000F90B4200A921022CDE9100107A807912B
:103650000B92CDE91211FEF71DFD28B1EFF310809A
:1036600072B600BFFEE700BFFEF7AAFB20B1EFF382
:10367000108072B6FEE700BF0F2002900220039078
:10368000002004904FF4A05005904FF48050069015
:1036900002A80521FEF7D2FB20B1EFF3108072B62D
:1036A000FEE700BF14B080BD4EF68850CEF2000099
:1036B000016841F4700101607047000080B540F27C
:1036C000A410C2F20000FFF7E5F840F2EC10C2F2DD
:1036D0000000BDE88040FFF7DDB8000040F2342074
:1036E000C2F20000FFF7D6B840F2A000C2F200001C
:1036F000FDF754BE10B540F6FF3E0368C4F2000E5D
:1037000040F2004C7045C4F2010C27DCB0F1804F50
:1037100031D040F20042C4F2000290422BD040F679
:103720000002C4F20002904225D041F6FF72C4F2BA
:103730000002904229DC70453CDCB0F1804F5FD044
:1037400040F20042C4F20002904259D040F600021A
:10375000C4F20002904253D056E000BF40F600424F
:10376000C4F20002904206D0604504D00022C4F2A8
:1037700001029042D9D14A6823F07003134341F605
:10378000FF72C4F200029042D5DD43F6FF72C4F22C
:103790000102904222DC42F20002C4F20002904296
:1037A0002ED00022C4F20102904229D0604527D0D9
:1037B0002AE000BF40F60042C4F2000290421FD04F
:1037C00041F60002C4F20002904219D041F60042D4
:1037D000C4F20002904213D016E000BF44F200028F
:1037E000C4F2010290420BD044F60002C4F201027E
:1037F000904205D044F20042C4F20102904203D14B
:10380000CA6823F44073134323F080024B69D1F854
:1038100000E08C681A430260C46240F48062C0F821
:1038200028E0624504BF096901630121416110BDBF
:10383000806B0021C185C184FFF716BB81B090F871
:103840003E10222921D183680246B3F5805F09D159
:1038500052F8281F52F8183C002B63D003685B68AD
:103860000AE000BF52F8281F13B90369002BF5D0F6
:1038700003685B6803F07F030B701168013111600E
:10388000C18D01390A04C18502D001B0704700BF63
:103890000168CA6822F02002CA60CA6822F48072F5
:1038A000CA604A6922F001024A61202180F83E1074
:1038B000016B01293ED10021016300BF016851E87D
:1038C000031F026821F0100142E80313DBB1016815
:1038D00051E8031F026821F0100142E8031393B17D
:1038E000016851E8031F026821F0100142E8031348
:1038F0004BB1016851E8031F026821F0100142E852
:103900000313002BDAD101680A68D20606D500221B
:1039100000920A680092496800910099818D01B077
:10392000FFF7A0BA026852686FF35F2221F8022BFA
:103930008162A5E701B0FFF701BE000010B50446A3
:103940000068D4E902C22369016921F4405111439E
:103950000161626943EA0C01E3691143C2681943DA
:1039600049F20C639A431143C1604169A26921F491
:10397000407141F20043114340F48062C4F20103FC
:103980009A42416102D1FEF71DFB01E0FEF706FB02
:10399000E16963681922B1F5004FA0FB020123D150
:1039A0005A00DB0FFCF78EFC48F21F51C5F2EB11F9
:1039B000A0FB01235A094FF69C73C0F6FF7303F175
:1039C000805302FB0300322303EBC000A0FB010184
:1039D0004FF4F87000EA111000EB0210C1F342112D
:1039E00008442168886010BD9A009B0FFCF76AFCB0
:1039F00048F21F51C5F2EB11A0FB01235A094FF603
:103A00009C73C0F6FF7302FB0300322303EB00102C
:103A1000A0FB0101F02000EA511000EB0210C1F3FD
:103A2000431108442168886010BD000010B540F2C1
:103A3000B404C2F20004204600F014F82046BDE8A9
:103A40001040FFF713BA000010B540F27C24C2F218
:103A50000004204600F006F82046BDE81040FFF7BD
:103A600005BA000002681368D2F80CC099061FD589
:103A70001CF020011CD01168516840F2B402C2F25F
:103A80000002904236D040F27C22C2F20002904204
:103A90003ED140F27000C2F20000C068D0F8802031
:103AA000D0F88430013202F07F029A4230D031E007
:103AB00019062DD51CF080012AD040F2B401C2F2C3
:103AC000000188422CD040F27C21C2F200018842E1
:103AD00018BF704740F2F050C2F20000D0F88020CA
:103AE000D0F884309A4225D10868C16821F080015D
:103AF000C160704740F27000C2F200004068D0F828
:103B00008020D0F88430013202F07F029A4201D145
:103B1000704700BFD0F88030C154C0F88020704793
:103B200040F26850C2F20000D0F88020D0F8843013
:103B30009A42D9D0D0F88420825CD0F88430013306
:103B400003F07F03C0F88430086801684260704762
:103B5000FEE70000F0B5B3B040F27006C2F2000616
:103B6000F46848A120460822FCF739FD30B148A18D
:103B700020460722FCF733FD002846D12046FCF7FB
:103B80000FFD054640F25030C2F200005721FCF70D
:103B9000FDFC00284FF0FF3218BF002D44D13EA19C
:103BA00001A8FCF707FC9DF8040068B3336940F2F4
:103BB0007C2201A9C2F200020EE000BFD3F880709F
:103BC000D855336911F8010FC3F880501768FD68A4
:103BD00045F08005FD60B8B1D3F88070013707F07B
:103BE0007F0500BFD3F88470BD42E7D1D3F884705D
:103BF000BD42E3D1D3F88470BD42DFD1D3F88470E5
:103C0000BD42EFD0DAE700BFF46840F25030C2F2B4
:103C100000000021C0F88010C0F8841020468021E8
:103C2000FCF728FD33B0F0BD0178C5F1000CA5F11B
:103C3000010E0020225C8A421DD0864512D0221837
:103C400053788B4212D00CEB00039F1C0AD097785C
:103C50008F420FD0033305D0D2788A420ED0043081
:103C60008542E7D14FF0FF3299E700BF013002B241
:103C700095E700BF023002B291E700BF033002B205
:103C80008DE700BF53696E655761766500000000DF
:103C9000547269576176650077206C6F636174694F
:103CA0006F6E2069732025640A00000040F208004E
:103CB0002C21C2F20000C4F20101006851F8042C6A
:103CC0000B6801325A43B0FBF2F044F6D352C1F212
:103CD0006202A0FB0202900940F2C622C2F2000278
:103CE000108091ED020A91ED001AB8EE400AB8EE8C
:103CF000411A80EE010A40F2C020C2F2000080EDBD
:103D0000000A704794B043F6300640F20008C4F24F
:103D10000206C4F20208FDF7A5FFFFF763FC0027C7
:103D2000CDE905770A973068202140F00400306023
:103D30003068002200F004000A900A980A97306860
:103D4000202440F080003060306800F080000A904D
:103D50000A980A97306840F001003060306800F03F
:103D600001000A900A980A97306840F0020030601B
:103D7000306800F002000A900A984046FDF758FFAC
:103D80004FF4005002904FF4041002ADCDE9030748
:103D900008F500602946FDF76FFE029401244046B5
:103DA0002946CDE903470597FDF766FE40F2A005D9
:103DB000C2F20005A8F5DE31284640F8141F4FF482
:103DC000E1310C22C0E90117C0E90377C0E90527FA
:103DD000C761FFF7FDFA28B1EFF3108072B600BF9C
:103DE000FEE700BF40F2FC000123A8F56041C2F2EB
:103DF0000000C0F6007305974FF48032077680F814
:103E00002070C0E90A37C46180F8307080E886000D
:103E1000C0E903774461FDF7A9F928B1EFF31080F9
:103E200072B600BFFEE700BF00240120CDE9030405
:103E300040F2FC00C2F2000002A90294FDF7DCF897
:103E400020B1EFF3108072B6FEE700BF40F2EC1035
:103E5000A8F53C41C2F2000044F24F6280E816002F
:103E6000C0E903248461FEF785FB28B1EFF31080DD
:103E700072B600BFFEE700BF40F27C20A8F5DC313F
:103E8000C2F2000000240C234FF4E13280E8160057
:103E9000C0E90344C0E90534C461FFF799FA28B1C9
:103EA000EFF3108072B600BFFEE700BF02943068E7
:103EB000002140F4001030603068002200F400104F
:103EC000029002981020FDF73FFF1020FDF728FF19
:103ED00024200290A8F5C630286028460394FDF7F8
:103EE00093FA28B1EFF3108072B600BFFEE700BF6F
:103EF00040F2A000C2F2000002A900220024FDF757
:103F00001FFA28B1EFF3108072B600BFFEE700BFC2
:103F100040F20800C2F2000000684EF22F31800922
:103F2000C0F2BE01A0FB010140F2A4104FF0FF332C
:103F3000A8F58032C2F2000003EBD12140F2E73352
:103F4000CDE912440894C0E90021C0E90243C0E968
:103F500004448461FEF794FE20B1EFF3108072B642
:103F6000FEE700BF40F2A410C2F2000012A9FEF763
:103F7000A5FA28B1EFF3108072B600BFFEE700BFCC
:103F800060200A904FF4FA700B900020CDE90C00ED
:103F9000CDE90E00109040F2A410C2F200000AA970
:103FA0000022FEF75BFD28B1EFF3108072B600BF70
:103FB000FEE700BF40F2A410C2F200000AA90422EA
:103FC000FEF74CFD20B1EFF3108072B6FEE700BFA4
:103FD00040F2A410C2F200000AA90822FEF73EFD3A
:103FE00020B1EFF3108072B6FEE700BF4FF400502F
:103FF000079040F2A4100024C2F2000002A9069427
:10400000CDE90444CDE902440994FEF731FA18B130
:10401000EFF3108072B6FEE7FFF748FE40F2A410FF
:10402000C2F20000FEF7EEFC20200A9040F234209D
:10403000C2F200004FF080414FF4967240F2E73335
:1040400080E8160080210594CDE903440B94C0E973
:1040500003348161FEF78EFA20B1EFF3108072B65F
:10406000FEE700BF4FF48050029040F23420C2F2CD
:10407000000002A9FEF73EFB20B1EFF3108072B6FC
:10408000FEE700BF40F23420C2F200000AA9FEF7AA
:1040900015FA18B1EFF3108072B6FEE7FFF768FA71
:1040A000FFF752FA40F2C420C2F200000121017071
:1040B00040F2F800C2F200004FF47A71016040F261
:1040C000EC10C2F20000FEF7BFFA40F23420C2F258
:1040D0000000FEF7B9FA40F2A414C2F20004204630
:1040E00000210025FEF720FE20460421FEF71CFEDD
:1040F000FCF718FF40F2A00040F2D832C2F20000F4
:10410000C2F20002002164230095FDF7F3F9FEE7F7
:104110005FEA400C08BF91F0000F4FEA8C234FEA92
:10412000C12243EA51514FEA1C5018BF00F5F0403C
:104130004FEA300018BF41F000415FEA6C5C00F0CC
:104140002980BCF1FF3F08BF40F080407047130C4E
:1041500006BF12044FF0100C4FF0000C130E04BFFA
:1041600012020CF1080C130F04BF12010CF1040C25
:10417000930F04BF92000CF1020CD30F04BF520046
:104180000CF1010C11464FF00002A0F11F00A0EB52
:104190000C00704711F0004F08BF704731F000412C
:1041A0003FF4D5AF0B0C06BF09044FF0100C4FF0D5
:1041B000000C0B0E04BF09020CF1080C0B0F04BF1E
:1041C00009010CF1040C8B0F04BF89000CF1020CE7
:1041D000CB0F04BF49000CF1010CCCF1200322FAF3
:1041E00003F341EA030102FA0CF2A0EB0C0000F128
:1041F0000100704723F07F4720F07F4C80EA0300E6
:1042000000F00040ACEB070303F57C5303F1FF0320
:104210002DE9804909B44FEA144324EA03484FEAE0
:10422000154B25EA0B4E0FF2042606EB13273E78BA
:1042300003FB0667C7F5000707FB06F64FEAD646FD
:1042400006F102064FEA543707FB066CCCF1005C1E
:104250004FEA1C472CEA074C0CFB06F507FB06F45B
:1042600004EB15464FEA961649085FEA320234BF5E
:1042700000204FF000404FEAD13706FB07FC4FEA21
:104280001C4C0CFB0BF7D21B03FB0CF761EB07017B
:104290000CFB0EF7B0EB074072EB17420CFB08F774
:1042A00034BFA2EB0742B2EB074261EB17414FEA82
:1042B0000C444FEA910706FB07FC4FEA1C4C0CFB31
:1042C0000BF7B0EBC74072EB573203FB0CF734BF70
:1042D000A2EBC742B2EBC74261EB57310CFB0EF7C2
:1042E000B0EBC70072EB57720CFB08F734BFA2EBC0
:1042F000C702B2EBC70261EB57714FEA816141EA35
:1043000092114FEA826242EA90124FEA806004EB17
:10431000CC04039F4FEAD13706FB07FC4FEA1C4C45
:104320000CFB0BF7D21B03FB0CF761EB07010CFB3B
:104330000EF7B0EB074072EB17420CFB08F734BFE7
:10434000A2EB0742B2EB074261EB17414FEA8C55F3
:1043500004EB9C244FEA910706FB07FC4FEA1C4C38
:104360000CFB0BF7B0EBC74072EB573203FB0CF7BB
:1043700034BFA2EBC742B2EBC74261EB57310CFB33
:104380000EF7B0EBC70072EB57720CFB08F734BFA7
:10439000A2EBC702B2EBC70261EB57714FEA816132
:1043A00041EA92114FEA826242EA90124FEA80603B
:1043B00015EB4C2544F100044FEAD13706FB07FC0E
:1043C0004FEA1C4C0CFB0BF7D21B03FB0CF761EB09
:1043D00007010CFB0EF7B0EB074072EB17420CFB2A
:1043E00008F734BFA2EB0742B2EB074261EB17417B
:1043F0004FEA813141EA92414FEA823242EA9042E9
:104400004FEA80304FEA0C7615EB1C1544F100049E
:1044100048EA03434EEA0B484FF0000EB2EB080C9B
:1044200071EB030724BF624639464EEB0E0E4FF088
:10443000000B0018524149414BEB0B0BB2EB080C3F
:1044400071EB03077BF1000B24BF624639464EEB4C
:104450000E0E4FF0000B0018524149414BEB0B0B75
:10446000B2EB080C71EB03077BF1000B24BF624633
:1044700039464EEB0E0E51EA020718BF46F0010610
:1044800016EB0E7655F1000254F1000103D5BDE89C
:104490008901BDE80088BDE88901BDE80048B6197A
:1044A000524141EB0101A3F10103704780807F7EFF
:1044B0007D7C7B7A7978777676757473727171709A
:1044C0006F6E6E6D6C6C6B6A6A696868676666654C
:1044D0006464636362616160605F5F5E5E5D5D5CDA
:1044E0005C5B5B5A5A59595858575756565555554B
:1044F0005454535352525251515050504F4F4F4EAB
:104500004E4D4D4D4C4C4C4B4B4B4A4A4A494949F8
:10451000484848474747474646464545454444443A
:104520004443434343424242424141419C46002B63
:1045300030D477002BD04FEA37071CB503B44FF0C7
:1045400010004FF01001BAF1000F06D0BCF1000FBF
:10455000DCBF40F0080040F008014FF000000FBC45
:10456000BDE810400BF1010BBBF1010F08BF5FEA82
:10457000170722BF12F1010211F101014FF00041B2
:1045800043F1000300F0004043EA00007047F9D314
:104590005708D0E746EA06464FEA164613F1400FA1
:1045A0001FDD13F1200FDFBF16430A460021203321
:1045B0005B42BED0C3F1200746EA06464FEA1646E4
:1045C00002FA07F746EA070622FA03F2C3F12007C8
:1045D00001FA07F742EA070221FA03F14FF000035C
:1045E000A7E746EA020646EA06464FEA164646EAC4
:1045F0000106BCBF46EA0646360C4FF000034FF0FA
:1046000000024FF0000194E72DE9804C70B49A4607
:10461000934691E8380007C831EA400C48BF34EAB5
:10462000430C03D5FFF7E6FDFFF780FFF0BCBDE8C4
:10463000008C2DE9804C70B49A46934691E838007E
:1046400007C810F0804F08BF13F0804F03D100F06F
:1046500005F8FFF76BFFF0BCBDE8008C20F07F474A
:1046600023F07F4C80EA030000F0004007EB0C03CE
:10467000A3F57C53A3F1FE0392F0000F00F0B3808A
:1046800095F0000F00F077802DE901494FEA1140C5
:1046900021EA00484FEA144624EA064700FB06FCDC
:1046A00008FB06F607FB08F818EB06484CEB164C1F
:1046B00000FB07F718EB07484CEB17404FEA124B8B
:1046C00022EA0B4E4FEA154625EA06470BFB06FC8D
:1046D0000EFB06F607FB0EFE1EEB064E4CEB164CD1
:1046E0000BFB07F71EEB074E4CEB174B18EB0B08B9
:1046F00040F1000018EB0E0B58EB000840F10000F1
:104700008F1A4FF000014FF000063CBFC943661BF3
:1047100014BFB5EB040C00213CBFC943F61B4FEAA4
:10472000174427EA04454FEA1C472CEA074C04FBD0
:10473000076205FB07F70CFB05F616EB074642EB95
:10474000174204FB0CFC16EB0C4642EB1C421BEB25
:10475000060658EB020241414EEA8E0E46EA9E06DC
:1047600001D5BDE80189B619524141EB0101A3F120
:104770000103BDE801894FEA144524EA05464FEAE2
:10478000114721EA074C05FB07F406FB07F70CFB72
:1047900006F111EB074144EB174405FB0CFC11EB50
:1047A0000C4144EB1C444FEA124722EA074C05FB3C
:1047B00007F206FB07F70CFB06F616EB074642EB83
:1047C000174205FB0CFC16EB0C4642EB1C456A1825
:1047D00054F1000148BF7047B619524141EB010145
:1047E000A3F10103704795F0000F37D04FEA114253
:1047F00021EA02464FEA144724EA074C02FB07F17C
:1048000006FB07F70CFB06F414EB074441EB1741DA
:1048100002FB0CFC14EB0C4441EB1C414FEA154726
:1048200025EA074C02FB07F506FB07F70CFB06F62B
:1048300016EB074645EB174502FB0CFC16EB0C4646
:1048400045EB1C42121951F1000148BF7047B619DF
:10485000524141EB0101A3F1010370474FEA1445B6
:1048600024EA05464FEA114721EA074C05FB07F108
:1048700006FB07F70CFB06F212EB074241EB174170
:1048800005FB0CFC12EB0C4251EB1C414FF00006F7
:1048900048BF7047921841EB0101A3F10103704733
:1048A00003B401984100009850EAC12018BF0420C9
:1048B0004A0D18BF40F0010040F2FF72B2EB515FA9
:1048C00008BF40F00200012808BF052002B0704771
:1048D00030380A2801D201207047002070470000BC
:1048E00010B500290AD00878002807D00548784478
:1048F000FBF7EAFE002801D0002010BD02487844F2
:1049000010BD0000220100001A010000F1EE100AA3
:104910004FF6FF71C0F2C03120EA010040F0407054
:10492000E1EE100A7047FCF741B8040000080000EF
:104930000000000000020001000010000240000022
:10494000000000A00000000005400000000000C8BA
:10495000000000000C4000000000409C000000002F
:10496000194000000020BCBE0000000034400000E0
:10497000BFC91B8E00000004B5400000504BCFD0D3
:104980006607E2CF010000006C4100003E8251AAA0
:10499000DFEEA73401000000D9420000DCB5A0E240
:1049A0003A301F97FFFFFFFFB4450000FD25A0C868
:1049B000E9A3C14FFFFFFFFFFF3F000000000080A1
:1049C00000000000FF3F0000000000800000000029
:1049D00000000000000000000102030406070809AF
:1049E0000000000001020304000610160006101665
:1049F000304A0008000000201000000000020008FB
:104A0000404A000810000020700C00001C02000842
:104A10001C00000043000000F8FFFFFF0C00000036
:104A20000E0000000F0000002E000000000000003B
:104A300001000000100000000024F400000000004D
:04000005080001C529
:00000001FF
